{
  "contractName": "MarketPlace",
  "abi": [
    {
      "constant": false,
      "inputs": [],
      "name": "unpause",
      "outputs": [],
      "payable": false,
      "stateMutability": "nonpayable",
      "type": "function",
      "signature": "0x3f4ba83a"
    },
    {
      "constant": true,
      "inputs": [
        {
          "name": "",
          "type": "uint256"
        }
      ],
      "name": "storeOwners",
      "outputs": [
        {
          "name": "",
          "type": "address"
        }
      ],
      "payable": false,
      "stateMutability": "view",
      "type": "function",
      "signature": "0x44d50993"
    },
    {
      "constant": true,
      "inputs": [
        {
          "name": "account",
          "type": "address"
        }
      ],
      "name": "isPauser",
      "outputs": [
        {
          "name": "",
          "type": "bool"
        }
      ],
      "payable": false,
      "stateMutability": "view",
      "type": "function",
      "signature": "0x46fbf68e"
    },
    {
      "constant": true,
      "inputs": [
        {
          "name": "",
          "type": "address"
        },
        {
          "name": "",
          "type": "uint256"
        }
      ],
      "name": "storefrontsByOwner",
      "outputs": [
        {
          "name": "",
          "type": "bytes32"
        }
      ],
      "payable": false,
      "stateMutability": "view",
      "type": "function",
      "signature": "0x59df58a3"
    },
    {
      "constant": true,
      "inputs": [],
      "name": "paused",
      "outputs": [
        {
          "name": "",
          "type": "bool"
        }
      ],
      "payable": false,
      "stateMutability": "view",
      "type": "function",
      "signature": "0x5c975abb"
    },
    {
      "constant": false,
      "inputs": [],
      "name": "renouncePauser",
      "outputs": [],
      "payable": false,
      "stateMutability": "nonpayable",
      "type": "function",
      "signature": "0x6ef8d66d"
    },
    {
      "constant": false,
      "inputs": [],
      "name": "renounceOwnership",
      "outputs": [],
      "payable": false,
      "stateMutability": "nonpayable",
      "type": "function",
      "signature": "0x715018a6"
    },
    {
      "constant": false,
      "inputs": [
        {
          "name": "account",
          "type": "address"
        }
      ],
      "name": "addPauser",
      "outputs": [],
      "payable": false,
      "stateMutability": "nonpayable",
      "type": "function",
      "signature": "0x82dc1ec4"
    },
    {
      "constant": false,
      "inputs": [],
      "name": "pause",
      "outputs": [],
      "payable": false,
      "stateMutability": "nonpayable",
      "type": "function",
      "signature": "0x8456cb59"
    },
    {
      "constant": true,
      "inputs": [],
      "name": "owner",
      "outputs": [
        {
          "name": "",
          "type": "address"
        }
      ],
      "payable": false,
      "stateMutability": "view",
      "type": "function",
      "signature": "0x8da5cb5b"
    },
    {
      "constant": true,
      "inputs": [],
      "name": "isOwner",
      "outputs": [
        {
          "name": "",
          "type": "bool"
        }
      ],
      "payable": false,
      "stateMutability": "view",
      "type": "function",
      "signature": "0x8f32d59b"
    },
    {
      "constant": true,
      "inputs": [
        {
          "name": "",
          "type": "bytes32"
        }
      ],
      "name": "storefrontsById",
      "outputs": [
        {
          "name": "id",
          "type": "bytes32"
        },
        {
          "name": "name",
          "type": "bytes32"
        },
        {
          "name": "owner",
          "type": "address"
        },
        {
          "name": "balance",
          "type": "uint256"
        }
      ],
      "payable": false,
      "stateMutability": "view",
      "type": "function",
      "signature": "0x9322737f"
    },
    {
      "constant": true,
      "inputs": [
        {
          "name": "",
          "type": "address"
        }
      ],
      "name": "storeOwnersByAddress",
      "outputs": [
        {
          "name": "",
          "type": "bool"
        }
      ],
      "payable": false,
      "stateMutability": "view",
      "type": "function",
      "signature": "0x94dc131e"
    },
    {
      "constant": false,
      "inputs": [
        {
          "name": "_proxy",
          "type": "address"
        }
      ],
      "name": "setProxy",
      "outputs": [],
      "payable": false,
      "stateMutability": "nonpayable",
      "type": "function",
      "signature": "0x97107d6d"
    },
    {
      "constant": false,
      "inputs": [
        {
          "name": "sender",
          "type": "address"
        }
      ],
      "name": "setMessageSender",
      "outputs": [],
      "payable": false,
      "stateMutability": "nonpayable",
      "type": "function",
      "signature": "0xbc67f832"
    },
    {
      "constant": true,
      "inputs": [
        {
          "name": "",
          "type": "address"
        }
      ],
      "name": "administratorsByAddress",
      "outputs": [
        {
          "name": "",
          "type": "bool"
        }
      ],
      "payable": false,
      "stateMutability": "view",
      "type": "function",
      "signature": "0xcd99f795"
    },
    {
      "constant": false,
      "inputs": [],
      "name": "finish",
      "outputs": [],
      "payable": false,
      "stateMutability": "nonpayable",
      "type": "function",
      "signature": "0xd56b2889"
    },
    {
      "constant": true,
      "inputs": [
        {
          "name": "",
          "type": "uint256"
        }
      ],
      "name": "administrators",
      "outputs": [
        {
          "name": "",
          "type": "address"
        }
      ],
      "payable": false,
      "stateMutability": "view",
      "type": "function",
      "signature": "0xd89d1510"
    },
    {
      "constant": true,
      "inputs": [],
      "name": "proxy",
      "outputs": [
        {
          "name": "",
          "type": "address"
        }
      ],
      "payable": false,
      "stateMutability": "view",
      "type": "function",
      "signature": "0xec556889"
    },
    {
      "constant": false,
      "inputs": [
        {
          "name": "newOwner",
          "type": "address"
        }
      ],
      "name": "transferOwnership",
      "outputs": [],
      "payable": false,
      "stateMutability": "nonpayable",
      "type": "function",
      "signature": "0xf2fde38b"
    },
    {
      "inputs": [
        {
          "name": "_proxy",
          "type": "address"
        }
      ],
      "payable": false,
      "stateMutability": "nonpayable",
      "type": "constructor",
      "signature": "constructor"
    },
    {
      "anonymous": false,
      "inputs": [
        {
          "indexed": false,
          "name": "admin",
          "type": "address"
        }
      ],
      "name": "AdminAdded",
      "type": "event",
      "signature": "0x44d6d25963f097ad14f29f06854a01f575648a1ef82f30e562ccd3889717e339"
    },
    {
      "anonymous": false,
      "inputs": [
        {
          "indexed": false,
          "name": "admin",
          "type": "address"
        }
      ],
      "name": "AdminRemoved",
      "type": "event",
      "signature": "0xa3b62bc36326052d97ea62d63c3d60308ed4c3ea8ac079dd8499f1e9c4f80c0f"
    },
    {
      "anonymous": false,
      "inputs": [
        {
          "indexed": false,
          "name": "storeOwner",
          "type": "address"
        }
      ],
      "name": "StoreOwnerAdded",
      "type": "event",
      "signature": "0xe095b54135d91dfdb849d8f2a1232ed69da67f78cfd33a34a834084d8d037e9a"
    },
    {
      "anonymous": false,
      "inputs": [
        {
          "indexed": false,
          "name": "storeOwner",
          "type": "address"
        }
      ],
      "name": "StoreOwnerRemoved",
      "type": "event",
      "signature": "0xee8258b57c171df72836d554f2addcb97a3be3652a6f9f58a431063096c0b840"
    },
    {
      "anonymous": false,
      "inputs": [
        {
          "indexed": false,
          "name": "id",
          "type": "bytes32"
        },
        {
          "indexed": false,
          "name": "name",
          "type": "bytes32"
        },
        {
          "indexed": false,
          "name": "owner",
          "type": "address"
        }
      ],
      "name": "StoreCreated",
      "type": "event",
      "signature": "0x11bbcd7e1ec9adb981103ba1d6654a2562461c2b0d8392714fb9345837e4be13"
    },
    {
      "anonymous": false,
      "inputs": [
        {
          "indexed": false,
          "name": "id",
          "type": "bytes32"
        }
      ],
      "name": "StoreRemoved",
      "type": "event",
      "signature": "0x42b0d75ecaefba5bc0e1e6f2b225eb31d0fa0fd09119d3b850cada0841bc1d02"
    },
    {
      "anonymous": false,
      "inputs": [
        {
          "indexed": false,
          "name": "id",
          "type": "bytes32"
        },
        {
          "indexed": false,
          "name": "balance",
          "type": "uint256"
        }
      ],
      "name": "BalanceWithdrawn",
      "type": "event",
      "signature": "0xb7576a710fcc891d13513585bab7cd7b441b1f0aeb4ded4d5052fb7b27301efc"
    },
    {
      "anonymous": false,
      "inputs": [
        {
          "indexed": false,
          "name": "id",
          "type": "bytes32"
        },
        {
          "indexed": false,
          "name": "name",
          "type": "bytes32"
        },
        {
          "indexed": false,
          "name": "price",
          "type": "uint256"
        },
        {
          "indexed": false,
          "name": "qty",
          "type": "uint256"
        }
      ],
      "name": "ItemAdded",
      "type": "event",
      "signature": "0x888dcac1d1d96650356de88b82548529d50f9c8b2e4bd88f8c298d398bde2bef"
    },
    {
      "anonymous": false,
      "inputs": [
        {
          "indexed": false,
          "name": "id",
          "type": "bytes32"
        }
      ],
      "name": "ItemRemoved",
      "type": "event",
      "signature": "0x4d14690cbd42eab82cd15ad666b9b98197ade97acdd17512bdec0497b591de48"
    },
    {
      "anonymous": false,
      "inputs": [
        {
          "indexed": false,
          "name": "id",
          "type": "bytes32"
        },
        {
          "indexed": false,
          "name": "newPrice",
          "type": "uint256"
        },
        {
          "indexed": false,
          "name": "oldPrice",
          "type": "uint256"
        }
      ],
      "name": "ItemPriceUpdated",
      "type": "event",
      "signature": "0x55cc09d00de6540ba059952c93ab171a4c3da4c89b729ea5de19b8cc863c2117"
    },
    {
      "anonymous": false,
      "inputs": [
        {
          "indexed": false,
          "name": "id",
          "type": "bytes32"
        },
        {
          "indexed": false,
          "name": "newQty",
          "type": "uint256"
        },
        {
          "indexed": false,
          "name": "oldQty",
          "type": "uint256"
        }
      ],
      "name": "ItemQuantityUpdated",
      "type": "event",
      "signature": "0x73b275e7ead5ed73869fb9794c1cb9cf330f3f1461360e2c79798d00d946f4b9"
    },
    {
      "anonymous": false,
      "inputs": [
        {
          "indexed": false,
          "name": "storeId",
          "type": "bytes32"
        },
        {
          "indexed": false,
          "name": "itemId",
          "type": "bytes32"
        },
        {
          "indexed": false,
          "name": "qty",
          "type": "uint256"
        }
      ],
      "name": "ItemSold",
      "type": "event",
      "signature": "0xe4f85790bdbeca4aead06b7b55450d99ad2693940f65f816d24044a72db6b6bb"
    },
    {
      "anonymous": false,
      "inputs": [
        {
          "indexed": false,
          "name": "proxyAddress",
          "type": "address"
        }
      ],
      "name": "ProxyUpdated",
      "type": "event",
      "signature": "0xfc80377ca9c49cc11ae6982f390a42db976d5530af7c43889264b13fbbd7c57e"
    },
    {
      "anonymous": false,
      "inputs": [
        {
          "indexed": false,
          "name": "account",
          "type": "address"
        }
      ],
      "name": "Paused",
      "type": "event",
      "signature": "0x62e78cea01bee320cd4e420270b5ea74000d11b0c9f74754ebdbfc544b05a258"
    },
    {
      "anonymous": false,
      "inputs": [
        {
          "indexed": false,
          "name": "account",
          "type": "address"
        }
      ],
      "name": "Unpaused",
      "type": "event",
      "signature": "0x5db9ee0a495bf2e6ff9c91a7834c1ba4fdd244a5e8aa4e537bd38aeae4b073aa"
    },
    {
      "anonymous": false,
      "inputs": [
        {
          "indexed": true,
          "name": "previousOwner",
          "type": "address"
        },
        {
          "indexed": true,
          "name": "newOwner",
          "type": "address"
        }
      ],
      "name": "OwnershipTransferred",
      "type": "event",
      "signature": "0x8be0079c531659141344cd1fd0a4f28419497f9722a3daafe3b4186f6b6457e0"
    },
    {
      "anonymous": false,
      "inputs": [
        {
          "indexed": true,
          "name": "account",
          "type": "address"
        }
      ],
      "name": "PauserAdded",
      "type": "event",
      "signature": "0x6719d08c1888103bea251a4ed56406bd0c3e69723c8a1686e017e7bbe159b6f8"
    },
    {
      "anonymous": false,
      "inputs": [
        {
          "indexed": true,
          "name": "account",
          "type": "address"
        }
      ],
      "name": "PauserRemoved",
      "type": "event",
      "signature": "0xcd265ebaf09df2871cc7bd4133404a235ba12eff2041bb89d9c714a2621c7c7e"
    },
    {
      "constant": false,
      "inputs": [
        {
          "name": "addr",
          "type": "address"
        }
      ],
      "name": "addAdmin",
      "outputs": [
        {
          "name": "",
          "type": "bool"
        }
      ],
      "payable": false,
      "stateMutability": "nonpayable",
      "type": "function",
      "signature": "0x70480275"
    },
    {
      "constant": false,
      "inputs": [
        {
          "name": "addr",
          "type": "address"
        }
      ],
      "name": "removeAdmin",
      "outputs": [
        {
          "name": "",
          "type": "bool"
        }
      ],
      "payable": false,
      "stateMutability": "nonpayable",
      "type": "function",
      "signature": "0x1785f53c"
    },
    {
      "constant": true,
      "inputs": [],
      "name": "getAdministrators",
      "outputs": [
        {
          "name": "",
          "type": "address[]"
        }
      ],
      "payable": false,
      "stateMutability": "view",
      "type": "function",
      "signature": "0x543b3693"
    },
    {
      "constant": false,
      "inputs": [
        {
          "name": "addr",
          "type": "address"
        }
      ],
      "name": "addStoreOwner",
      "outputs": [
        {
          "name": "",
          "type": "bool"
        }
      ],
      "payable": false,
      "stateMutability": "nonpayable",
      "type": "function",
      "signature": "0x9adeb5f1"
    },
    {
      "constant": false,
      "inputs": [
        {
          "name": "addr",
          "type": "address"
        }
      ],
      "name": "removeStoreOwner",
      "outputs": [
        {
          "name": "",
          "type": "bool"
        }
      ],
      "payable": false,
      "stateMutability": "nonpayable",
      "type": "function",
      "signature": "0x6174fdd1"
    },
    {
      "constant": true,
      "inputs": [],
      "name": "getStoreOwners",
      "outputs": [
        {
          "name": "",
          "type": "address[]"
        }
      ],
      "payable": false,
      "stateMutability": "view",
      "type": "function",
      "signature": "0x91f4245a"
    },
    {
      "constant": false,
      "inputs": [
        {
          "name": "name",
          "type": "bytes32"
        }
      ],
      "name": "createStore",
      "outputs": [
        {
          "name": "",
          "type": "bytes32"
        }
      ],
      "payable": false,
      "stateMutability": "nonpayable",
      "type": "function",
      "signature": "0x73a05d6a"
    },
    {
      "constant": false,
      "inputs": [
        {
          "name": "storeId",
          "type": "bytes32"
        }
      ],
      "name": "removeStore",
      "outputs": [
        {
          "name": "",
          "type": "bytes32"
        }
      ],
      "payable": false,
      "stateMutability": "nonpayable",
      "type": "function",
      "signature": "0x60cefa28"
    },
    {
      "constant": true,
      "inputs": [
        {
          "name": "owner",
          "type": "address"
        }
      ],
      "name": "getOwnerStorefronts",
      "outputs": [
        {
          "name": "",
          "type": "bytes32[]"
        },
        {
          "name": "",
          "type": "bytes32[]"
        },
        {
          "name": "",
          "type": "uint256[]"
        }
      ],
      "payable": false,
      "stateMutability": "view",
      "type": "function",
      "signature": "0xe7c5d7f9"
    },
    {
      "constant": false,
      "inputs": [
        {
          "name": "storeId",
          "type": "bytes32"
        },
        {
          "name": "itemName",
          "type": "bytes32"
        },
        {
          "name": "itemPrice",
          "type": "uint256"
        },
        {
          "name": "itemQuantity",
          "type": "uint256"
        }
      ],
      "name": "addItemToInventory",
      "outputs": [
        {
          "name": "",
          "type": "bytes32"
        }
      ],
      "payable": false,
      "stateMutability": "nonpayable",
      "type": "function",
      "signature": "0x12818984"
    },
    {
      "constant": false,
      "inputs": [
        {
          "name": "itemId",
          "type": "bytes32"
        },
        {
          "name": "storeId",
          "type": "bytes32"
        }
      ],
      "name": "removeItemFromInventory",
      "outputs": [
        {
          "name": "",
          "type": "bytes32"
        }
      ],
      "payable": false,
      "stateMutability": "nonpayable",
      "type": "function",
      "signature": "0x7c3b8430"
    },
    {
      "constant": false,
      "inputs": [
        {
          "name": "itemId",
          "type": "bytes32"
        },
        {
          "name": "storeId",
          "type": "bytes32"
        },
        {
          "name": "newPrice",
          "type": "uint256"
        }
      ],
      "name": "updateItemPrice",
      "outputs": [
        {
          "name": "",
          "type": "bytes32"
        }
      ],
      "payable": false,
      "stateMutability": "nonpayable",
      "type": "function",
      "signature": "0x4a6273cf"
    },
    {
      "constant": false,
      "inputs": [
        {
          "name": "itemId",
          "type": "bytes32"
        },
        {
          "name": "storeId",
          "type": "bytes32"
        },
        {
          "name": "newQty",
          "type": "uint256"
        }
      ],
      "name": "updateItemQuantity",
      "outputs": [
        {
          "name": "",
          "type": "bytes32"
        }
      ],
      "payable": false,
      "stateMutability": "nonpayable",
      "type": "function",
      "signature": "0x800621d0"
    },
    {
      "constant": false,
      "inputs": [
        {
          "name": "storeId",
          "type": "bytes32"
        }
      ],
      "name": "widthdrawStorefrontBalance",
      "outputs": [
        {
          "name": "",
          "type": "bool"
        }
      ],
      "payable": false,
      "stateMutability": "nonpayable",
      "type": "function",
      "signature": "0x4b199d4d"
    },
    {
      "constant": true,
      "inputs": [
        {
          "name": "owner",
          "type": "address"
        }
      ],
      "name": "getStorefrontCountByOwner",
      "outputs": [
        {
          "name": "",
          "type": "uint256"
        }
      ],
      "payable": false,
      "stateMutability": "view",
      "type": "function",
      "signature": "0x0ef433a8"
    },
    {
      "constant": true,
      "inputs": [
        {
          "name": "_storeId",
          "type": "bytes32"
        }
      ],
      "name": "getStorefrontInventory",
      "outputs": [
        {
          "name": "",
          "type": "bytes32[]"
        },
        {
          "name": "",
          "type": "bytes32[]"
        },
        {
          "name": "",
          "type": "uint256[]"
        },
        {
          "name": "",
          "type": "uint256[]"
        }
      ],
      "payable": false,
      "stateMutability": "view",
      "type": "function",
      "signature": "0x041393fd"
    },
    {
      "constant": false,
      "inputs": [
        {
          "name": "storeId",
          "type": "bytes32"
        },
        {
          "name": "itemId",
          "type": "bytes32"
        },
        {
          "name": "quantity",
          "type": "uint256"
        }
      ],
      "name": "purchaseItem",
      "outputs": [
        {
          "name": "",
          "type": "bool"
        }
      ],
      "payable": true,
      "stateMutability": "payable",
      "type": "function",
      "signature": "0x749008fe"
    }
  ],
  "bytecode": "0x60806040523480156200001157600080fd5b50604051602080620045be833981018060405260208110156200003357600080fd5b8101908080519060200190929190505050806200005f33620002a2640100000000026401000000009004565b33600160006101000a81548173ffffffffffffffffffffffffffffffffffffffff021916908373ffffffffffffffffffffffffffffffffffffffff160217905550600160009054906101000a900473ffffffffffffffffffffffffffffffffffffffff1673ffffffffffffffffffffffffffffffffffffffff16600073ffffffffffffffffffffffffffffffffffffffff167f8be0079c531659141344cd1fd0a4f28419497f9722a3daafe3b4186f6b6457e060405160405180910390a36000600160146101000a81548160ff02191690831515021790555080600260006101000a81548173ffffffffffffffffffffffffffffffffffffffff021916908373ffffffffffffffffffffffffffffffffffffffff1602179055507ffc80377ca9c49cc11ae6982f390a42db976d5530af7c43889264b13fbbd7c57e81604051808273ffffffffffffffffffffffffffffffffffffffff1673ffffffffffffffffffffffffffffffffffffffff16815260200191505060405180910390a1506001600660003373ffffffffffffffffffffffffffffffffffffffff1673ffffffffffffffffffffffffffffffffffffffff16815260200190815260200160002060006101000a81548160ff02191690831515021790555060043390806001815401808255809150509060018203906000526020600020016000909192909190916101000a81548173ffffffffffffffffffffffffffffffffffffffff021916908373ffffffffffffffffffffffffffffffffffffffff160217905550505062000464565b620002c68160006200030c6401000000000262003edf179091906401000000009004565b8073ffffffffffffffffffffffffffffffffffffffff167f6719d08c1888103bea251a4ed56406bd0c3e69723c8a1686e017e7bbe159b6f860405160405180910390a250565b600073ffffffffffffffffffffffffffffffffffffffff168173ffffffffffffffffffffffffffffffffffffffff16141515156200034957600080fd5b620003648282620003cf640100000000026401000000009004565b1515156200037157600080fd5b60018260000160008373ffffffffffffffffffffffffffffffffffffffff1673ffffffffffffffffffffffffffffffffffffffff16815260200190815260200160002060006101000a81548160ff0219169083151502179055505050565b60008073ffffffffffffffffffffffffffffffffffffffff168273ffffffffffffffffffffffffffffffffffffffff16141515156200040d57600080fd5b8260000160008373ffffffffffffffffffffffffffffffffffffffff1673ffffffffffffffffffffffffffffffffffffffff16815260200190815260200160002060009054906101000a900460ff16905092915050565b61414a80620004746000396000f3fe608060405260043610610237576000357c010000000000000000000000000000000000000000000000000000000090048063749008fe1161014057806394dc131e116100c8578063d56b28891161008c578063d56b288914610e15578063d89d151014610e2c578063e7c5d7f914610ea7578063ec55688914610fdd578063f2fde38b1461103457610237565b806394dc131e14610c3857806397107d6d14610ca15780639adeb5f114610cf2578063bc67f83214610d5b578063cd99f79514610dac57610237565b80638456cb591161010f5780638456cb5914610a9f5780638da5cb5b14610ab65780638f32d59b14610b0d57806391f4245a14610b3c5780639322737f14610ba857610237565b8063749008fe146109385780637c3b843014610992578063800621d0146109eb57806382dc1ec414610a4e57610237565b8063543b3693116101c35780636174fdd1116101925780636174fdd1146107e95780636ef8d66d146108525780637048027514610869578063715018a6146108d257806373a05d6a146108e957610237565b8063543b36931461069057806359df58a3146106fc5780635c975abb1461076b57806360cefa281461079a57610237565b80633f4ba83a1161020a5780633f4ba83a146104df57806344d50993146104f657806346fbf68e146105715780634a6273cf146105da5780634b199d4d1461063d57610237565b8063041393fd1461023c5780630ef433a8146103a457806312818984146104095780631785f53c14610476575b600080fd5b34801561024857600080fd5b506102756004803603602081101561025f57600080fd5b8101908080359060200190929190505050611085565b6040518080602001806020018060200180602001858103855289818151815260200191508051906020019060200280838360005b838110156102c45780820151818401526020810190506102a9565b50505050905001858103845288818151815260200191508051906020019060200280838360005b838110156103065780820151818401526020810190506102eb565b50505050905001858103835287818151815260200191508051906020019060200280838360005b8381101561034857808201518184015260208101905061032d565b50505050905001858103825286818151815260200191508051906020019060200280838360005b8381101561038a57808201518184015260208101905061036f565b505050509050019850505050505050505060405180910390f35b3480156103b057600080fd5b506103f3600480360360208110156103c757600080fd5b81019080803573ffffffffffffffffffffffffffffffffffffffff169060200190929190505050611324565b6040518082815260200191505060405180910390f35b34801561041557600080fd5b506104606004803603608081101561042c57600080fd5b8101908080359060200190929190803590602001909291908035906020019092919080359060200190929190505050611370565b6040518082815260200191505060405180910390f35b34801561048257600080fd5b506104c56004803603602081101561049957600080fd5b81019080803573ffffffffffffffffffffffffffffffffffffffff1690602001909291905050506115c7565b604051808215151515815260200191505060405180910390f35b3480156104eb57600080fd5b506104f46118d7565b005b34801561050257600080fd5b5061052f6004803603602081101561051957600080fd5b8101908080359060200190929190505050611986565b604051808273ffffffffffffffffffffffffffffffffffffffff1673ffffffffffffffffffffffffffffffffffffffff16815260200191505060405180910390f35b34801561057d57600080fd5b506105c06004803603602081101561059457600080fd5b81019080803573ffffffffffffffffffffffffffffffffffffffff1690602001909291905050506119c4565b604051808215151515815260200191505060405180910390f35b3480156105e657600080fd5b50610627600480360360608110156105fd57600080fd5b810190808035906020019092919080359060200190929190803590602001909291905050506119e1565b6040518082815260200191505060405180910390f35b34801561064957600080fd5b506106766004803603602081101561066057600080fd5b8101908080359060200190929190505050611b46565b604051808215151515815260200191505060405180910390f35b34801561069c57600080fd5b506106a5611cf0565b6040518080602001828103825283818151815260200191508051906020019060200280838360005b838110156106e85780820151818401526020810190506106cd565b505050509050019250505060405180910390f35b34801561070857600080fd5b506107556004803603604081101561071f57600080fd5b81019080803573ffffffffffffffffffffffffffffffffffffffff16906020019092919080359060200190929190505050611dd8565b6040518082815260200191505060405180910390f35b34801561077757600080fd5b50610780611e08565b604051808215151515815260200191505060405180910390f35b3480156107a657600080fd5b506107d3600480360360208110156107bd57600080fd5b8101908080359060200190929190505050611e1f565b6040518082815260200191505060405180910390f35b3480156107f557600080fd5b506108386004803603602081101561080c57600080fd5b81019080803573ffffffffffffffffffffffffffffffffffffffff1690602001909291905050506123a1565b604051808215151515815260200191505060405180910390f35b34801561085e57600080fd5b506108676126b1565b005b34801561087557600080fd5b506108b86004803603602081101561088c57600080fd5b81019080803573ffffffffffffffffffffffffffffffffffffffff1690602001909291905050506126bc565b604051808215151515815260200191505060405180910390f35b3480156108de57600080fd5b506108e76128b0565b005b3480156108f557600080fd5b506109226004803603602081101561090c57600080fd5b8101908080359060200190929190505050612984565b6040518082815260200191505060405180910390f35b6109786004803603606081101561094e57600080fd5b81019080803590602001909291908035906020019092919080359060200190929190505050612c95565b604051808215151515815260200191505060405180910390f35b34801561099e57600080fd5b506109d5600480360360408110156109b557600080fd5b810190808035906020019092919080359060200190929190505050612eb4565b6040518082815260200191505060405180910390f35b3480156109f757600080fd5b50610a3860048036036060811015610a0e57600080fd5b8101908080359060200190929190803590602001909291908035906020019092919050505061312a565b6040518082815260200191505060405180910390f35b348015610a5a57600080fd5b50610a9d60048036036020811015610a7157600080fd5b81019080803573ffffffffffffffffffffffffffffffffffffffff16906020019092919050505061328f565b005b348015610aab57600080fd5b50610ab46132af565b005b348015610ac257600080fd5b50610acb61335e565b604051808273ffffffffffffffffffffffffffffffffffffffff1673ffffffffffffffffffffffffffffffffffffffff16815260200191505060405180910390f35b348015610b1957600080fd5b50610b22613388565b604051808215151515815260200191505060405180910390f35b348015610b4857600080fd5b50610b516133e0565b6040518080602001828103825283818151815260200191508051906020019060200280838360005b83811015610b94578082015181840152602081019050610b79565b505050509050019250505060405180910390f35b348015610bb457600080fd5b50610be160048036036020811015610bcb57600080fd5b81019080803590602001909291905050506134c8565b604051808581526020018481526020018373ffffffffffffffffffffffffffffffffffffffff1673ffffffffffffffffffffffffffffffffffffffff16815260200182815260200194505050505060405180910390f35b348015610c4457600080fd5b50610c8760048036036020811015610c5b57600080fd5b81019080803573ffffffffffffffffffffffffffffffffffffffff169060200190929190505050613518565b604051808215151515815260200191505060405180910390f35b348015610cad57600080fd5b50610cf060048036036020811015610cc457600080fd5b81019080803573ffffffffffffffffffffffffffffffffffffffff169060200190929190505050613538565b005b348015610cfe57600080fd5b50610d4160048036036020811015610d1557600080fd5b81019080803573ffffffffffffffffffffffffffffffffffffffff1690602001909291905050506135f2565b604051808215151515815260200191505060405180910390f35b348015610d6757600080fd5b50610daa60048036036020811015610d7e57600080fd5b81019080803573ffffffffffffffffffffffffffffffffffffffff1690602001909291905050506137e6565b005b348015610db857600080fd5b50610dfb60048036036020811015610dcf57600080fd5b81019080803573ffffffffffffffffffffffffffffffffffffffff1690602001909291905050506138d2565b604051808215151515815260200191505060405180910390f35b348015610e2157600080fd5b50610e2a6138f2565b005b348015610e3857600080fd5b50610e6560048036036020811015610e4f57600080fd5b810190808035906020019092919050505061391e565b604051808273ffffffffffffffffffffffffffffffffffffffff1673ffffffffffffffffffffffffffffffffffffffff16815260200191505060405180910390f35b348015610eb357600080fd5b50610ef660048036036020811015610eca57600080fd5b81019080803573ffffffffffffffffffffffffffffffffffffffff16906020019092919050505061395c565b60405180806020018060200180602001848103845287818151815260200191508051906020019060200280838360005b83811015610f41578082015181840152602081019050610f26565b50505050905001848103835286818151815260200191508051906020019060200280838360005b83811015610f83578082015181840152602081019050610f68565b50505050905001848103825285818151815260200191508051906020019060200280838360005b83811015610fc5578082015181840152602081019050610faa565b50505050905001965050505050505060405180910390f35b348015610fe957600080fd5b50610ff2613b69565b604051808273ffffffffffffffffffffffffffffffffffffffff1673ffffffffffffffffffffffffffffffffffffffff16815260200191505060405180910390f35b34801561104057600080fd5b506110836004803603602081101561105757600080fd5b81019080803573ffffffffffffffffffffffffffffffffffffffff169060200190929190505050613b8f565b005b6060806060806060600b60008781526020019081526020016000208054806020026020016040519081016040528092919081815260200182805480156110ea57602002820191906000526020600020905b8154815260200190600101908083116110d6575b505050505090506000815190506060816040519080825280602002602001820160405280156111285781602001602082028038833980820191505090505b50905060608260405190808252806020026020018201604052801561115c5781602001602082028038833980820191505090505b5090506060836040519080825280602002602001820160405280156111905781602001602082028038833980820191505090505b5090506060846040519080825280602002602001820160405280156111c45781602001602082028038833980820191505090505b50905060008090505b8581101561130a57600c600088838151811015156111e757fe5b90602001906020020151815260200190815260200160002060000154858281518110151561121157fe5b9060200190602002018181525050600c6000888381518110151561123157fe5b90602001906020020151815260200190815260200160002060010154848281518110151561125b57fe5b9060200190602002018181525050600c6000888381518110151561127b57fe5b9060200190602002015181526020019081526020016000206003015483828151811015156112a557fe5b9060200190602002018181525050600c600088838151811015156112c557fe5b9060200190602002015181526020019081526020016000206002015482828151811015156112ef57fe5b906020019060200201818152505080806001019150506111cd565b508383838399509950995099505050505050509193509193565b6000600960008373ffffffffffffffffffffffffffffffffffffffff1673ffffffffffffffffffffffffffffffffffffffff168152602001908152602001600020805490509050919050565b6000843373ffffffffffffffffffffffffffffffffffffffff16600a600083815260200190815260200160002060020160009054906101000a900473ffffffffffffffffffffffffffffffffffffffff1673ffffffffffffffffffffffffffffffffffffffff1614151561144c576040517f08c379a00000000000000000000000000000000000000000000000000000000081526004018080602001828103825260168152602001807f53656e646572206e6f7420617574686f72697a65642e0000000000000000000081525060200191505060405180910390fd5b6000338642604051602001808473ffffffffffffffffffffffffffffffffffffffff1673ffffffffffffffffffffffffffffffffffffffff166c0100000000000000000000000002815260140183815260200182815260200193505050506040516020818303038152906040528051906020012090506114ca613f8f565b60806040519081016040528083815260200188815260200187815260200186815250905080600c600084815260200190815260200160002060008201518160000155602082015181600101556040820151816002015560608201518160030155905050600b60008981526020019081526020016000208290806001815401808255809150509060018203906000526020600020016000909192909190915055507f888dcac1d1d96650356de88b82548529d50f9c8b2e4bd88f8c298d398bde2bef828888886040518085815260200184815260200183815260200182815260200194505050505060405180910390a1819350505050949350505050565b600060011515600660003373ffffffffffffffffffffffffffffffffffffffff1673ffffffffffffffffffffffffffffffffffffffff16815260200190815260200160002060009054906101000a900460ff161515141515611691576040517f08c379a00000000000000000000000000000000000000000000000000000000081526004018080602001828103825260168152602001807f53656e646572206e6f7420617574686f72697a65642e0000000000000000000081525060200191505060405180910390fd5b6000600660008473ffffffffffffffffffffffffffffffffffffffff1673ffffffffffffffffffffffffffffffffffffffff16815260200190815260200160002060006101000a81548160ff0219169083151502179055506000600480549050905060008090505b81811015611869578373ffffffffffffffffffffffffffffffffffffffff1660048281548110151561172757fe5b9060005260206000200160009054906101000a900473ffffffffffffffffffffffffffffffffffffffff1673ffffffffffffffffffffffffffffffffffffffff16141561185c5760046001830381548110151561178057fe5b9060005260206000200160009054906101000a900473ffffffffffffffffffffffffffffffffffffffff166004828154811015156117ba57fe5b9060005260206000200160006101000a81548173ffffffffffffffffffffffffffffffffffffffff021916908373ffffffffffffffffffffffffffffffffffffffff16021790555060046001830381548110151561181457fe5b9060005260206000200160006101000a81549073ffffffffffffffffffffffffffffffffffffffff021916905560048054809190600190036118569190613fbe565b50611869565b80806001019150506116f9565b507fa3b62bc36326052d97ea62d63c3d60308ed4c3ea8ac079dd8499f1e9c4f80c0f83604051808273ffffffffffffffffffffffffffffffffffffffff1673ffffffffffffffffffffffffffffffffffffffff16815260200191505060405180910390a16001915050919050565b6118e0336119c4565b15156118eb57600080fd5b600160149054906101000a900460ff16151561190657600080fd5b6000600160146101000a81548160ff0219169083151502179055507f5db9ee0a495bf2e6ff9c91a7834c1ba4fdd244a5e8aa4e537bd38aeae4b073aa33604051808273ffffffffffffffffffffffffffffffffffffffff1673ffffffffffffffffffffffffffffffffffffffff16815260200191505060405180910390a1565b60058181548110151561199557fe5b906000526020600020016000915054906101000a900473ffffffffffffffffffffffffffffffffffffffff1681565b60006119da826000613bae90919063ffffffff16565b9050919050565b6000823373ffffffffffffffffffffffffffffffffffffffff16600a600083815260200190815260200160002060020160009054906101000a900473ffffffffffffffffffffffffffffffffffffffff1673ffffffffffffffffffffffffffffffffffffffff16141515611abd576040517f08c379a00000000000000000000000000000000000000000000000000000000081526004018080602001828103825260168152602001807f53656e646572206e6f7420617574686f72697a65642e0000000000000000000081525060200191505060405180910390fd5b6000600c600087815260200190815260200160002060020154905083600c6000888152602001908152602001600020600201819055507f55cc09d00de6540ba059952c93ab171a4c3da4c89b729ea5de19b8cc863c211786858360405180848152602001838152602001828152602001935050505060405180910390a185925050509392505050565b6000813373ffffffffffffffffffffffffffffffffffffffff16600a600083815260200190815260200160002060020160009054906101000a900473ffffffffffffffffffffffffffffffffffffffff1673ffffffffffffffffffffffffffffffffffffffff16141515611c22576040517f08c379a00000000000000000000000000000000000000000000000000000000081526004018080602001828103825260168152602001807f53656e646572206e6f7420617574686f72697a65642e0000000000000000000081525060200191505060405180910390fd5b6000600a60008581526020019081526020016000206003015490506000811115611ce9573373ffffffffffffffffffffffffffffffffffffffff166108fc829081150290604051600060405180830381858888f19350505050158015611c8c573d6000803e3d6000fd5b506000600a6000868152602001908152602001600020600301819055507fb7576a710fcc891d13513585bab7cd7b441b1f0aeb4ded4d5052fb7b27301efc8482604051808381526020018281526020019250505060405180910390a15b5050919050565b606060006004805490509050606081604051908082528060200260200182016040528015611d2d5781602001602082028038833980820191505090505b50905060008090505b82811015611dcf57600481815481101515611d4d57fe5b9060005260206000200160009054906101000a900473ffffffffffffffffffffffffffffffffffffffff168282815181101515611d8657fe5b9060200190602002019073ffffffffffffffffffffffffffffffffffffffff16908173ffffffffffffffffffffffffffffffffffffffff16815250508080600101915050611d36565b50809250505090565b600960205281600052604060002081815481101515611df357fe5b90600052602060002001600091509150505481565b6000600160149054906101000a900460ff16905090565b6000813373ffffffffffffffffffffffffffffffffffffffff16600a600083815260200190815260200160002060020160009054906101000a900473ffffffffffffffffffffffffffffffffffffffff1673ffffffffffffffffffffffffffffffffffffffff16141515611efb576040517f08c379a00000000000000000000000000000000000000000000000000000000081526004018080602001828103825260168152602001807f53656e646572206e6f7420617574686f72697a65642e0000000000000000000081525060200191505060405180910390fd5b60008090505b600b600085815260200190815260200160002080549050811015611f92576000600b600086815260200190815260200160002082815481101515611f4157fe5b90600052602060002001549050600c60008281526020019081526020016000206000808201600090556001820160009055600282016000905560038201600090555050508080600101915050611f01565b50600b60008481526020019081526020016000206000611fb29190613fea565b6000600960003373ffffffffffffffffffffffffffffffffffffffff1673ffffffffffffffffffffffffffffffffffffffff16815260200190815260200160002080549050905060008090505b818110156121db5784600960003373ffffffffffffffffffffffffffffffffffffffff1673ffffffffffffffffffffffffffffffffffffffff1681526020019081526020016000208281548110151561205457fe5b906000526020600020015414156121ce57600960003373ffffffffffffffffffffffffffffffffffffffff1673ffffffffffffffffffffffffffffffffffffffff168152602001908152602001600020600183038154811015156120b457fe5b9060005260206000200154600960003373ffffffffffffffffffffffffffffffffffffffff1673ffffffffffffffffffffffffffffffffffffffff1681526020019081526020016000208281548110151561210b57fe5b9060005260206000200181905550600960003373ffffffffffffffffffffffffffffffffffffffff1673ffffffffffffffffffffffffffffffffffffffff1681526020019081526020016000206001830381548110151561216857fe5b9060005260206000200160009055600960003373ffffffffffffffffffffffffffffffffffffffff1673ffffffffffffffffffffffffffffffffffffffff1681526020019081526020016000208054809190600190036121c8919061400b565b506121db565b8080600101915050611fff565b50600880549050905060008090505b81811015612242578460088281548110151561220257fe5b906000526020600020015414156122355760088181548110151561222257fe5b9060005260206000200160009055612242565b80806001019150506121ea565b506000600a6000868152602001908152602001600020600301549050600081111561230a573373ffffffffffffffffffffffffffffffffffffffff166108fc829081150290604051600060405180830381858888f193505050501580156122ad573d6000803e3d6000fd5b506000600a6000878152602001908152602001600020600301819055507fb7576a710fcc891d13513585bab7cd7b441b1f0aeb4ded4d5052fb7b27301efc8582604051808381526020018281526020019250505060405180910390a15b600a600086815260200190815260200160002060008082016000905560018201600090556002820160006101000a81549073ffffffffffffffffffffffffffffffffffffffff0219169055600382016000905550507f42b0d75ecaefba5bc0e1e6f2b225eb31d0fa0fd09119d3b850cada0841bc1d02856040518082815260200191505060405180910390a1849350505050919050565b600060011515600660003373ffffffffffffffffffffffffffffffffffffffff1673ffffffffffffffffffffffffffffffffffffffff16815260200190815260200160002060009054906101000a900460ff16151514151561246b576040517f08c379a00000000000000000000000000000000000000000000000000000000081526004018080602001828103825260168152602001807f53656e646572206e6f7420617574686f72697a65642e0000000000000000000081525060200191505060405180910390fd5b6000600760008473ffffffffffffffffffffffffffffffffffffffff1673ffffffffffffffffffffffffffffffffffffffff16815260200190815260200160002060006101000a81548160ff0219169083151502179055506000600580549050905060008090505b81811015612643578373ffffffffffffffffffffffffffffffffffffffff1660058281548110151561250157fe5b9060005260206000200160009054906101000a900473ffffffffffffffffffffffffffffffffffffffff1673ffffffffffffffffffffffffffffffffffffffff1614156126365760056001830381548110151561255a57fe5b9060005260206000200160009054906101000a900473ffffffffffffffffffffffffffffffffffffffff1660058281548110151561259457fe5b9060005260206000200160006101000a81548173ffffffffffffffffffffffffffffffffffffffff021916908373ffffffffffffffffffffffffffffffffffffffff1602179055506005600183038154811015156125ee57fe5b9060005260206000200160006101000a81549073ffffffffffffffffffffffffffffffffffffffff021916905560058054809190600190036126309190613fbe565b50612643565b80806001019150506124d3565b507fee8258b57c171df72836d554f2addcb97a3be3652a6f9f58a431063096c0b84083604051808273ffffffffffffffffffffffffffffffffffffffff1673ffffffffffffffffffffffffffffffffffffffff16815260200191505060405180910390a16001915050919050565b6126ba33613c42565b565b600060011515600660003373ffffffffffffffffffffffffffffffffffffffff1673ffffffffffffffffffffffffffffffffffffffff16815260200190815260200160002060009054906101000a900460ff161515141515612786576040517f08c379a00000000000000000000000000000000000000000000000000000000081526004018080602001828103825260168152602001807f53656e646572206e6f7420617574686f72697a65642e0000000000000000000081525060200191505060405180910390fd5b6001600660008473ffffffffffffffffffffffffffffffffffffffff1673ffffffffffffffffffffffffffffffffffffffff16815260200190815260200160002060006101000a81548160ff02191690831515021790555060048290806001815401808255809150509060018203906000526020600020016000909192909190916101000a81548173ffffffffffffffffffffffffffffffffffffffff021916908373ffffffffffffffffffffffffffffffffffffffff160217905550507f44d6d25963f097ad14f29f06854a01f575648a1ef82f30e562ccd3889717e33982604051808273ffffffffffffffffffffffffffffffffffffffff1673ffffffffffffffffffffffffffffffffffffffff16815260200191505060405180910390a160019050919050565b6128b8613388565b15156128c357600080fd5b600073ffffffffffffffffffffffffffffffffffffffff16600160009054906101000a900473ffffffffffffffffffffffffffffffffffffffff1673ffffffffffffffffffffffffffffffffffffffff167f8be0079c531659141344cd1fd0a4f28419497f9722a3daafe3b4186f6b6457e060405160405180910390a36000600160006101000a81548173ffffffffffffffffffffffffffffffffffffffff021916908373ffffffffffffffffffffffffffffffffffffffff160217905550565b600060011515600760003373ffffffffffffffffffffffffffffffffffffffff1673ffffffffffffffffffffffffffffffffffffffff16815260200190815260200160002060009054906101000a900460ff161515141515612a4e576040517f08c379a00000000000000000000000000000000000000000000000000000000081526004018080602001828103825260168152602001807f53656e646572206e6f7420617574686f72697a65642e0000000000000000000081525060200191505060405180910390fd5b6000338342604051602001808473ffffffffffffffffffffffffffffffffffffffff1673ffffffffffffffffffffffffffffffffffffffff166c010000000000000000000000000281526014018381526020018281526020019350505050604051602081830303815290604052805190602001209050612acc614037565b6080604051908101604052808381526020018581526020013373ffffffffffffffffffffffffffffffffffffffff168152602001600081525090506008829080600181540180825580915050906001820390600052602060002001600090919290919091505550600960003373ffffffffffffffffffffffffffffffffffffffff1673ffffffffffffffffffffffffffffffffffffffff16815260200190815260200160002082908060018154018082558091505090600182039060005260206000200160009091929091909150555080600a6000848152602001908152602001600020600082015181600001556020820151816001015560408201518160020160006101000a81548173ffffffffffffffffffffffffffffffffffffffff021916908373ffffffffffffffffffffffffffffffffffffffff160217905550606082015181600301559050507f11bbcd7e1ec9adb981103ba1d6654a2562461c2b0d8392714fb9345837e4be13828533604051808481526020018381526020018273ffffffffffffffffffffffffffffffffffffffff1673ffffffffffffffffffffffffffffffffffffffff168152602001935050505060405180910390a18192505050919050565b6000612c9f613f8f565b600c60008581526020019081526020016000206080604051908101604052908160008201548152602001600182015481526020016002820154815260200160038201548152505090506000612d01848360400151613c9c90919063ffffffff16565b9050803410151515612d5e576040517f08c379a00000000000000000000000000000000000000000000000000000000081526004018080602001828103825260338152602001806140ec6033913960400191505060405180910390fd5b83826060015110151515612dda576040517f08c379a000000000000000000000000000000000000000000000000000000000815260040180806020018281038252601b8152602001807f4974656d207175616e74697479206973206e6f7420656e6f756768000000000081525060200191505060405180910390fd5b80341115612e2c573373ffffffffffffffffffffffffffffffffffffffff166108fc8234039081150290604051600060405180830381858888f19350505050158015612e2a573d6000803e3d6000fd5b505b8382606001818151039150818152505080600a6000888152602001908152602001600020600301600082825401925050819055507fe4f85790bdbeca4aead06b7b55450d99ad2693940f65f816d24044a72db6b6bb86868660405180848152602001838152602001828152602001935050505060405180910390a16001925050509392505050565b6000813373ffffffffffffffffffffffffffffffffffffffff16600a600083815260200190815260200160002060020160009054906101000a900473ffffffffffffffffffffffffffffffffffffffff1673ffffffffffffffffffffffffffffffffffffffff16141515612f90576040517f08c379a00000000000000000000000000000000000000000000000000000000081526004018080602001828103825260168152602001807f53656e646572206e6f7420617574686f72697a65642e0000000000000000000081525060200191505060405180910390fd5b6000600b600085815260200190815260200160002080549050905060008090505b818110156130b15784600b600087815260200190815260200160002082815481101515612fda57fe5b906000526020600020015414156130a457600b60008681526020019081526020016000206001830381548110151561300e57fe5b9060005260206000200154600b60008781526020019081526020016000208281548110151561303957fe5b9060005260206000200181905550600b60008681526020019081526020016000206001830381548110151561306a57fe5b9060005260206000200160009055600b600086815260200190815260200160002080548091906001900361309e919061400b565b506130b1565b8080600101915050612fb1565b50600c600086815260200190815260200160002060008082016000905560018201600090556002820160009055600382016000905550507f4d14690cbd42eab82cd15ad666b9b98197ade97acdd17512bdec0497b591de48856040518082815260200191505060405180910390a1849250505092915050565b6000823373ffffffffffffffffffffffffffffffffffffffff16600a600083815260200190815260200160002060020160009054906101000a900473ffffffffffffffffffffffffffffffffffffffff1673ffffffffffffffffffffffffffffffffffffffff16141515613206576040517f08c379a00000000000000000000000000000000000000000000000000000000081526004018080602001828103825260168152602001807f53656e646572206e6f7420617574686f72697a65642e0000000000000000000081525060200191505060405180910390fd5b6000600c600087815260200190815260200160002060030154905083600c6000888152602001908152602001600020600301819055507f73b275e7ead5ed73869fb9794c1cb9cf330f3f1461360e2c79798d00d946f4b986858360405180848152602001838152602001828152602001935050505060405180910390a185925050509392505050565b613298336119c4565b15156132a357600080fd5b6132ac81613cda565b50565b6132b8336119c4565b15156132c357600080fd5b600160149054906101000a900460ff161515156132df57600080fd5b60018060146101000a81548160ff0219169083151502179055507f62e78cea01bee320cd4e420270b5ea74000d11b0c9f74754ebdbfc544b05a25833604051808273ffffffffffffffffffffffffffffffffffffffff1673ffffffffffffffffffffffffffffffffffffffff16815260200191505060405180910390a1565b6000600160009054906101000a900473ffffffffffffffffffffffffffffffffffffffff16905090565b6000600160009054906101000a900473ffffffffffffffffffffffffffffffffffffffff1673ffffffffffffffffffffffffffffffffffffffff163373ffffffffffffffffffffffffffffffffffffffff1614905090565b60606000600580549050905060608160405190808252806020026020018201604052801561341d5781602001602082028038833980820191505090505b50905060008090505b828110156134bf5760058181548110151561343d57fe5b9060005260206000200160009054906101000a900473ffffffffffffffffffffffffffffffffffffffff16828281518110151561347657fe5b9060200190602002019073ffffffffffffffffffffffffffffffffffffffff16908173ffffffffffffffffffffffffffffffffffffffff16815250508080600101915050613426565b50809250505090565b600a6020528060005260406000206000915090508060000154908060010154908060020160009054906101000a900473ffffffffffffffffffffffffffffffffffffffff16908060030154905084565b60076020528060005260406000206000915054906101000a900460ff1681565b613540613388565b151561354b57600080fd5b80600260006101000a81548173ffffffffffffffffffffffffffffffffffffffff021916908373ffffffffffffffffffffffffffffffffffffffff1602179055507ffc80377ca9c49cc11ae6982f390a42db976d5530af7c43889264b13fbbd7c57e81604051808273ffffffffffffffffffffffffffffffffffffffff1673ffffffffffffffffffffffffffffffffffffffff16815260200191505060405180910390a150565b600060011515600660003373ffffffffffffffffffffffffffffffffffffffff1673ffffffffffffffffffffffffffffffffffffffff16815260200190815260200160002060009054906101000a900460ff1615151415156136bc576040517f08c379a00000000000000000000000000000000000000000000000000000000081526004018080602001828103825260168152602001807f53656e646572206e6f7420617574686f72697a65642e0000000000000000000081525060200191505060405180910390fd5b6001600760008473ffffffffffffffffffffffffffffffffffffffff1673ffffffffffffffffffffffffffffffffffffffff16815260200190815260200160002060006101000a81548160ff02191690831515021790555060058290806001815401808255809150509060018203906000526020600020016000909192909190916101000a81548173ffffffffffffffffffffffffffffffffffffffff021916908373ffffffffffffffffffffffffffffffffffffffff160217905550507fe095b54135d91dfdb849d8f2a1232ed69da67f78cfd33a34a834084d8d037e9a82604051808273ffffffffffffffffffffffffffffffffffffffff1673ffffffffffffffffffffffffffffffffffffffff16815260200191505060405180910390a160019050919050565b600260009054906101000a900473ffffffffffffffffffffffffffffffffffffffff1673ffffffffffffffffffffffffffffffffffffffff163373ffffffffffffffffffffffffffffffffffffffff1614151561388e576040517f08c379a00000000000000000000000000000000000000000000000000000000081526004018080602001828103825260258152602001806140c76025913960400191505060405180910390fd5b80600360006101000a81548173ffffffffffffffffffffffffffffffffffffffff021916908373ffffffffffffffffffffffffffffffffffffffff16021790555050565b60066020528060005260406000206000915054906101000a900460ff1681565b6138fa613388565b151561390557600080fd5b3373ffffffffffffffffffffffffffffffffffffffff16ff5b60048181548110151561392d57fe5b906000526020600020016000915054906101000a900473ffffffffffffffffffffffffffffffffffffffff1681565b60608060606000600960008673ffffffffffffffffffffffffffffffffffffffff1673ffffffffffffffffffffffffffffffffffffffff1681526020019081526020016000208054905090506060816040519080825280602002602001820160405280156139d95781602001602082028038833980820191505090505b509050606082604051908082528060200260200182016040528015613a0d5781602001602082028038833980820191505090505b509050606083604051908082528060200260200182016040528015613a415781602001602082028038833980820191505090505b50905060008090505b84811015613b54576000600960008b73ffffffffffffffffffffffffffffffffffffffff1673ffffffffffffffffffffffffffffffffffffffff16815260200190815260200160002082815481101515613aa057fe5b90600052602060002001549050600a6000828152602001908152602001600020600001548583815181101515613ad257fe5b9060200190602002018181525050600a6000828152602001908152602001600020600101548483815181101515613b0557fe5b9060200190602002018181525050600a6000828152602001908152602001600020600301548383815181101515613b3857fe5b9060200190602002018181525050508080600101915050613a4a565b50828282965096509650505050509193909250565b600260009054906101000a900473ffffffffffffffffffffffffffffffffffffffff1681565b613b97613388565b1515613ba257600080fd5b613bab81613d34565b50565b60008073ffffffffffffffffffffffffffffffffffffffff168273ffffffffffffffffffffffffffffffffffffffff1614151515613beb57600080fd5b8260000160008373ffffffffffffffffffffffffffffffffffffffff1673ffffffffffffffffffffffffffffffffffffffff16815260200190815260200160002060009054906101000a900460ff16905092915050565b613c56816000613e3090919063ffffffff16565b8073ffffffffffffffffffffffffffffffffffffffff167fcd265ebaf09df2871cc7bd4133404a235ba12eff2041bb89d9c714a2621c7c7e60405160405180910390a250565b600080831415613caf5760009050613cd4565b60008284029050828482811515613cc257fe5b04141515613ccf57600080fd5b809150505b92915050565b613cee816000613edf90919063ffffffff16565b8073ffffffffffffffffffffffffffffffffffffffff167f6719d08c1888103bea251a4ed56406bd0c3e69723c8a1686e017e7bbe159b6f860405160405180910390a250565b600073ffffffffffffffffffffffffffffffffffffffff168173ffffffffffffffffffffffffffffffffffffffff1614151515613d7057600080fd5b8073ffffffffffffffffffffffffffffffffffffffff16600160009054906101000a900473ffffffffffffffffffffffffffffffffffffffff1673ffffffffffffffffffffffffffffffffffffffff167f8be0079c531659141344cd1fd0a4f28419497f9722a3daafe3b4186f6b6457e060405160405180910390a380600160006101000a81548173ffffffffffffffffffffffffffffffffffffffff021916908373ffffffffffffffffffffffffffffffffffffffff16021790555050565b600073ffffffffffffffffffffffffffffffffffffffff168173ffffffffffffffffffffffffffffffffffffffff1614151515613e6c57600080fd5b613e768282613bae565b1515613e8157600080fd5b60008260000160008373ffffffffffffffffffffffffffffffffffffffff1673ffffffffffffffffffffffffffffffffffffffff16815260200190815260200160002060006101000a81548160ff0219169083151502179055505050565b600073ffffffffffffffffffffffffffffffffffffffff168173ffffffffffffffffffffffffffffffffffffffff1614151515613f1b57600080fd5b613f258282613bae565b151515613f3157600080fd5b60018260000160008373ffffffffffffffffffffffffffffffffffffffff1673ffffffffffffffffffffffffffffffffffffffff16815260200190815260200160002060006101000a81548160ff0219169083151502179055505050565b608060405190810160405280600080191681526020016000801916815260200160008152602001600081525090565b815481835581811115613fe557818360005260206000209182019101613fe4919061407c565b5b505050565b508054600082559060005260206000209081019061400891906140a1565b50565b8154818355818111156140325781836000526020600020918201910161403191906140a1565b5b505050565b6080604051908101604052806000801916815260200160008019168152602001600073ffffffffffffffffffffffffffffffffffffffff168152602001600081525090565b61409e91905b8082111561409a576000816000905550600101614082565b5090565b90565b6140c391905b808211156140bf5760008160009055506001016140a7565b5090565b9056fe4f6e6c79207468652070726f78792063616e2063616c6c20746869732066756e6374696f6e6d73672e76616c7565206d7573742062652067726561746572206f7220657175616c207468616e20746f74616c207072696365a165627a7a72305820c7bb8054c74a9b61b75b70f03bd8c711cf230a19e242f5dd09150a6c1a20f2e60029",
  "source": "pragma solidity ^0.5.0;\n\nimport \"openzeppelin-solidity/contracts/ownership/Ownable.sol\";\nimport \"openzeppelin-solidity/contracts/lifecycle/Pausable.sol\";\nimport \"openzeppelin-solidity/contracts/math/SafeMath.sol\";\nimport \"./Mortal.sol\";\nimport \"./Proxyable.sol\";\n\ncontract MarketPlace is Ownable, Pausable, Mortal, Proxyable {\n\n    using SafeMath for uint256;\n\n    address[] public administrators;\n    address[] public storeOwners;\n    mapping (address => bool) public administratorsByAddress;\n    mapping (address => bool) public storeOwnersByAddress;\n\n    bytes32[] private storefronts;\n    mapping (address => bytes32[]) public storefrontsByOwner;\n    mapping (bytes32 => Storefront) public storefrontsById;\n    mapping(bytes32 => bytes32[]) private inventoryByStorefrontId;\n    mapping(bytes32 => Item) private itemsById;\n\n    struct Storefront {\n        bytes32 id;\n        bytes32 name;\n        address owner;\n        uint balance;\n    }\n\n    struct Item {\n        bytes32 id;\n        bytes32 name;\n        uint price;\n        uint quantity;\n    }\n\n    event AdminAdded(address admin);\n    event AdminRemoved(address admin);\n    event StoreOwnerAdded(address storeOwner);\n    event StoreOwnerRemoved(address storeOwner);\n    event StoreCreated(bytes32 id, bytes32 name, address owner);\n    event StoreRemoved(bytes32 id);\n    event BalanceWithdrawn(bytes32 id, uint balance);\n    event ItemAdded(bytes32 id, bytes32 name, uint price, uint qty);\n    event ItemRemoved(bytes32 id);\n    event ItemPriceUpdated(bytes32 id, uint newPrice, uint oldPrice);\n    event ItemQuantityUpdated(bytes32 id, uint newQty, uint oldQty);\n    event ItemSold(bytes32 storeId, bytes32 itemId, uint qty);\n\n    modifier onlyAdmin() {require(administratorsByAddress[msg.sender] == true, \"Sender not authorized.\"); _;}\n    modifier onlyStoreOwner() {require(storeOwnersByAddress[msg.sender] == true, \"Sender not authorized.\"); _;}\n    modifier onlyStorefrontOwner(bytes32 id) {require(storefrontsById[id].owner == msg.sender, \"Sender not authorized.\"); _;}\n\n    constructor(address payable _proxy)\n    Proxyable(_proxy)\n    public {\n        administratorsByAddress[msg.sender] = true;\n        administrators.push(msg.sender);\n    }\n\n    function addAdmin(address addr)\n    public\n    onlyAdmin()\n    returns(bool) {\n        administratorsByAddress[addr] = true;\n        administrators.push(addr);\n        emit AdminAdded(addr);\n        return true;\n    }\n\n    function removeAdmin(address addr)\n    public\n    onlyAdmin()\n    returns(bool) {\n        administratorsByAddress[addr] = false;\n        uint adminCount = administrators.length;\n        for(uint i = 0; i < adminCount; i++) {\n            if (administrators[i] == addr) {\n                administrators[i] = administrators[adminCount-1];\n                delete administrators[adminCount-1];\n                administrators.length --;\n                break;\n            }\n        }\n        emit AdminRemoved(addr);\n        return true;\n    }\n\n    function getAdministrators()\n    public\n    view\n    returns(address[] memory) {\n        uint adminCount = administrators.length;\n        address[] memory admins = new address[](adminCount);\n        for (uint i = 0; i < adminCount; i++) {\n            admins[i] = administrators[i];\n        }\n        return admins;\n    }\n\n    function addStoreOwner(address addr)\n    public\n    onlyAdmin()\n    returns(bool) {\n        storeOwnersByAddress[addr] = true;\n        storeOwners.push(addr);\n        emit StoreOwnerAdded(addr);\n        return true;\n    }\n\n    function removeStoreOwner(address addr)\n    public\n    onlyAdmin()\n    returns(bool) {\n        storeOwnersByAddress[addr] = false;\n        uint ownerCount = storeOwners.length;\n        for(uint i = 0; i < ownerCount; i++) {\n            if (storeOwners[i] == addr) {\n                storeOwners[i] = storeOwners[ownerCount-1];\n                delete storeOwners[ownerCount-1];\n                storeOwners.length --;\n                break;\n            }\n        }\n        emit StoreOwnerRemoved(addr);\n        return true;\n    }\n\n    function getStoreOwners()\n    public\n    view\n    returns(address[] memory) {\n        uint storeOwnerCount = storeOwners.length;\n        address[] memory owners = new address[](storeOwnerCount);\n        for (uint i = 0; i < storeOwnerCount; i++) {\n            owners[i] = storeOwners[i];\n        }\n        return owners;\n    }\n\n    function createStore(bytes32 name)\n    public\n    onlyStoreOwner()\n    returns(bytes32) {\n        bytes32 id = keccak256(abi.encodePacked(msg.sender, name, now));\n        Storefront memory s = Storefront(id, name, msg.sender, 0);\n        storefronts.push(id);\n        storefrontsByOwner[msg.sender].push(id);\n        storefrontsById[id] = s;\n        emit StoreCreated(id, name, msg.sender);\n        return id;\n    }\n\n    function removeStore(bytes32 storeId)\n    public\n    onlyStorefrontOwner(storeId)\n    returns(bytes32) {\n\n        // Delete all the items from the store inventory\n        for (uint i = 0; i < inventoryByStorefrontId[storeId].length; i++) {\n            bytes32 itemId = inventoryByStorefrontId[storeId][i];\n            delete itemsById[itemId];\n        }\n\n        // Delete the store inventory\n        delete inventoryByStorefrontId[storeId];\n\n        // Remove from storefrontsByOwner mapping\n        uint storefrontCount = storefrontsByOwner[msg.sender].length;\n        for(uint i = 0; i < storefrontCount; i++) {\n            if (storefrontsByOwner[msg.sender][i] == storeId) {\n                storefrontsByOwner[msg.sender][i] = storefrontsByOwner[msg.sender][storefrontCount-1];\n                delete storefrontsByOwner[msg.sender][storefrontCount-1];\n                storefrontsByOwner[msg.sender].length --;\n                break;\n            }\n        }\n\n        // Remove from storefronts array\n        storefrontCount = storefronts.length;\n        for(uint i = 0; i < storefrontCount; i++) {\n            if (storefronts[i] == storeId) {\n                delete storefronts[i];\n                break;\n            }\n        }\n\n        // Withdraw Balance\n        uint storefrontBalance = storefrontsById[storeId].balance;\n        if (storefrontBalance > 0) {\n            msg.sender.transfer(storefrontBalance);\n            storefrontsById[storeId].balance = 0;\n            emit BalanceWithdrawn(storeId, storefrontBalance);\n        }\n\n        // Remove from storefrontsById\n        delete storefrontsById[storeId];\n        emit StoreRemoved(storeId);\n        return storeId;\n    }\n\n    function getOwnerStorefronts(address owner)\n    public\n    view\n    returns(bytes32[] memory, bytes32[] memory, uint[] memory) {\n        uint storeCount = storefrontsByOwner[owner].length;\n        bytes32[] memory ids = new bytes32[](storeCount);\n        bytes32[] memory names = new bytes32[](storeCount);\n        uint[] memory balances = new uint[](storeCount);\n        for(uint i = 0; i < storeCount; i++) {\n            bytes32 storeId = storefrontsByOwner[owner][i];\n            ids[i] = storefrontsById[storeId].id;\n            names[i] = storefrontsById[storeId].name;\n            balances[i] = storefrontsById[storeId].balance;\n        }\n        return (ids, names, balances);\n    }\n\n    function addItemToInventory(bytes32 storeId, bytes32 itemName, uint itemPrice, uint itemQuantity)\n    public\n    onlyStorefrontOwner(storeId)\n    returns(bytes32) {\n        bytes32 itemId = keccak256(abi.encodePacked(msg.sender, itemName, now));\n        Item memory i = Item(itemId, itemName, itemPrice, itemQuantity);\n        itemsById[itemId] = i;\n        inventoryByStorefrontId[storeId].push(itemId);\n        emit ItemAdded(itemId, itemName, itemPrice, itemQuantity);\n        return itemId;\n    }\n\n    function removeItemFromInventory(bytes32 itemId, bytes32 storeId)\n    public\n    onlyStorefrontOwner(storeId)\n    returns(bytes32) {\n        // Remove the item from inventory mapping\n        uint itemCount = inventoryByStorefrontId[storeId].length;\n        for(uint i = 0; i < itemCount; i++) {\n            if (inventoryByStorefrontId[storeId][i] == storeId) {\n                inventoryByStorefrontId[storeId][i] = inventoryByStorefrontId[storeId][itemCount-1];\n                delete inventoryByStorefrontId[storeId][itemCount-1];\n                inventoryByStorefrontId[storeId].length --;\n                break;\n            }\n        }\n        //Remove item from items mapping\n        delete itemsById[itemId];\n        emit ItemRemoved(itemId);\n        return itemId;\n    }\n\n    function updateItemPrice(bytes32 itemId, bytes32 storeId, uint newPrice)\n    public\n    onlyStorefrontOwner(storeId)\n    returns(bytes32) {\n        uint oldPrice = itemsById[itemId].price;\n        itemsById[itemId].price = newPrice;\n        emit ItemPriceUpdated(itemId, newPrice, oldPrice);\n        return itemId;\n    }\n\n    function updateItemQuantity(bytes32 itemId, bytes32 storeId, uint newQty)\n    public\n    onlyStorefrontOwner(storeId)\n    returns(bytes32) {\n        uint oldQty = itemsById[itemId].quantity;\n        itemsById[itemId].quantity = newQty;\n        emit ItemQuantityUpdated(itemId, newQty, oldQty);\n        return itemId;\n    }\n\n    function widthdrawStorefrontBalance(bytes32 storeId)\n    public\n    onlyStorefrontOwner(storeId)\n    returns(bool) {\n        uint storefrontBalance = storefrontsById[storeId].balance;\n        if (storefrontBalance > 0) {\n            msg.sender.transfer(storefrontBalance);\n            storefrontsById[storeId].balance = 0;\n            emit BalanceWithdrawn(storeId, storefrontBalance);\n        }\n    }\n\n    function getStorefrontCountByOwner(address owner)\n\tpublic\n\tview\n    returns (uint) {\n        return storefrontsByOwner[owner].length;\n    }\n\n    function getStorefrontInventory(bytes32 _storeId)\n    public\n    view\n    returns(bytes32[] memory, bytes32[] memory, uint[] memory, uint[] memory)\n    {\n        bytes32[] memory inventory = inventoryByStorefrontId[_storeId];\n        uint inventorySize = inventory.length;\n        bytes32[] memory itemIds = new bytes32[](inventorySize);\n        bytes32[] memory itemNames = new bytes32[](inventorySize);\n        uint[] memory itemQuantities = new uint[](inventorySize);\n        uint[] memory itemPrices = new uint[](inventorySize);\n        for(uint i = 0; i < inventorySize; i++) {\n            itemIds[i] = itemsById[inventory[i]].id;\n            itemNames[i] = itemsById[inventory[i]].name;\n            itemQuantities[i] = itemsById[inventory[i]].quantity;\n            itemPrices[i] = itemsById[inventory[i]].price;\n        }\n        return (itemIds, itemNames, itemQuantities, itemPrices);\n    }\n\n    function purchaseItem(bytes32 storeId, bytes32 itemId, uint quantity)\n    public\n    payable\n    returns(bool) {\n        Item memory item = itemsById[itemId];\n        uint totalPrice = item.price.mul(quantity);\n        require(msg.value >= totalPrice, \"msg.value must be greater or equal than total price\");\n        require(item.quantity >= quantity, \"Item quantity is not enough\");\n\n        if (msg.value > totalPrice) {\n            msg.sender.transfer(msg.value - totalPrice);\n        }\n\n        item.quantity -= quantity;\n        storefrontsById[storeId].balance += totalPrice;\n        emit ItemSold(storeId, itemId, quantity);\n        return true;\n    }\n\n\n}\n",
  "sourcePath": "/Users/clementbalestrat/Workspace/final-project-clementbalestrat/contracts/MarketPlace.sol",
  "compiler": {
    "name": "solc",
    "version": "0.5.3+commit.10d17f24.Emscripten.clang"
  },
  "schemaVersion": "3.0.1",
  "updatedAt": "2019-01-26T08:24:20.371Z",
  "devdoc": {
    "methods": {
      "isOwner()": {
        "return": "true if `msg.sender` is the owner of the contract."
      },
      "owner()": {
        "return": "the address of the owner."
      },
      "pause()": {
        "details": "called by the owner to pause, triggers stopped state"
      },
      "paused()": {
        "return": "true if the contract is paused, false otherwise."
      },
      "renounceOwnership()": {
        "details": "Allows the current owner to relinquish control of the contract."
      },
      "transferOwnership(address)": {
        "details": "Allows the current owner to transfer control of the contract to a newOwner.",
        "params": {
          "newOwner": "The address to transfer ownership to."
        }
      },
      "unpause()": {
        "details": "called by the owner to unpause, returns to normal state"
      }
    }
  },
  "userdoc": {
    "methods": {
      "finish()": {
        "notice": "Kill the contract"
      },
      "renounceOwnership()": {
        "notice": "Renouncing to ownership will leave the contract without an owner. It will not be possible to call the functions with the `onlyOwner` modifier anymore."
      }
    }
  }
}