{
  "contractName": "MarketPlace",
  "abi": [
    {
      "constant": true,
      "inputs": [
        {
          "name": "",
          "type": "bytes32"
        },
        {
          "name": "",
          "type": "uint256"
        }
      ],
      "name": "inventoryByStorefrontId",
      "outputs": [
        {
          "name": "",
          "type": "bytes32"
        }
      ],
      "payable": false,
      "stateMutability": "view",
      "type": "function"
    },
    {
      "constant": false,
      "inputs": [],
      "name": "unpause",
      "outputs": [],
      "payable": false,
      "stateMutability": "nonpayable",
      "type": "function"
    },
    {
      "constant": false,
      "inputs": [],
      "name": "kill",
      "outputs": [],
      "payable": false,
      "stateMutability": "nonpayable",
      "type": "function"
    },
    {
      "constant": true,
      "inputs": [
        {
          "name": "",
          "type": "uint256"
        }
      ],
      "name": "storeOwners",
      "outputs": [
        {
          "name": "",
          "type": "address"
        }
      ],
      "payable": false,
      "stateMutability": "view",
      "type": "function"
    },
    {
      "constant": true,
      "inputs": [
        {
          "name": "account",
          "type": "address"
        }
      ],
      "name": "isPauser",
      "outputs": [
        {
          "name": "",
          "type": "bool"
        }
      ],
      "payable": false,
      "stateMutability": "view",
      "type": "function"
    },
    {
      "constant": true,
      "inputs": [
        {
          "name": "",
          "type": "address"
        },
        {
          "name": "",
          "type": "uint256"
        }
      ],
      "name": "storefrontsByOwner",
      "outputs": [
        {
          "name": "",
          "type": "bytes32"
        }
      ],
      "payable": false,
      "stateMutability": "view",
      "type": "function"
    },
    {
      "constant": true,
      "inputs": [],
      "name": "paused",
      "outputs": [
        {
          "name": "",
          "type": "bool"
        }
      ],
      "payable": false,
      "stateMutability": "view",
      "type": "function"
    },
    {
      "constant": true,
      "inputs": [
        {
          "name": "",
          "type": "uint256"
        }
      ],
      "name": "storefronts",
      "outputs": [
        {
          "name": "",
          "type": "bytes32"
        }
      ],
      "payable": false,
      "stateMutability": "view",
      "type": "function"
    },
    {
      "constant": false,
      "inputs": [],
      "name": "renouncePauser",
      "outputs": [],
      "payable": false,
      "stateMutability": "nonpayable",
      "type": "function"
    },
    {
      "constant": false,
      "inputs": [],
      "name": "renounceOwnership",
      "outputs": [],
      "payable": false,
      "stateMutability": "nonpayable",
      "type": "function"
    },
    {
      "constant": false,
      "inputs": [
        {
          "name": "account",
          "type": "address"
        }
      ],
      "name": "addPauser",
      "outputs": [],
      "payable": false,
      "stateMutability": "nonpayable",
      "type": "function"
    },
    {
      "constant": false,
      "inputs": [],
      "name": "pause",
      "outputs": [],
      "payable": false,
      "stateMutability": "nonpayable",
      "type": "function"
    },
    {
      "constant": true,
      "inputs": [],
      "name": "owner",
      "outputs": [
        {
          "name": "",
          "type": "address"
        }
      ],
      "payable": false,
      "stateMutability": "view",
      "type": "function"
    },
    {
      "constant": true,
      "inputs": [],
      "name": "isOwner",
      "outputs": [
        {
          "name": "",
          "type": "bool"
        }
      ],
      "payable": false,
      "stateMutability": "view",
      "type": "function"
    },
    {
      "constant": true,
      "inputs": [
        {
          "name": "",
          "type": "bytes32"
        }
      ],
      "name": "storefrontsById",
      "outputs": [
        {
          "name": "id",
          "type": "bytes32"
        },
        {
          "name": "name",
          "type": "bytes32"
        },
        {
          "name": "owner",
          "type": "address"
        },
        {
          "name": "balance",
          "type": "uint256"
        }
      ],
      "payable": false,
      "stateMutability": "view",
      "type": "function"
    },
    {
      "constant": true,
      "inputs": [
        {
          "name": "",
          "type": "address"
        }
      ],
      "name": "storeOwnersByAddress",
      "outputs": [
        {
          "name": "",
          "type": "bool"
        }
      ],
      "payable": false,
      "stateMutability": "view",
      "type": "function"
    },
    {
      "constant": true,
      "inputs": [
        {
          "name": "",
          "type": "address"
        }
      ],
      "name": "administratorsByAddress",
      "outputs": [
        {
          "name": "",
          "type": "bool"
        }
      ],
      "payable": false,
      "stateMutability": "view",
      "type": "function"
    },
    {
      "constant": true,
      "inputs": [
        {
          "name": "",
          "type": "uint256"
        }
      ],
      "name": "administrators",
      "outputs": [
        {
          "name": "",
          "type": "address"
        }
      ],
      "payable": false,
      "stateMutability": "view",
      "type": "function"
    },
    {
      "constant": false,
      "inputs": [
        {
          "name": "newOwner",
          "type": "address"
        }
      ],
      "name": "transferOwnership",
      "outputs": [],
      "payable": false,
      "stateMutability": "nonpayable",
      "type": "function"
    },
    {
      "inputs": [],
      "payable": false,
      "stateMutability": "nonpayable",
      "type": "constructor"
    },
    {
      "anonymous": false,
      "inputs": [
        {
          "indexed": false,
          "name": "admin",
          "type": "address"
        }
      ],
      "name": "AdminAdded",
      "type": "event"
    },
    {
      "anonymous": false,
      "inputs": [
        {
          "indexed": false,
          "name": "admin",
          "type": "address"
        }
      ],
      "name": "AdminRemoved",
      "type": "event"
    },
    {
      "anonymous": false,
      "inputs": [
        {
          "indexed": false,
          "name": "storeOwner",
          "type": "address"
        }
      ],
      "name": "StoreOwnerAdded",
      "type": "event"
    },
    {
      "anonymous": false,
      "inputs": [
        {
          "indexed": false,
          "name": "storeOwner",
          "type": "address"
        }
      ],
      "name": "StoreOwnerRemoved",
      "type": "event"
    },
    {
      "anonymous": false,
      "inputs": [
        {
          "indexed": false,
          "name": "id",
          "type": "bytes32"
        },
        {
          "indexed": false,
          "name": "name",
          "type": "bytes32"
        },
        {
          "indexed": false,
          "name": "storeOwner",
          "type": "address"
        }
      ],
      "name": "StoreCreated",
      "type": "event"
    },
    {
      "anonymous": false,
      "inputs": [
        {
          "indexed": false,
          "name": "id",
          "type": "bytes32"
        }
      ],
      "name": "StoreRemoved",
      "type": "event"
    },
    {
      "anonymous": false,
      "inputs": [
        {
          "indexed": false,
          "name": "id",
          "type": "bytes32"
        },
        {
          "indexed": false,
          "name": "balance",
          "type": "uint256"
        }
      ],
      "name": "BalanceWithdrawn",
      "type": "event"
    },
    {
      "anonymous": false,
      "inputs": [
        {
          "indexed": false,
          "name": "id",
          "type": "bytes32"
        },
        {
          "indexed": false,
          "name": "name",
          "type": "bytes32"
        },
        {
          "indexed": false,
          "name": "price",
          "type": "uint256"
        },
        {
          "indexed": false,
          "name": "quantity",
          "type": "uint256"
        }
      ],
      "name": "ItemAdded",
      "type": "event"
    },
    {
      "anonymous": false,
      "inputs": [
        {
          "indexed": false,
          "name": "id",
          "type": "bytes32"
        }
      ],
      "name": "ItemRemoved",
      "type": "event"
    },
    {
      "anonymous": false,
      "inputs": [
        {
          "indexed": false,
          "name": "id",
          "type": "bytes32"
        },
        {
          "indexed": false,
          "name": "newPrice",
          "type": "uint256"
        },
        {
          "indexed": false,
          "name": "oldPrice",
          "type": "uint256"
        }
      ],
      "name": "ItemPriceUpdated",
      "type": "event"
    },
    {
      "anonymous": false,
      "inputs": [
        {
          "indexed": false,
          "name": "id",
          "type": "bytes32"
        },
        {
          "indexed": false,
          "name": "newQuantity",
          "type": "uint256"
        },
        {
          "indexed": false,
          "name": "oldQuantity",
          "type": "uint256"
        }
      ],
      "name": "ItemQuantityUpdated",
      "type": "event"
    },
    {
      "anonymous": false,
      "inputs": [
        {
          "indexed": false,
          "name": "storeId",
          "type": "bytes32"
        },
        {
          "indexed": false,
          "name": "itemId",
          "type": "bytes32"
        },
        {
          "indexed": false,
          "name": "quantity",
          "type": "uint256"
        }
      ],
      "name": "ItemSold",
      "type": "event"
    },
    {
      "anonymous": false,
      "inputs": [
        {
          "indexed": false,
          "name": "beneficiary",
          "type": "address"
        }
      ],
      "name": "SelfDestructed",
      "type": "event"
    },
    {
      "anonymous": false,
      "inputs": [
        {
          "indexed": false,
          "name": "account",
          "type": "address"
        }
      ],
      "name": "Paused",
      "type": "event"
    },
    {
      "anonymous": false,
      "inputs": [
        {
          "indexed": false,
          "name": "account",
          "type": "address"
        }
      ],
      "name": "Unpaused",
      "type": "event"
    },
    {
      "anonymous": false,
      "inputs": [
        {
          "indexed": true,
          "name": "previousOwner",
          "type": "address"
        },
        {
          "indexed": true,
          "name": "newOwner",
          "type": "address"
        }
      ],
      "name": "OwnershipTransferred",
      "type": "event"
    },
    {
      "anonymous": false,
      "inputs": [
        {
          "indexed": true,
          "name": "account",
          "type": "address"
        }
      ],
      "name": "PauserAdded",
      "type": "event"
    },
    {
      "anonymous": false,
      "inputs": [
        {
          "indexed": true,
          "name": "account",
          "type": "address"
        }
      ],
      "name": "PauserRemoved",
      "type": "event"
    },
    {
      "constant": false,
      "inputs": [
        {
          "name": "_addr",
          "type": "address"
        }
      ],
      "name": "addAdmin",
      "outputs": [
        {
          "name": "",
          "type": "bool"
        }
      ],
      "payable": false,
      "stateMutability": "nonpayable",
      "type": "function"
    },
    {
      "constant": false,
      "inputs": [
        {
          "name": "_addr",
          "type": "address"
        }
      ],
      "name": "removeAdmin",
      "outputs": [
        {
          "name": "",
          "type": "bool"
        }
      ],
      "payable": false,
      "stateMutability": "nonpayable",
      "type": "function"
    },
    {
      "constant": true,
      "inputs": [],
      "name": "getAdministrators",
      "outputs": [
        {
          "name": "",
          "type": "address[]"
        }
      ],
      "payable": false,
      "stateMutability": "view",
      "type": "function"
    },
    {
      "constant": false,
      "inputs": [
        {
          "name": "_addr",
          "type": "address"
        }
      ],
      "name": "addStoreOwner",
      "outputs": [
        {
          "name": "",
          "type": "bool"
        }
      ],
      "payable": false,
      "stateMutability": "nonpayable",
      "type": "function"
    },
    {
      "constant": false,
      "inputs": [
        {
          "name": "_addr",
          "type": "address"
        }
      ],
      "name": "removeStoreOwner",
      "outputs": [
        {
          "name": "",
          "type": "bool"
        }
      ],
      "payable": false,
      "stateMutability": "nonpayable",
      "type": "function"
    },
    {
      "constant": true,
      "inputs": [],
      "name": "getStoreOwners",
      "outputs": [
        {
          "name": "",
          "type": "address[]"
        }
      ],
      "payable": false,
      "stateMutability": "view",
      "type": "function"
    },
    {
      "constant": false,
      "inputs": [
        {
          "name": "_name",
          "type": "bytes32"
        }
      ],
      "name": "createStore",
      "outputs": [
        {
          "name": "",
          "type": "bytes32"
        }
      ],
      "payable": false,
      "stateMutability": "nonpayable",
      "type": "function"
    },
    {
      "constant": false,
      "inputs": [
        {
          "name": "_storeId",
          "type": "bytes32"
        }
      ],
      "name": "removeStore",
      "outputs": [
        {
          "name": "",
          "type": "bytes32"
        }
      ],
      "payable": false,
      "stateMutability": "nonpayable",
      "type": "function"
    },
    {
      "constant": true,
      "inputs": [
        {
          "name": "_storefrontOwner",
          "type": "address"
        }
      ],
      "name": "getOwnerStorefronts",
      "outputs": [
        {
          "name": "",
          "type": "bytes32[]"
        },
        {
          "name": "",
          "type": "bytes32[]"
        },
        {
          "name": "",
          "type": "uint256[]"
        }
      ],
      "payable": false,
      "stateMutability": "view",
      "type": "function"
    },
    {
      "constant": false,
      "inputs": [
        {
          "name": "_storeId",
          "type": "bytes32"
        }
      ],
      "name": "widthdrawStorefrontBalance",
      "outputs": [
        {
          "name": "",
          "type": "bool"
        }
      ],
      "payable": false,
      "stateMutability": "nonpayable",
      "type": "function"
    },
    {
      "constant": true,
      "inputs": [],
      "name": "getStorefronts",
      "outputs": [
        {
          "name": "",
          "type": "bytes32[]"
        },
        {
          "name": "",
          "type": "bytes32[]"
        },
        {
          "name": "",
          "type": "address[]"
        }
      ],
      "payable": false,
      "stateMutability": "view",
      "type": "function"
    },
    {
      "constant": false,
      "inputs": [
        {
          "name": "_storeId",
          "type": "bytes32"
        },
        {
          "name": "_itemName",
          "type": "bytes32"
        },
        {
          "name": "_itemPrice",
          "type": "uint256"
        },
        {
          "name": "_itemQuantity",
          "type": "uint256"
        }
      ],
      "name": "addItemToInventory",
      "outputs": [
        {
          "name": "",
          "type": "bytes32"
        }
      ],
      "payable": false,
      "stateMutability": "nonpayable",
      "type": "function"
    },
    {
      "constant": false,
      "inputs": [
        {
          "name": "_itemId",
          "type": "bytes32"
        },
        {
          "name": "_storeId",
          "type": "bytes32"
        }
      ],
      "name": "removeItemFromInventory",
      "outputs": [
        {
          "name": "",
          "type": "bytes32"
        }
      ],
      "payable": false,
      "stateMutability": "nonpayable",
      "type": "function"
    },
    {
      "constant": false,
      "inputs": [
        {
          "name": "_itemId",
          "type": "bytes32"
        },
        {
          "name": "_storeId",
          "type": "bytes32"
        },
        {
          "name": "_newPrice",
          "type": "uint256"
        }
      ],
      "name": "updateItemPrice",
      "outputs": [
        {
          "name": "",
          "type": "bytes32"
        }
      ],
      "payable": false,
      "stateMutability": "nonpayable",
      "type": "function"
    },
    {
      "constant": false,
      "inputs": [
        {
          "name": "_itemId",
          "type": "bytes32"
        },
        {
          "name": "_storeId",
          "type": "bytes32"
        },
        {
          "name": "_newQuantity",
          "type": "uint256"
        }
      ],
      "name": "updateItemQuantity",
      "outputs": [
        {
          "name": "",
          "type": "bytes32"
        }
      ],
      "payable": false,
      "stateMutability": "nonpayable",
      "type": "function"
    },
    {
      "constant": true,
      "inputs": [
        {
          "name": "_storeId",
          "type": "bytes32"
        }
      ],
      "name": "getStorefrontInventory",
      "outputs": [
        {
          "name": "",
          "type": "bytes32[]"
        },
        {
          "name": "",
          "type": "bytes32[]"
        },
        {
          "name": "",
          "type": "uint256[]"
        },
        {
          "name": "",
          "type": "uint256[]"
        }
      ],
      "payable": false,
      "stateMutability": "view",
      "type": "function"
    },
    {
      "constant": false,
      "inputs": [
        {
          "name": "_storeId",
          "type": "bytes32"
        },
        {
          "name": "_itemId",
          "type": "bytes32"
        },
        {
          "name": "_quantity",
          "type": "uint256"
        }
      ],
      "name": "purchaseItem",
      "outputs": [
        {
          "name": "",
          "type": "bool"
        }
      ],
      "payable": true,
      "stateMutability": "payable",
      "type": "function"
    }
  ],
  "bytecode": "0x60806040523480156200001157600080fd5b506200002c33620001c9640100000000026401000000009004565b33600160006101000a81548173ffffffffffffffffffffffffffffffffffffffff021916908373ffffffffffffffffffffffffffffffffffffffff160217905550600160009054906101000a900473ffffffffffffffffffffffffffffffffffffffff1673ffffffffffffffffffffffffffffffffffffffff16600073ffffffffffffffffffffffffffffffffffffffff167f8be0079c531659141344cd1fd0a4f28419497f9722a3daafe3b4186f6b6457e060405160405180910390a36000600160146101000a81548160ff0219169083151502179055506001600360003373ffffffffffffffffffffffffffffffffffffffff1673ffffffffffffffffffffffffffffffffffffffff16815260200190815260200160002060006101000a81548160ff02191690831515021790555060023390806001815401808255809150509060018203906000526020600020016000909192909190916101000a81548173ffffffffffffffffffffffffffffffffffffffff021916908373ffffffffffffffffffffffffffffffffffffffff160217905550506200038b565b620001ed81600062000233640100000000026200422d179091906401000000009004565b8073ffffffffffffffffffffffffffffffffffffffff167f6719d08c1888103bea251a4ed56406bd0c3e69723c8a1686e017e7bbe159b6f860405160405180910390a250565b600073ffffffffffffffffffffffffffffffffffffffff168173ffffffffffffffffffffffffffffffffffffffff16141515156200027057600080fd5b6200028b8282620002f6640100000000026401000000009004565b1515156200029857600080fd5b60018260000160008373ffffffffffffffffffffffffffffffffffffffff1673ffffffffffffffffffffffffffffffffffffffff16815260200190815260200160002060006101000a81548160ff0219169083151502179055505050565b60008073ffffffffffffffffffffffffffffffffffffffff168273ffffffffffffffffffffffffffffffffffffffff16141515156200033457600080fd5b8260000160008373ffffffffffffffffffffffffffffffffffffffff1673ffffffffffffffffffffffffffffffffffffffff16815260200190815260200160002060009054906101000a900460ff16905092915050565b61449e806200039b6000396000f3fe60806040526004361061022c576000357c01000000000000000000000000000000000000000000000000000000009004806370480275116101355780638f32d59b116100bd5780639adeb5f11161008c5780639adeb5f114610dec578063cd99f79514610e55578063d89d151014610ebe578063e7c5d7f914610f39578063f2fde38b1461106f5761022c565b80638f32d59b14610c5857806391f4245a14610c875780639322737f14610cf357806394dc131e14610d835761022c565b80637c3b8430116101045780637c3b843014610add578063800621d014610b3657806382dc1ec414610b995780638456cb5914610bea5780638da5cb5b14610c015761022c565b806370480275146109b4578063715018a614610a1d57806373a05d6a14610a34578063749008fe14610a835761022c565b80634a6273cf116101b85780635c975abb116101875780635c975abb1461086757806360cefa28146108965780636174fdd1146108e55780636c3aedfb1461094e5780636ef8d66d1461099d5761022c565b80634a6273cf146106d65780634b199d4d14610739578063543b36931461078c57806359df58a3146107f85761022c565b80631e3edeaa116101ff5780631e3edeaa146104c85780633f4ba83a146105c457806341c0e1b5146105db57806344d50993146105f257806346fbf68e1461066d5761022c565b8063041393fd14610231578063128189841461039957806313ee1472146104065780631785f53c1461045f575b600080fd5b34801561023d57600080fd5b5061026a6004803603602081101561025457600080fd5b81019080803590602001909291905050506110c0565b6040518080602001806020018060200180602001858103855289818151815260200191508051906020019060200280838360005b838110156102b957808201518184015260208101905061029e565b50505050905001858103845288818151815260200191508051906020019060200280838360005b838110156102fb5780820151818401526020810190506102e0565b50505050905001858103835287818151815260200191508051906020019060200280838360005b8381101561033d578082015181840152602081019050610322565b50505050905001858103825286818151815260200191508051906020019060200280838360005b8381101561037f578082015181840152602081019050610364565b505050509050019850505050505050505060405180910390f35b3480156103a557600080fd5b506103f0600480360360808110156103bc57600080fd5b810190808035906020019092919080359060200190929190803590602001909291908035906020019092919050505061135f565b6040518082815260200191505060405180910390f35b34801561041257600080fd5b506104496004803603604081101561042957600080fd5b8101908080359060200190929190803590602001909291905050506115d2565b6040518082815260200191505060405180910390f35b34801561046b57600080fd5b506104ae6004803603602081101561048257600080fd5b81019080803573ffffffffffffffffffffffffffffffffffffffff169060200190929190505050611602565b604051808215151515815260200191505060405180910390f35b3480156104d457600080fd5b506104dd6119a0565b60405180806020018060200180602001848103845287818151815260200191508051906020019060200280838360005b8381101561052857808201518184015260208101905061050d565b50505050905001848103835286818151815260200191508051906020019060200280838360005b8381101561056a57808201518184015260208101905061054f565b50505050905001848103825285818151815260200191508051906020019060200280838360005b838110156105ac578082015181840152602081019050610591565b50505050905001965050505050505060405180910390f35b3480156105d057600080fd5b506105d9611bab565b005b3480156105e757600080fd5b506105f0611c5a565b005b3480156105fe57600080fd5b5061062b6004803603602081101561061557600080fd5b8101908080359060200190929190505050611ce9565b604051808273ffffffffffffffffffffffffffffffffffffffff1673ffffffffffffffffffffffffffffffffffffffff16815260200191505060405180910390f35b34801561067957600080fd5b506106bc6004803603602081101561069057600080fd5b81019080803573ffffffffffffffffffffffffffffffffffffffff169060200190929190505050611d27565b604051808215151515815260200191505060405180910390f35b3480156106e257600080fd5b50610723600480360360608110156106f957600080fd5b81019080803590602001909291908035906020019092919080359060200190929190505050611d44565b6040518082815260200191505060405180910390f35b34801561074557600080fd5b506107726004803603602081101561075c57600080fd5b8101908080359060200190929190505050611ec5565b604051808215151515815260200191505060405180910390f35b34801561079857600080fd5b506107a161208b565b6040518080602001828103825283818151815260200191508051906020019060200280838360005b838110156107e45780820151818401526020810190506107c9565b505050509050019250505060405180910390f35b34801561080457600080fd5b506108516004803603604081101561081b57600080fd5b81019080803573ffffffffffffffffffffffffffffffffffffffff16906020019092919080359060200190929190505050612173565b6040518082815260200191505060405180910390f35b34801561087357600080fd5b5061087c6121a3565b604051808215151515815260200191505060405180910390f35b3480156108a257600080fd5b506108cf600480360360208110156108b957600080fd5b81019080803590602001909291905050506121ba565b6040518082815260200191505060405180910390f35b3480156108f157600080fd5b506109346004803603602081101561090857600080fd5b81019080803573ffffffffffffffffffffffffffffffffffffffff169060200190929190505050612758565b604051808215151515815260200191505060405180910390f35b34801561095a57600080fd5b506109876004803603602081101561097157600080fd5b8101908080359060200190929190505050612a84565b6040518082815260200191505060405180910390f35b3480156109a957600080fd5b506109b2612aa7565b005b3480156109c057600080fd5b50610a03600480360360208110156109d757600080fd5b81019080803573ffffffffffffffffffffffffffffffffffffffff169060200190929190505050612ab2565b604051808215151515815260200191505060405180910390f35b348015610a2957600080fd5b50610a32612ca6565b005b348015610a4057600080fd5b50610a6d60048036036020811015610a5757600080fd5b8101908080359060200190929190505050612d7a565b6040518082815260200191505060405180910390f35b610ac360048036036060811015610a9957600080fd5b810190808035906020019092919080359060200190929190803590602001909291905050506130a7565b604051808215151515815260200191505060405180910390f35b348015610ae957600080fd5b50610b2060048036036040811015610b0057600080fd5b810190808035906020019092919080359060200190929190505050613334565b6040518082815260200191505060405180910390f35b348015610b4257600080fd5b50610b8360048036036060811015610b5957600080fd5b810190808035906020019092919080359060200190929190803590602001909291905050506135c6565b6040518082815260200191505060405180910390f35b348015610ba557600080fd5b50610be860048036036020811015610bbc57600080fd5b81019080803573ffffffffffffffffffffffffffffffffffffffff169060200190929190505050613747565b005b348015610bf657600080fd5b50610bff613767565b005b348015610c0d57600080fd5b50610c16613816565b604051808273ffffffffffffffffffffffffffffffffffffffff1673ffffffffffffffffffffffffffffffffffffffff16815260200191505060405180910390f35b348015610c6457600080fd5b50610c6d613840565b604051808215151515815260200191505060405180910390f35b348015610c9357600080fd5b50610c9c613898565b6040518080602001828103825283818151815260200191508051906020019060200280838360005b83811015610cdf578082015181840152602081019050610cc4565b505050509050019250505060405180910390f35b348015610cff57600080fd5b50610d2c60048036036020811015610d1657600080fd5b8101908080359060200190929190505050613980565b604051808581526020018481526020018373ffffffffffffffffffffffffffffffffffffffff1673ffffffffffffffffffffffffffffffffffffffff16815260200182815260200194505050505060405180910390f35b348015610d8f57600080fd5b50610dd260048036036020811015610da657600080fd5b81019080803573ffffffffffffffffffffffffffffffffffffffff1690602001909291905050506139d0565b604051808215151515815260200191505060405180910390f35b348015610df857600080fd5b50610e3b60048036036020811015610e0f57600080fd5b81019080803573ffffffffffffffffffffffffffffffffffffffff1690602001909291905050506139f0565b604051808215151515815260200191505060405180910390f35b348015610e6157600080fd5b50610ea460048036036020811015610e7857600080fd5b81019080803573ffffffffffffffffffffffffffffffffffffffff169060200190929190505050613c00565b604051808215151515815260200191505060405180910390f35b348015610eca57600080fd5b50610ef760048036036020811015610ee157600080fd5b8101908080359060200190929190505050613c20565b604051808273ffffffffffffffffffffffffffffffffffffffff1673ffffffffffffffffffffffffffffffffffffffff16815260200191505060405180910390f35b348015610f4557600080fd5b50610f8860048036036020811015610f5c57600080fd5b81019080803573ffffffffffffffffffffffffffffffffffffffff169060200190929190505050613c5e565b60405180806020018060200180602001848103845287818151815260200191508051906020019060200280838360005b83811015610fd3578082015181840152602081019050610fb8565b50505050905001848103835286818151815260200191508051906020019060200280838360005b83811015611015578082015181840152602081019050610ffa565b50505050905001848103825285818151815260200191508051906020019060200280838360005b8381101561105757808201518184015260208101905061103c565b50505050905001965050505050505060405180910390f35b34801561107b57600080fd5b506110be6004803603602081101561109257600080fd5b81019080803573ffffffffffffffffffffffffffffffffffffffff169060200190929190505050613e6b565b005b60608060608060606009600087815260200190815260200160002080548060200260200160405190810160405280929190818152602001828054801561112557602002820191906000526020600020905b815481526020019060010190808311611111575b505050505090506000815190506060816040519080825280602002602001820160405280156111635781602001602082028038833980820191505090505b5090506060826040519080825280602002602001820160405280156111975781602001602082028038833980820191505090505b5090506060836040519080825280602002602001820160405280156111cb5781602001602082028038833980820191505090505b5090506060846040519080825280602002602001820160405280156111ff5781602001602082028038833980820191505090505b50905060008090505b8581101561134557600a6000888381518110151561122257fe5b90602001906020020151815260200190815260200160002060000154858281518110151561124c57fe5b9060200190602002018181525050600a6000888381518110151561126c57fe5b90602001906020020151815260200190815260200160002060010154848281518110151561129657fe5b9060200190602002018181525050600a600088838151811015156112b657fe5b9060200190602002015181526020019081526020016000206003015483828151811015156112e057fe5b9060200190602002018181525050600a6000888381518110151561130057fe5b90602001906020020151815260200190815260200160002060020154828281518110151561132a57fe5b90602001906020020181815250508080600101915050611208565b508383838399509950995099505050505050509193509193565b6000843373ffffffffffffffffffffffffffffffffffffffff166008600083815260200190815260200160002060020160009054906101000a900473ffffffffffffffffffffffffffffffffffffffff1673ffffffffffffffffffffffffffffffffffffffff1614151561143b576040517f08c379a00000000000000000000000000000000000000000000000000000000081526004018080602001828103825260168152602001807f53656e646572206e6f7420617574686f72697a65642e0000000000000000000081525060200191505060405180910390fd5b600160149054906101000a900460ff1615151561145757600080fd5b6000338642604051602001808473ffffffffffffffffffffffffffffffffffffffff1673ffffffffffffffffffffffffffffffffffffffff166c0100000000000000000000000002815260140183815260200182815260200193505050506040516020818303038152906040528051906020012090506114d56142dd565b60806040519081016040528083815260200188815260200187815260200186815250905080600a600084815260200190815260200160002060008201518160000155602082015181600101556040820151816002015560608201518160030155905050600960008981526020019081526020016000208290806001815401808255809150509060018203906000526020600020016000909192909190915055507f888dcac1d1d96650356de88b82548529d50f9c8b2e4bd88f8c298d398bde2bef828888886040518085815260200184815260200183815260200182815260200194505050505060405180910390a1819350505050949350505050565b6009602052816000526040600020818154811015156115ed57fe5b90600052602060002001600091509150505481565b600060011515600360003373ffffffffffffffffffffffffffffffffffffffff1673ffffffffffffffffffffffffffffffffffffffff16815260200190815260200160002060009054906101000a900460ff1615151415156116cc576040517f08c379a00000000000000000000000000000000000000000000000000000000081526004018080602001828103825260168152602001807f53656e646572206e6f7420617574686f72697a65642e0000000000000000000081525060200191505060405180910390fd5b6116d4613816565b73ffffffffffffffffffffffffffffffffffffffff168273ffffffffffffffffffffffffffffffffffffffff161415151561175a576040517f08c379a000000000000000000000000000000000000000000000000000000000815260040180806020018281038252602b815260200180614448602b913960400191505060405180910390fd5b6000600360008473ffffffffffffffffffffffffffffffffffffffff1673ffffffffffffffffffffffffffffffffffffffff16815260200190815260200160002060006101000a81548160ff0219169083151502179055506000600280549050905060008090505b81811015611932578373ffffffffffffffffffffffffffffffffffffffff166002828154811015156117f057fe5b9060005260206000200160009054906101000a900473ffffffffffffffffffffffffffffffffffffffff1673ffffffffffffffffffffffffffffffffffffffff1614156119255760026001830381548110151561184957fe5b9060005260206000200160009054906101000a900473ffffffffffffffffffffffffffffffffffffffff1660028281548110151561188357fe5b9060005260206000200160006101000a81548173ffffffffffffffffffffffffffffffffffffffff021916908373ffffffffffffffffffffffffffffffffffffffff1602179055506002600183038154811015156118dd57fe5b9060005260206000200160006101000a81549073ffffffffffffffffffffffffffffffffffffffff0219169055600280548091906001900361191f919061430c565b50611932565b80806001019150506117c2565b507fa3b62bc36326052d97ea62d63c3d60308ed4c3ea8ac079dd8499f1e9c4f80c0f83604051808273ffffffffffffffffffffffffffffffffffffffff1673ffffffffffffffffffffffffffffffffffffffff16815260200191505060405180910390a16001915050919050565b6060806060600060068054905090506060816040519080825280602002602001820160405280156119e05781602001602082028038833980820191505090505b509050606082604051908082528060200260200182016040528015611a145781602001602082028038833980820191505090505b509050606083604051908082528060200260200182016040528015611a485781602001602082028038833980820191505090505b50905060008090505b84811015611b985760086000600683815481101515611a6c57fe5b90600052602060002001548152602001908152602001600020600001548482815181101515611a9757fe5b906020019060200201818152505060086000600683815481101515611ab857fe5b90600052602060002001548152602001908152602001600020600101548382815181101515611ae357fe5b906020019060200201818152505060086000600683815481101515611b0457fe5b9060005260206000200154815260200190815260200160002060020160009054906101000a900473ffffffffffffffffffffffffffffffffffffffff168282815181101515611b4f57fe5b9060200190602002019073ffffffffffffffffffffffffffffffffffffffff16908173ffffffffffffffffffffffffffffffffffffffff16815250508080600101915050611a51565b5082828296509650965050505050909192565b611bb433611d27565b1515611bbf57600080fd5b600160149054906101000a900460ff161515611bda57600080fd5b6000600160146101000a81548160ff0219169083151502179055507f5db9ee0a495bf2e6ff9c91a7834c1ba4fdd244a5e8aa4e537bd38aeae4b073aa33604051808273ffffffffffffffffffffffffffffffffffffffff1673ffffffffffffffffffffffffffffffffffffffff16815260200191505060405180910390a1565b611c62613840565b1515611c6d57600080fd5b7f8a09e1677ced846cb537dc2b172043bd05a1a81ad7e0033a7ef8ba762df990b733604051808273ffffffffffffffffffffffffffffffffffffffff1673ffffffffffffffffffffffffffffffffffffffff16815260200191505060405180910390a13373ffffffffffffffffffffffffffffffffffffffff16ff5b600481815481101515611cf857fe5b906000526020600020016000915054906101000a900473ffffffffffffffffffffffffffffffffffffffff1681565b6000611d3d826000613e8a90919063ffffffff16565b9050919050565b6000823373ffffffffffffffffffffffffffffffffffffffff166008600083815260200190815260200160002060020160009054906101000a900473ffffffffffffffffffffffffffffffffffffffff1673ffffffffffffffffffffffffffffffffffffffff16141515611e20576040517f08c379a00000000000000000000000000000000000000000000000000000000081526004018080602001828103825260168152602001807f53656e646572206e6f7420617574686f72697a65642e0000000000000000000081525060200191505060405180910390fd5b600160149054906101000a900460ff16151515611e3c57600080fd5b6000600a600087815260200190815260200160002060020154905083600a6000888152602001908152602001600020600201819055507f55cc09d00de6540ba059952c93ab171a4c3da4c89b729ea5de19b8cc863c211786858360405180848152602001838152602001828152602001935050505060405180910390a185925050509392505050565b6000813373ffffffffffffffffffffffffffffffffffffffff166008600083815260200190815260200160002060020160009054906101000a900473ffffffffffffffffffffffffffffffffffffffff1673ffffffffffffffffffffffffffffffffffffffff16141515611fa1576040517f08c379a00000000000000000000000000000000000000000000000000000000081526004018080602001828103825260168152602001807f53656e646572206e6f7420617574686f72697a65642e0000000000000000000081525060200191505060405180910390fd5b600160149054906101000a900460ff16151515611fbd57600080fd5b6000600860008581526020019081526020016000206003015490506000811115612084573373ffffffffffffffffffffffffffffffffffffffff166108fc829081150290604051600060405180830381858888f19350505050158015612027573d6000803e3d6000fd5b50600060086000868152602001908152602001600020600301819055507fb7576a710fcc891d13513585bab7cd7b441b1f0aeb4ded4d5052fb7b27301efc8482604051808381526020018281526020019250505060405180910390a15b5050919050565b6060600060028054905090506060816040519080825280602002602001820160405280156120c85781602001602082028038833980820191505090505b50905060008090505b8281101561216a576002818154811015156120e857fe5b9060005260206000200160009054906101000a900473ffffffffffffffffffffffffffffffffffffffff16828281518110151561212157fe5b9060200190602002019073ffffffffffffffffffffffffffffffffffffffff16908173ffffffffffffffffffffffffffffffffffffffff168152505080806001019150506120d1565b50809250505090565b60076020528160005260406000208181548110151561218e57fe5b90600052602060002001600091509150505481565b6000600160149054906101000a900460ff16905090565b6000813373ffffffffffffffffffffffffffffffffffffffff166008600083815260200190815260200160002060020160009054906101000a900473ffffffffffffffffffffffffffffffffffffffff1673ffffffffffffffffffffffffffffffffffffffff16141515612296576040517f08c379a00000000000000000000000000000000000000000000000000000000081526004018080602001828103825260168152602001807f53656e646572206e6f7420617574686f72697a65642e0000000000000000000081525060200191505060405180910390fd5b600160149054906101000a900460ff161515156122b257600080fd5b60008090505b600960008581526020019081526020016000208054905081101561234957600060096000868152602001908152602001600020828154811015156122f857fe5b90600052602060002001549050600a600082815260200190815260200160002060008082016000905560018201600090556002820160009055600382016000905550505080806001019150506122b8565b506009600084815260200190815260200160002060006123699190614338565b6000600760003373ffffffffffffffffffffffffffffffffffffffff1673ffffffffffffffffffffffffffffffffffffffff16815260200190815260200160002080549050905060008090505b818110156125925784600760003373ffffffffffffffffffffffffffffffffffffffff1673ffffffffffffffffffffffffffffffffffffffff1681526020019081526020016000208281548110151561240b57fe5b9060005260206000200154141561258557600760003373ffffffffffffffffffffffffffffffffffffffff1673ffffffffffffffffffffffffffffffffffffffff1681526020019081526020016000206001830381548110151561246b57fe5b9060005260206000200154600760003373ffffffffffffffffffffffffffffffffffffffff1673ffffffffffffffffffffffffffffffffffffffff168152602001908152602001600020828154811015156124c257fe5b9060005260206000200181905550600760003373ffffffffffffffffffffffffffffffffffffffff1673ffffffffffffffffffffffffffffffffffffffff1681526020019081526020016000206001830381548110151561251f57fe5b9060005260206000200160009055600760003373ffffffffffffffffffffffffffffffffffffffff1673ffffffffffffffffffffffffffffffffffffffff16815260200190815260200160002080548091906001900361257f9190614359565b50612592565b80806001019150506123b6565b50600680549050905060008090505b818110156125f957846006828154811015156125b957fe5b906000526020600020015414156125ec576006818154811015156125d957fe5b90600052602060002001600090556125f9565b80806001019150506125a1565b5060006008600086815260200190815260200160002060030154905060008111156126c1573373ffffffffffffffffffffffffffffffffffffffff166108fc829081150290604051600060405180830381858888f19350505050158015612664573d6000803e3d6000fd5b50600060086000878152602001908152602001600020600301819055507fb7576a710fcc891d13513585bab7cd7b441b1f0aeb4ded4d5052fb7b27301efc8582604051808381526020018281526020019250505060405180910390a15b6008600086815260200190815260200160002060008082016000905560018201600090556002820160006101000a81549073ffffffffffffffffffffffffffffffffffffffff0219169055600382016000905550507f42b0d75ecaefba5bc0e1e6f2b225eb31d0fa0fd09119d3b850cada0841bc1d02856040518082815260200191505060405180910390a1849350505050919050565b600060011515600360003373ffffffffffffffffffffffffffffffffffffffff1673ffffffffffffffffffffffffffffffffffffffff16815260200190815260200160002060009054906101000a900460ff161515141515612822576040517f08c379a00000000000000000000000000000000000000000000000000000000081526004018080602001828103825260168152602001807f53656e646572206e6f7420617574686f72697a65642e0000000000000000000081525060200191505060405180910390fd5b600160149054906101000a900460ff1615151561283e57600080fd5b6000600560008473ffffffffffffffffffffffffffffffffffffffff1673ffffffffffffffffffffffffffffffffffffffff16815260200190815260200160002060006101000a81548160ff0219169083151502179055506000600480549050905060008090505b81811015612a16578373ffffffffffffffffffffffffffffffffffffffff166004828154811015156128d457fe5b9060005260206000200160009054906101000a900473ffffffffffffffffffffffffffffffffffffffff1673ffffffffffffffffffffffffffffffffffffffff161415612a095760046001830381548110151561292d57fe5b9060005260206000200160009054906101000a900473ffffffffffffffffffffffffffffffffffffffff1660048281548110151561296757fe5b9060005260206000200160006101000a81548173ffffffffffffffffffffffffffffffffffffffff021916908373ffffffffffffffffffffffffffffffffffffffff1602179055506004600183038154811015156129c157fe5b9060005260206000200160006101000a81549073ffffffffffffffffffffffffffffffffffffffff02191690556004805480919060019003612a03919061430c565b50612a16565b80806001019150506128a6565b507fee8258b57c171df72836d554f2addcb97a3be3652a6f9f58a431063096c0b84083604051808273ffffffffffffffffffffffffffffffffffffffff1673ffffffffffffffffffffffffffffffffffffffff16815260200191505060405180910390a16001915050919050565b600681815481101515612a9357fe5b906000526020600020016000915090505481565b612ab033613f1e565b565b600060011515600360003373ffffffffffffffffffffffffffffffffffffffff1673ffffffffffffffffffffffffffffffffffffffff16815260200190815260200160002060009054906101000a900460ff161515141515612b7c576040517f08c379a00000000000000000000000000000000000000000000000000000000081526004018080602001828103825260168152602001807f53656e646572206e6f7420617574686f72697a65642e0000000000000000000081525060200191505060405180910390fd5b6001600360008473ffffffffffffffffffffffffffffffffffffffff1673ffffffffffffffffffffffffffffffffffffffff16815260200190815260200160002060006101000a81548160ff02191690831515021790555060028290806001815401808255809150509060018203906000526020600020016000909192909190916101000a81548173ffffffffffffffffffffffffffffffffffffffff021916908373ffffffffffffffffffffffffffffffffffffffff160217905550507f44d6d25963f097ad14f29f06854a01f575648a1ef82f30e562ccd3889717e33982604051808273ffffffffffffffffffffffffffffffffffffffff1673ffffffffffffffffffffffffffffffffffffffff16815260200191505060405180910390a160019050919050565b612cae613840565b1515612cb957600080fd5b600073ffffffffffffffffffffffffffffffffffffffff16600160009054906101000a900473ffffffffffffffffffffffffffffffffffffffff1673ffffffffffffffffffffffffffffffffffffffff167f8be0079c531659141344cd1fd0a4f28419497f9722a3daafe3b4186f6b6457e060405160405180910390a36000600160006101000a81548173ffffffffffffffffffffffffffffffffffffffff021916908373ffffffffffffffffffffffffffffffffffffffff160217905550565b600060011515600560003373ffffffffffffffffffffffffffffffffffffffff1673ffffffffffffffffffffffffffffffffffffffff16815260200190815260200160002060009054906101000a900460ff161515141515612e44576040517f08c379a00000000000000000000000000000000000000000000000000000000081526004018080602001828103825260168152602001807f53656e646572206e6f7420617574686f72697a65642e0000000000000000000081525060200191505060405180910390fd5b600160149054906101000a900460ff16151515612e6057600080fd5b6000338342604051602001808473ffffffffffffffffffffffffffffffffffffffff1673ffffffffffffffffffffffffffffffffffffffff166c010000000000000000000000000281526014018381526020018281526020019350505050604051602081830303815290604052805190602001209050612ede614385565b6080604051908101604052808381526020018581526020013373ffffffffffffffffffffffffffffffffffffffff168152602001600081525090506006829080600181540180825580915050906001820390600052602060002001600090919290919091505550600760003373ffffffffffffffffffffffffffffffffffffffff1673ffffffffffffffffffffffffffffffffffffffff1681526020019081526020016000208290806001815401808255809150509060018203906000526020600020016000909192909190915055508060086000848152602001908152602001600020600082015181600001556020820151816001015560408201518160020160006101000a81548173ffffffffffffffffffffffffffffffffffffffff021916908373ffffffffffffffffffffffffffffffffffffffff160217905550606082015181600301559050507f11bbcd7e1ec9adb981103ba1d6654a2562461c2b0d8392714fb9345837e4be13828533604051808481526020018381526020018273ffffffffffffffffffffffffffffffffffffffff1673ffffffffffffffffffffffffffffffffffffffff168152602001935050505060405180910390a18192505050919050565b6000600160149054906101000a900460ff161515156130c557600080fd5b6130cd6142dd565b600a6000858152602001908152602001600020608060405190810160405290816000820154815260200160018201548152602001600282015481526020016003820154815250509050600061312f848360400151613f7890919063ffffffff16565b905080341015151561318c576040517f08c379a00000000000000000000000000000000000000000000000000000000081526004018080602001828103825260338152602001806144156033913960400191505060405180910390fd5b83826060015110151515613208576040517f08c379a000000000000000000000000000000000000000000000000000000000815260040180806020018281038252601b8152602001807f4974656d207175616e74697479206973206e6f7420656e6f756768000000000081525060200191505060405180910390fd5b8034111561325a573373ffffffffffffffffffffffffffffffffffffffff166108fc8234039081150290604051600060405180830381858888f19350505050158015613258573d6000803e3d6000fd5b505b61328384600a600088815260200190815260200160002060030154613fa790919063ffffffff16565b600a6000878152602001908152602001600020600301819055506132c6816008600089815260200190815260200160002060030154613fc990919063ffffffff16565b60086000888152602001908152602001600020600301819055507fe4f85790bdbeca4aead06b7b55450d99ad2693940f65f816d24044a72db6b6bb86868660405180848152602001838152602001828152602001935050505060405180910390a16001925050509392505050565b6000813373ffffffffffffffffffffffffffffffffffffffff166008600083815260200190815260200160002060020160009054906101000a900473ffffffffffffffffffffffffffffffffffffffff1673ffffffffffffffffffffffffffffffffffffffff16141515613410576040517f08c379a00000000000000000000000000000000000000000000000000000000081526004018080602001828103825260168152602001807f53656e646572206e6f7420617574686f72697a65642e0000000000000000000081525060200191505060405180910390fd5b600160149054906101000a900460ff1615151561342c57600080fd5b60006009600085815260200190815260200160002080549050905060008090505b8181101561354d5784600960008781526020019081526020016000208281548110151561347657fe5b906000526020600020015414156135405760096000868152602001908152602001600020600183038154811015156134aa57fe5b906000526020600020015460096000878152602001908152602001600020828154811015156134d557fe5b9060005260206000200181905550600960008681526020019081526020016000206001830381548110151561350657fe5b90600052602060002001600090556009600086815260200190815260200160002080548091906001900361353a9190614359565b5061354d565b808060010191505061344d565b50600a600086815260200190815260200160002060008082016000905560018201600090556002820160009055600382016000905550507f4d14690cbd42eab82cd15ad666b9b98197ade97acdd17512bdec0497b591de48856040518082815260200191505060405180910390a1849250505092915050565b6000823373ffffffffffffffffffffffffffffffffffffffff166008600083815260200190815260200160002060020160009054906101000a900473ffffffffffffffffffffffffffffffffffffffff1673ffffffffffffffffffffffffffffffffffffffff161415156136a2576040517f08c379a00000000000000000000000000000000000000000000000000000000081526004018080602001828103825260168152602001807f53656e646572206e6f7420617574686f72697a65642e0000000000000000000081525060200191505060405180910390fd5b600160149054906101000a900460ff161515156136be57600080fd5b6000600a600087815260200190815260200160002060030154905083600a6000888152602001908152602001600020600301819055507f73b275e7ead5ed73869fb9794c1cb9cf330f3f1461360e2c79798d00d946f4b986858360405180848152602001838152602001828152602001935050505060405180910390a185925050509392505050565b61375033611d27565b151561375b57600080fd5b61376481613fea565b50565b61377033611d27565b151561377b57600080fd5b600160149054906101000a900460ff1615151561379757600080fd5b60018060146101000a81548160ff0219169083151502179055507f62e78cea01bee320cd4e420270b5ea74000d11b0c9f74754ebdbfc544b05a25833604051808273ffffffffffffffffffffffffffffffffffffffff1673ffffffffffffffffffffffffffffffffffffffff16815260200191505060405180910390a1565b6000600160009054906101000a900473ffffffffffffffffffffffffffffffffffffffff16905090565b6000600160009054906101000a900473ffffffffffffffffffffffffffffffffffffffff1673ffffffffffffffffffffffffffffffffffffffff163373ffffffffffffffffffffffffffffffffffffffff1614905090565b6060600060048054905090506060816040519080825280602002602001820160405280156138d55781602001602082028038833980820191505090505b50905060008090505b82811015613977576004818154811015156138f557fe5b9060005260206000200160009054906101000a900473ffffffffffffffffffffffffffffffffffffffff16828281518110151561392e57fe5b9060200190602002019073ffffffffffffffffffffffffffffffffffffffff16908173ffffffffffffffffffffffffffffffffffffffff168152505080806001019150506138de565b50809250505090565b60086020528060005260406000206000915090508060000154908060010154908060020160009054906101000a900473ffffffffffffffffffffffffffffffffffffffff16908060030154905084565b60056020528060005260406000206000915054906101000a900460ff1681565b600060011515600360003373ffffffffffffffffffffffffffffffffffffffff1673ffffffffffffffffffffffffffffffffffffffff16815260200190815260200160002060009054906101000a900460ff161515141515613aba576040517f08c379a00000000000000000000000000000000000000000000000000000000081526004018080602001828103825260168152602001807f53656e646572206e6f7420617574686f72697a65642e0000000000000000000081525060200191505060405180910390fd5b600160149054906101000a900460ff16151515613ad657600080fd5b6001600560008473ffffffffffffffffffffffffffffffffffffffff1673ffffffffffffffffffffffffffffffffffffffff16815260200190815260200160002060006101000a81548160ff02191690831515021790555060048290806001815401808255809150509060018203906000526020600020016000909192909190916101000a81548173ffffffffffffffffffffffffffffffffffffffff021916908373ffffffffffffffffffffffffffffffffffffffff160217905550507fe095b54135d91dfdb849d8f2a1232ed69da67f78cfd33a34a834084d8d037e9a82604051808273ffffffffffffffffffffffffffffffffffffffff1673ffffffffffffffffffffffffffffffffffffffff16815260200191505060405180910390a160019050919050565b60036020528060005260406000206000915054906101000a900460ff1681565b600281815481101515613c2f57fe5b906000526020600020016000915054906101000a900473ffffffffffffffffffffffffffffffffffffffff1681565b60608060606000600760008673ffffffffffffffffffffffffffffffffffffffff1673ffffffffffffffffffffffffffffffffffffffff168152602001908152602001600020805490509050606081604051908082528060200260200182016040528015613cdb5781602001602082028038833980820191505090505b509050606082604051908082528060200260200182016040528015613d0f5781602001602082028038833980820191505090505b509050606083604051908082528060200260200182016040528015613d435781602001602082028038833980820191505090505b50905060008090505b84811015613e56576000600760008b73ffffffffffffffffffffffffffffffffffffffff1673ffffffffffffffffffffffffffffffffffffffff16815260200190815260200160002082815481101515613da257fe5b9060005260206000200154905060086000828152602001908152602001600020600001548583815181101515613dd457fe5b906020019060200201818152505060086000828152602001908152602001600020600101548483815181101515613e0757fe5b906020019060200201818152505060086000828152602001908152602001600020600301548383815181101515613e3a57fe5b9060200190602002018181525050508080600101915050613d4c565b50828282965096509650505050509193909250565b613e73613840565b1515613e7e57600080fd5b613e8781614044565b50565b60008073ffffffffffffffffffffffffffffffffffffffff168273ffffffffffffffffffffffffffffffffffffffff1614151515613ec757600080fd5b8260000160008373ffffffffffffffffffffffffffffffffffffffff1673ffffffffffffffffffffffffffffffffffffffff16815260200190815260200160002060009054906101000a900460ff16905092915050565b613f3281600061414090919063ffffffff16565b8073ffffffffffffffffffffffffffffffffffffffff167fcd265ebaf09df2871cc7bd4133404a235ba12eff2041bb89d9c714a2621c7c7e60405160405180910390a250565b6000601260ff16600a0a613f9583856141ef90919063ffffffff16565b811515613f9e57fe5b04905092915050565b6000828211151515613fb857600080fd5b600082840390508091505092915050565b6000808284019050838110151515613fe057600080fd5b8091505092915050565b613ffe81600061422d90919063ffffffff16565b8073ffffffffffffffffffffffffffffffffffffffff167f6719d08c1888103bea251a4ed56406bd0c3e69723c8a1686e017e7bbe159b6f860405160405180910390a250565b600073ffffffffffffffffffffffffffffffffffffffff168173ffffffffffffffffffffffffffffffffffffffff161415151561408057600080fd5b8073ffffffffffffffffffffffffffffffffffffffff16600160009054906101000a900473ffffffffffffffffffffffffffffffffffffffff1673ffffffffffffffffffffffffffffffffffffffff167f8be0079c531659141344cd1fd0a4f28419497f9722a3daafe3b4186f6b6457e060405160405180910390a380600160006101000a81548173ffffffffffffffffffffffffffffffffffffffff021916908373ffffffffffffffffffffffffffffffffffffffff16021790555050565b600073ffffffffffffffffffffffffffffffffffffffff168173ffffffffffffffffffffffffffffffffffffffff161415151561417c57600080fd5b6141868282613e8a565b151561419157600080fd5b60008260000160008373ffffffffffffffffffffffffffffffffffffffff1673ffffffffffffffffffffffffffffffffffffffff16815260200190815260200160002060006101000a81548160ff0219169083151502179055505050565b6000808314156142025760009050614227565b6000828402905082848281151561421557fe5b0414151561422257600080fd5b809150505b92915050565b600073ffffffffffffffffffffffffffffffffffffffff168173ffffffffffffffffffffffffffffffffffffffff161415151561426957600080fd5b6142738282613e8a565b15151561427f57600080fd5b60018260000160008373ffffffffffffffffffffffffffffffffffffffff1673ffffffffffffffffffffffffffffffffffffffff16815260200190815260200160002060006101000a81548160ff0219169083151502179055505050565b608060405190810160405280600080191681526020016000801916815260200160008152602001600081525090565b8154818355818111156143335781836000526020600020918201910161433291906143ca565b5b505050565b508054600082559060005260206000209081019061435691906143ef565b50565b8154818355818111156143805781836000526020600020918201910161437f91906143ef565b5b505050565b6080604051908101604052806000801916815260200160008019168152602001600073ffffffffffffffffffffffffffffffffffffffff168152602001600081525090565b6143ec91905b808211156143e85760008160009055506001016143d0565b5090565b90565b61441191905b8082111561440d5760008160009055506001016143f5565b5090565b9056fe6d73672e76616c7565206d7573742062652067726561746572206f7220657175616c207468616e20746f74616c2070726963654f776e65722063616e6e6f742062652072656d6f7665642066726f6d2061646d696e6973747261746f7273a165627a7a72305820d718ded54070d3a35f3c242897478d135dec676267933c6c27263898de98126f0029",
  "source": "pragma solidity ^0.5.0;\n\nimport \"openzeppelin-solidity/contracts/ownership/Ownable.sol\";\nimport \"openzeppelin-solidity/contracts/lifecycle/Pausable.sol\";\nimport \"openzeppelin-solidity/contracts/math/SafeMath.sol\";\nimport \"./Mortal.sol\";\nimport \"./SafeDecimalMath.sol\";\n\n/*\n* @title Marketplace\n*\n* @dev This contract allows the addition and removal of admins and storefront owners.\n* It also allows a storefront owner to manage storefronts and add, edit and remove items from their inventories.\n* Finally, it allows purchasers to buy items from any storefronts.\n* The Ownable and Pausable and SafeMath contracts are all taken from Zeppelin.\n*/\ncontract MarketPlace is Ownable, Pausable, Mortal {\n\n    using SafeMath for uint256;\n    using SafeDecimalMath for uint256;\n\n    /* ========== STATE VARIABLES ========== */\n\n    // Arrays and mappings to store current administrators and storeowners\n    address[] public administrators;\n    mapping (address => bool) public administratorsByAddress;\n    address[] public storeOwners;\n    mapping (address => bool) public storeOwnersByAddress;\n\n    /*\n    * Arrays and mappings to store all the storefronts,\n    * storefronts by owner and storefront by id.\n    */\n    bytes32[] public storefronts;\n    mapping (address => bytes32[]) public storefrontsByOwner;\n    mapping (bytes32 => Storefront) public storefrontsById;\n\n    /*\n    * Mappings to store inventory by storefront and\n    * inventory item per id.\n    */\n    mapping(bytes32 => bytes32[]) public inventoryByStorefrontId;\n    mapping(bytes32 => Item) private itemsById;\n\n    /** @dev Struct which stores storefront data.\n\t* @param id Storefront id.\n\t* @param name Storefront name.\n\t* @param owner Storefront owner address.\n\t* @param balance Storefront balance.\n\t*/\n    struct Storefront {\n        bytes32 id;\n        bytes32 name;\n        address owner;\n        uint balance;\n    }\n\n    /** @dev Struct which stores Item data.\n\t* @param id Item id.\n\t* @param name Item name.\n\t* @param price Item price.\n\t* @param quantity Item quantity.\n\t*/\n    struct Item {\n        bytes32 id;\n        bytes32 name;\n        uint price;\n        uint quantity;\n    }\n\n    /* ========== EVENTS ========== */\n\n    event AdminAdded(address admin);\n    event AdminRemoved(address admin);\n    event StoreOwnerAdded(address storeOwner);\n    event StoreOwnerRemoved(address storeOwner);\n    event StoreCreated(bytes32 id, bytes32 name, address storeOwner);\n    event StoreRemoved(bytes32 id);\n    event BalanceWithdrawn(bytes32 id, uint balance);\n    event ItemAdded(bytes32 id, bytes32 name, uint price, uint quantity);\n    event ItemRemoved(bytes32 id);\n    event ItemPriceUpdated(bytes32 id, uint newPrice, uint oldPrice);\n    event ItemQuantityUpdated(bytes32 id, uint newQuantity, uint oldQuantity);\n    event ItemSold(bytes32 storeId, bytes32 itemId, uint quantity);\n\n    /* ========== MODIFIERS ========== */\n\n    // @dev Verifies if msg.sender is an administrator.\n    modifier onlyAdmin() {require(administratorsByAddress[msg.sender] == true, \"Sender not authorized.\"); _;}\n\n    // @dev Verifies if msg.sender is a store owner.\n    modifier onlyStoreOwner() {require(storeOwnersByAddress[msg.sender] == true, \"Sender not authorized.\"); _;}\n\n    /** @dev Verifies if msg.sender is the owner of a specific store.\n    * @param _storeId The store ID.\n    */\n    modifier onlyStorefrontOwner(bytes32 _storeId) {require(storefrontsById[_storeId].owner == msg.sender, \"Sender not authorized.\"); _;}\n\n    /* ========== CONSTRUCTOR ========== */\n\n    /**\n    * @dev Constructor.\n    * Sets msg.sender as the owner.\n    * Sets msg.sender as an administrator.\n    */\n    constructor()\n    Ownable()\n    public {\n        administratorsByAddress[msg.sender] = true;\n        administrators.push(msg.sender);\n    }\n\n    /* ========== ADMINISTRATOR FUNCTIONS ========== */\n\n    /** @dev Adds a new administrator.\n    * @param _addr The address to add.\n    * @return true if added successfully.\n    */\n    function addAdmin(address _addr)\n    public\n    onlyAdmin()\n    returns(bool) {\n        administratorsByAddress[_addr] = true;\n        administrators.push(_addr);\n        emit AdminAdded(_addr);\n        return true;\n    }\n\n    /** @dev Removes an administrator.\n    * @param _addr The address to remove.\n    * @return true if removed successfully.\n    */\n    function removeAdmin(address _addr)\n    public\n    onlyAdmin()\n    returns(bool) {\n        require(_addr != owner(), \"Owner cannot be removed from administrators\");\n        administratorsByAddress[_addr] = false;\n        uint adminCount = administrators.length;\n        for(uint i = 0; i < adminCount; i++) {\n            if (administrators[i] == _addr) {\n                administrators[i] = administrators[adminCount-1];\n                delete administrators[adminCount-1];\n                administrators.length --;\n                break;\n            }\n        }\n        emit AdminRemoved(_addr);\n        return true;\n    }\n\n    /** @dev Get a list of all the administrators.\n    * @return admins The array of all the administrators address.\n    */\n    function getAdministrators()\n    public\n    view\n    returns(address[] memory) {\n        uint adminCount = administrators.length;\n        address[] memory admins = new address[](adminCount);\n        for (uint i = 0; i < adminCount; i++) {\n            admins[i] = administrators[i];\n        }\n        return admins;\n    }\n\n    /* ========== STORE OWNER FUNCTIONS ========== */\n\n    /** @dev Adds a new store owner.\n    * @param _addr The address to add.\n    * @return true if added successfully.\n    */\n    function addStoreOwner(address _addr)\n    public\n    onlyAdmin()\n    whenNotPaused()\n    returns(bool) {\n        storeOwnersByAddress[_addr] = true;\n        storeOwners.push(_addr);\n        emit StoreOwnerAdded(_addr);\n        return true;\n    }\n\n    /** @dev Removes a store owner.\n    * @param _addr The address to remove.\n    * @return true if removed successfully.\n    */\n    function removeStoreOwner(address _addr)\n    public\n    onlyAdmin()\n    whenNotPaused()\n    returns(bool) {\n        storeOwnersByAddress[_addr] = false;\n        uint ownerCount = storeOwners.length;\n        for(uint i = 0; i < ownerCount; i++) {\n            if (storeOwners[i] == _addr) {\n                storeOwners[i] = storeOwners[ownerCount-1];\n                delete storeOwners[ownerCount-1];\n                storeOwners.length --;\n                break;\n            }\n        }\n        emit StoreOwnerRemoved(_addr);\n        return true;\n    }\n\n     /** @dev Get a list of all the store owners.\n    * @return owners The array of all the store owners address.\n    */\n    function getStoreOwners()\n    public\n    view\n    returns(address[] memory) {\n        uint storeOwnerCount = storeOwners.length;\n        address[] memory owners = new address[](storeOwnerCount);\n        for (uint i = 0; i < storeOwnerCount; i++) {\n            owners[i] = storeOwners[i];\n        }\n        return owners;\n    }\n\n    /* ========== STORE FRONT FUNCTIONS ========== */\n\n    /** @dev Creates a new storefront.\n    * @param _name The name of the new storefront.\n    * @return id The ID of the new storefront.\n    */\n    function createStore(bytes32 _name)\n    public\n    onlyStoreOwner()\n    whenNotPaused()\n    returns(bytes32) {\n        bytes32 id = keccak256(abi.encodePacked(msg.sender, _name, now));\n        Storefront memory s = Storefront(id, _name, msg.sender, 0);\n        storefronts.push(id);\n        storefrontsByOwner[msg.sender].push(id);\n        storefrontsById[id] = s;\n        emit StoreCreated(id, _name, msg.sender);\n        return id;\n    }\n\n    /** @dev Removes a storefront. Also deletes its inventory, items\n    * and transfers balance fund to the owner if needed.\n    * @param _storeId The storefront ID.\n    * @return _storeId The deleted storefront ID.\n    */\n    function removeStore(bytes32 _storeId)\n    public\n    onlyStorefrontOwner(_storeId)\n    whenNotPaused()\n    returns(bytes32) {\n\n        // Delete all the items from the store inventory.\n        for (uint i = 0; i < inventoryByStorefrontId[_storeId].length; i++) {\n            bytes32 itemId = inventoryByStorefrontId[_storeId][i];\n            delete itemsById[itemId];\n        }\n\n        // Delete the store inventory.\n        delete inventoryByStorefrontId[_storeId];\n\n        // Remove from storefrontsByOwner mapping.\n        uint storefrontCount = storefrontsByOwner[msg.sender].length;\n        for(uint i = 0; i < storefrontCount; i++) {\n            if (storefrontsByOwner[msg.sender][i] == _storeId) {\n                storefrontsByOwner[msg.sender][i] = storefrontsByOwner[msg.sender][storefrontCount-1];\n                delete storefrontsByOwner[msg.sender][storefrontCount-1];\n                storefrontsByOwner[msg.sender].length --;\n                break;\n            }\n        }\n\n        // Remove from storefronts array.\n        storefrontCount = storefronts.length;\n        for(uint i = 0; i < storefrontCount; i++) {\n            if (storefronts[i] == _storeId) {\n                delete storefronts[i];\n                break;\n            }\n        }\n\n        // Withdraw Balance if needed.\n        uint storefrontBalance = storefrontsById[_storeId].balance;\n        if (storefrontBalance > 0) {\n            msg.sender.transfer(storefrontBalance);\n            storefrontsById[_storeId].balance = 0;\n            emit BalanceWithdrawn(_storeId, storefrontBalance);\n        }\n\n        // Remove from storefrontsById.\n        delete storefrontsById[_storeId];\n        emit StoreRemoved(_storeId);\n        return _storeId;\n    }\n\n    /** @dev Get a list of all the storefronts owned by a specific owner.\n    * @param _storefrontOwner The storefront owner ID.\n    * @return (ids, names, balances) The arrays containing all the store IDs, names and balances.\n    */\n    function getOwnerStorefronts(address _storefrontOwner)\n    public\n    view\n    returns(bytes32[] memory, bytes32[] memory, uint[] memory) {\n        uint storeCount = storefrontsByOwner[_storefrontOwner].length;\n        bytes32[] memory ids = new bytes32[](storeCount);\n        bytes32[] memory names = new bytes32[](storeCount);\n        uint[] memory balances = new uint[](storeCount);\n        for(uint i = 0; i < storeCount; i++) {\n            bytes32 storeId = storefrontsByOwner[_storefrontOwner][i];\n            ids[i] = storefrontsById[storeId].id;\n            names[i] = storefrontsById[storeId].name;\n            balances[i] = storefrontsById[storeId].balance;\n        }\n        return (ids, names, balances);\n    }\n\n    /** @dev Transfers a storefront balance to its owner.\n    * @param _storeId The storefront ID.\n    * @return true If balance was sent successfully.\n    */\n    function widthdrawStorefrontBalance(bytes32 _storeId)\n    public\n    onlyStorefrontOwner(_storeId)\n    whenNotPaused()\n    returns(bool) {\n        uint storefrontBalance = storefrontsById[_storeId].balance;\n        if (storefrontBalance > 0) {\n            msg.sender.transfer(storefrontBalance);\n            storefrontsById[_storeId].balance = 0;\n            emit BalanceWithdrawn(_storeId, storefrontBalance);\n        }\n    }\n\n    /** @dev Get all the created Storefronts.\n    * @return (ids, names, owners) The Id, name and owner for each Storefront.\n    */\n    function getStorefronts()\n    public\n    view\n    returns(bytes32[] memory, bytes32[] memory, address[] memory) {\n        uint storeCount = storefronts.length;\n        bytes32[] memory ids = new bytes32[](storeCount);\n        bytes32[] memory names = new bytes32[](storeCount);\n        address[] memory owners = new address[](storeCount);\n        for(uint i = 0; i < storeCount; i ++) {\n            ids[i] = storefrontsById[storefronts[i]].id;\n            names[i] = storefrontsById[storefronts[i]].name;\n            owners[i] = storefrontsById[storefronts[i]].owner;\n        }\n        return(ids, names, owners);\n    }\n\n    /* ========== INVENTORY FUNCTIONS ========== */\n\n    /** @dev Adds an Item to a Storefront inventory.\n    * @param _storeId The storefront ID we want to update the inventory from.\n    * @param _itemName The new item name.\n    * @param _itemPrice The new item price.\n    * @param _itemQuantity The new item quantity.\n    * @return itemId The new item ID.\n    */\n    function addItemToInventory(bytes32 _storeId, bytes32 _itemName, uint _itemPrice, uint _itemQuantity)\n    public\n    onlyStorefrontOwner(_storeId)\n    whenNotPaused()\n    returns(bytes32) {\n        bytes32 itemId = keccak256(abi.encodePacked(msg.sender, _itemName, now));\n        Item memory i = Item(itemId, _itemName, _itemPrice, _itemQuantity);\n        itemsById[itemId] = i;\n        inventoryByStorefrontId[_storeId].push(itemId);\n        emit ItemAdded(itemId, _itemName, _itemPrice, _itemQuantity);\n        return itemId;\n    }\n\n    /** @dev Removes an Item from a Storefront inventory.\n    * @param _itemId The item ID we want to delete.\n    * @param _storeId The storefront ID we want to update the inventory from.\n    * @return _itemId The deleted item ID.\n    */\n    function removeItemFromInventory(bytes32 _itemId, bytes32 _storeId)\n    public\n    onlyStorefrontOwner(_storeId)\n    whenNotPaused()\n    returns(bytes32) {\n        // Remove the item from inventory mapping\n        uint itemCount = inventoryByStorefrontId[_storeId].length;\n        for(uint i = 0; i < itemCount; i++) {\n            if (inventoryByStorefrontId[_storeId][i] == _storeId) {\n                inventoryByStorefrontId[_storeId][i] = inventoryByStorefrontId[_storeId][itemCount-1];\n                delete inventoryByStorefrontId[_storeId][itemCount-1];\n                inventoryByStorefrontId[_storeId].length --;\n                break;\n            }\n        }\n        //Remove item from items mapping\n        delete itemsById[_itemId];\n        emit ItemRemoved(_itemId);\n        return _itemId;\n    }\n\n    /** @dev Updates the price of an Item from a specicic Storefront.\n    * @param _itemId The item ID we want to update.\n    * @param _storeId The storefront ID we want to update the inventory from.\n    * @param _newPrice The new price we want to set the Item to.\n    * @return _itemId The updated item ID.\n    */\n    function updateItemPrice(bytes32 _itemId, bytes32 _storeId, uint _newPrice)\n    public\n    onlyStorefrontOwner(_storeId)\n    whenNotPaused()\n    returns(bytes32) {\n        uint oldPrice = itemsById[_itemId].price;\n        itemsById[_itemId].price = _newPrice;\n        emit ItemPriceUpdated(_itemId, _newPrice, oldPrice);\n        return _itemId;\n    }\n\n    /** @dev Updates the quantity of an Item from a specicic Storefront.\n    * @param _itemId The item ID we want to update.\n    * @param _storeId The storefront ID we want to update the inventory from.\n    * @param _newQuantity The new quantity value we want to set the Item to.\n    * @return _itemId The updated item ID.\n    */\n    function updateItemQuantity(bytes32 _itemId, bytes32 _storeId, uint _newQuantity)\n    public\n    onlyStorefrontOwner(_storeId)\n    whenNotPaused()\n    returns(bytes32) {\n        uint oldQty = itemsById[_itemId].quantity;\n        itemsById[_itemId].quantity = _newQuantity;\n        emit ItemQuantityUpdated(_itemId, _newQuantity, oldQty);\n        return _itemId;\n    }\n\n    /** @dev Get the inventory for a specific Storefront.\n    * @param _storeId The storefront ID.\n    * @return (itemIds, itemNames, itemQuantities, itemPrices) The Id, name, quantity and price for each Item.\n    */\n    function getStorefrontInventory(bytes32 _storeId)\n    public\n    view\n    returns(bytes32[] memory, bytes32[] memory, uint[] memory, uint[] memory)\n    {\n        bytes32[] memory inventory = inventoryByStorefrontId[_storeId];\n        uint inventorySize = inventory.length;\n        bytes32[] memory itemIds = new bytes32[](inventorySize);\n        bytes32[] memory itemNames = new bytes32[](inventorySize);\n        uint[] memory itemQuantities = new uint[](inventorySize);\n        uint[] memory itemPrices = new uint[](inventorySize);\n        for(uint i = 0; i < inventorySize; i++) {\n            itemIds[i] = itemsById[inventory[i]].id;\n            itemNames[i] = itemsById[inventory[i]].name;\n            itemQuantities[i] = itemsById[inventory[i]].quantity;\n            itemPrices[i] = itemsById[inventory[i]].price;\n        }\n        return (itemIds, itemNames, itemQuantities, itemPrices);\n    }\n\n    /* ========== PURCHASER FUNCTIONS ========== */\n\n    /** @dev Allows a visitor to purchase an Item from a Storefront.\n    * @param _storeId The storefront ID.\n    * @param _itemId The item ID.\n    * @param _quantity The item quantity.\n    * @return true If transaction was successful.\n    */\n    function purchaseItem(bytes32 _storeId, bytes32 _itemId, uint _quantity)\n    public\n    whenNotPaused()\n    payable\n    returns(bool) {\n        Item memory item = itemsById[_itemId];\n        uint totalPrice = item.price.multiplyDecimal(_quantity);\n        require(msg.value >= totalPrice, \"msg.value must be greater or equal than total price\");\n        require(item.quantity >= _quantity, \"Item quantity is not enough\");\n\n        if (msg.value > totalPrice) {\n            msg.sender.transfer(msg.value - totalPrice);\n        }\n\n        itemsById[_itemId].quantity = itemsById[_itemId].quantity.sub(_quantity);\n        storefrontsById[_storeId].balance = storefrontsById[_storeId].balance.add(totalPrice);\n        emit ItemSold(_storeId, _itemId, _quantity);\n        return true;\n    }\n}\n",
  "sourcePath": "/Users/clementbalestrat/Workspace/final-project-clementbalestrat/contracts/MarketPlace.sol",
  "compiler": {
    "name": "solc",
    "version": "0.5.3+commit.10d17f24.Emscripten.clang"
  },
  "schemaVersion": "3.0.1",
  "updatedAt": "2019-01-27T03:11:13.392Z",
  "devdoc": {
    "methods": {
      "addAdmin(address)": {
        "details": "Adds a new administrator.",
        "params": {
          "_addr": "The address to add."
        },
        "return": "true if added successfully."
      },
      "addItemToInventory(bytes32,bytes32,uint256,uint256)": {
        "details": "Adds an Item to a Storefront inventory.",
        "params": {
          "_itemName": "The new item name.",
          "_itemPrice": "The new item price.",
          "_itemQuantity": "The new item quantity.",
          "_storeId": "The storefront ID we want to update the inventory from."
        },
        "return": "itemId The new item ID."
      },
      "addStoreOwner(address)": {
        "details": "Adds a new store owner.",
        "params": {
          "_addr": "The address to add."
        },
        "return": "true if added successfully."
      },
      "constructor": {
        "details": "Constructor. Sets msg.sender as the owner. Sets msg.sender as an administrator."
      },
      "createStore(bytes32)": {
        "details": "Creates a new storefront.",
        "params": {
          "_name": "The name of the new storefront."
        },
        "return": "id The ID of the new storefront."
      },
      "getAdministrators()": {
        "details": "Get a list of all the administrators.",
        "return": "admins The array of all the administrators address."
      },
      "getOwnerStorefronts(address)": {
        "details": "Get a list of all the storefronts owned by a specific owner.",
        "params": {
          "_storefrontOwner": "The storefront owner ID."
        },
        "return": "(ids, names, balances) The arrays containing all the store IDs, names and balances."
      },
      "getStoreOwners()": {
        "details": "Get a list of all the store owners.",
        "return": "owners The array of all the store owners address."
      },
      "getStorefrontInventory(bytes32)": {
        "details": "Get the inventory for a specific Storefront.",
        "params": {
          "_storeId": "The storefront ID."
        },
        "return": "(itemIds, itemNames, itemQuantities, itemPrices) The Id, name, quantity and price for each Item."
      },
      "getStorefronts()": {
        "details": "Get all the created Storefronts.",
        "return": "(ids, names, owners) The Id, name and owner for each Storefront."
      },
      "isOwner()": {
        "return": "true if `msg.sender` is the owner of the contract."
      },
      "owner()": {
        "return": "the address of the owner."
      },
      "pause()": {
        "details": "called by the owner to pause, triggers stopped state"
      },
      "paused()": {
        "return": "true if the contract is paused, false otherwise."
      },
      "purchaseItem(bytes32,bytes32,uint256)": {
        "details": "Allows a visitor to purchase an Item from a Storefront.",
        "params": {
          "_itemId": "The item ID.",
          "_quantity": "The item quantity.",
          "_storeId": "The storefront ID."
        },
        "return": "true If transaction was successful."
      },
      "removeAdmin(address)": {
        "details": "Removes an administrator.",
        "params": {
          "_addr": "The address to remove."
        },
        "return": "true if removed successfully."
      },
      "removeItemFromInventory(bytes32,bytes32)": {
        "details": "Removes an Item from a Storefront inventory.",
        "params": {
          "_itemId": "The item ID we want to delete.",
          "_storeId": "The storefront ID we want to update the inventory from."
        },
        "return": "_itemId The deleted item ID."
      },
      "removeStore(bytes32)": {
        "details": "Removes a storefront. Also deletes its inventory, items and transfers balance fund to the owner if needed.",
        "params": {
          "_storeId": "The storefront ID."
        },
        "return": "_storeId The deleted storefront ID."
      },
      "removeStoreOwner(address)": {
        "details": "Removes a store owner.",
        "params": {
          "_addr": "The address to remove."
        },
        "return": "true if removed successfully."
      },
      "renounceOwnership()": {
        "details": "Allows the current owner to relinquish control of the contract."
      },
      "transferOwnership(address)": {
        "details": "Allows the current owner to transfer control of the contract to a newOwner.",
        "params": {
          "newOwner": "The address to transfer ownership to."
        }
      },
      "unpause()": {
        "details": "called by the owner to unpause, returns to normal state"
      },
      "updateItemPrice(bytes32,bytes32,uint256)": {
        "details": "Updates the price of an Item from a specicic Storefront.",
        "params": {
          "_itemId": "The item ID we want to update.",
          "_newPrice": "The new price we want to set the Item to.",
          "_storeId": "The storefront ID we want to update the inventory from."
        },
        "return": "_itemId The updated item ID."
      },
      "updateItemQuantity(bytes32,bytes32,uint256)": {
        "details": "Updates the quantity of an Item from a specicic Storefront.",
        "params": {
          "_itemId": "The item ID we want to update.",
          "_newQuantity": "The new quantity value we want to set the Item to.",
          "_storeId": "The storefront ID we want to update the inventory from."
        },
        "return": "_itemId The updated item ID."
      },
      "widthdrawStorefrontBalance(bytes32)": {
        "details": "Transfers a storefront balance to its owner.",
        "params": {
          "_storeId": "The storefront ID."
        },
        "return": "true If balance was sent successfully."
      }
    }
  },
  "userdoc": {
    "methods": {
      "kill()": {
        "notice": "Kill the contract"
      },
      "renounceOwnership()": {
        "notice": "Renouncing to ownership will leave the contract without an owner. It will not be possible to call the functions with the `onlyOwner` modifier anymore."
      }
    }
  }
}