{
  "contractName": "MarketPlace",
  "abi": [
    {
      "constant": true,
      "inputs": [
        {
          "name": "",
          "type": "address"
        }
      ],
      "name": "storeOwners",
      "outputs": [
        {
          "name": "",
          "type": "bool"
        }
      ],
      "payable": false,
      "stateMutability": "view",
      "type": "function"
    },
    {
      "constant": false,
      "inputs": [],
      "name": "unpause",
      "outputs": [],
      "payable": false,
      "stateMutability": "nonpayable",
      "type": "function"
    },
    {
      "constant": true,
      "inputs": [
        {
          "name": "account",
          "type": "address"
        }
      ],
      "name": "isPauser",
      "outputs": [
        {
          "name": "",
          "type": "bool"
        }
      ],
      "payable": false,
      "stateMutability": "view",
      "type": "function"
    },
    {
      "constant": true,
      "inputs": [
        {
          "name": "",
          "type": "address"
        },
        {
          "name": "",
          "type": "uint256"
        }
      ],
      "name": "storefrontsByOwner",
      "outputs": [
        {
          "name": "",
          "type": "bytes32"
        }
      ],
      "payable": false,
      "stateMutability": "view",
      "type": "function"
    },
    {
      "constant": true,
      "inputs": [],
      "name": "paused",
      "outputs": [
        {
          "name": "",
          "type": "bool"
        }
      ],
      "payable": false,
      "stateMutability": "view",
      "type": "function"
    },
    {
      "constant": false,
      "inputs": [],
      "name": "renouncePauser",
      "outputs": [],
      "payable": false,
      "stateMutability": "nonpayable",
      "type": "function"
    },
    {
      "constant": false,
      "inputs": [],
      "name": "renounceOwnership",
      "outputs": [],
      "payable": false,
      "stateMutability": "nonpayable",
      "type": "function"
    },
    {
      "constant": true,
      "inputs": [
        {
          "name": "",
          "type": "address"
        }
      ],
      "name": "administrators",
      "outputs": [
        {
          "name": "",
          "type": "bool"
        }
      ],
      "payable": false,
      "stateMutability": "view",
      "type": "function"
    },
    {
      "constant": false,
      "inputs": [
        {
          "name": "account",
          "type": "address"
        }
      ],
      "name": "addPauser",
      "outputs": [],
      "payable": false,
      "stateMutability": "nonpayable",
      "type": "function"
    },
    {
      "constant": false,
      "inputs": [],
      "name": "pause",
      "outputs": [],
      "payable": false,
      "stateMutability": "nonpayable",
      "type": "function"
    },
    {
      "constant": true,
      "inputs": [],
      "name": "owner",
      "outputs": [
        {
          "name": "",
          "type": "address"
        }
      ],
      "payable": false,
      "stateMutability": "view",
      "type": "function"
    },
    {
      "constant": true,
      "inputs": [],
      "name": "isOwner",
      "outputs": [
        {
          "name": "",
          "type": "bool"
        }
      ],
      "payable": false,
      "stateMutability": "view",
      "type": "function"
    },
    {
      "constant": true,
      "inputs": [
        {
          "name": "",
          "type": "bytes32"
        }
      ],
      "name": "storefrontsById",
      "outputs": [
        {
          "name": "id",
          "type": "bytes32"
        },
        {
          "name": "name",
          "type": "string"
        },
        {
          "name": "owner",
          "type": "address"
        },
        {
          "name": "balance",
          "type": "uint256"
        }
      ],
      "payable": false,
      "stateMutability": "view",
      "type": "function"
    },
    {
      "constant": false,
      "inputs": [],
      "name": "finish",
      "outputs": [],
      "payable": false,
      "stateMutability": "nonpayable",
      "type": "function"
    },
    {
      "constant": false,
      "inputs": [
        {
          "name": "newOwner",
          "type": "address"
        }
      ],
      "name": "transferOwnership",
      "outputs": [],
      "payable": false,
      "stateMutability": "nonpayable",
      "type": "function"
    },
    {
      "inputs": [],
      "payable": false,
      "stateMutability": "nonpayable",
      "type": "constructor"
    },
    {
      "anonymous": false,
      "inputs": [
        {
          "indexed": false,
          "name": "admin",
          "type": "address"
        }
      ],
      "name": "AdminAdded",
      "type": "event"
    },
    {
      "anonymous": false,
      "inputs": [
        {
          "indexed": false,
          "name": "admin",
          "type": "address"
        }
      ],
      "name": "AdminRemoved",
      "type": "event"
    },
    {
      "anonymous": false,
      "inputs": [
        {
          "indexed": false,
          "name": "storeOwner",
          "type": "address"
        }
      ],
      "name": "StoreOwnerAdded",
      "type": "event"
    },
    {
      "anonymous": false,
      "inputs": [
        {
          "indexed": false,
          "name": "storeOwner",
          "type": "address"
        }
      ],
      "name": "StoreOwnerRemoved",
      "type": "event"
    },
    {
      "anonymous": false,
      "inputs": [
        {
          "indexed": false,
          "name": "id",
          "type": "bytes32"
        },
        {
          "indexed": false,
          "name": "name",
          "type": "string"
        },
        {
          "indexed": false,
          "name": "owner",
          "type": "address"
        }
      ],
      "name": "StoreCreated",
      "type": "event"
    },
    {
      "anonymous": false,
      "inputs": [
        {
          "indexed": false,
          "name": "id",
          "type": "bytes32"
        }
      ],
      "name": "StoreRemoved",
      "type": "event"
    },
    {
      "anonymous": false,
      "inputs": [
        {
          "indexed": false,
          "name": "id",
          "type": "bytes32"
        },
        {
          "indexed": false,
          "name": "balance",
          "type": "uint256"
        }
      ],
      "name": "BalanceWithdrawn",
      "type": "event"
    },
    {
      "anonymous": false,
      "inputs": [
        {
          "indexed": false,
          "name": "id",
          "type": "bytes32"
        },
        {
          "indexed": false,
          "name": "name",
          "type": "string"
        },
        {
          "indexed": false,
          "name": "price",
          "type": "uint256"
        },
        {
          "indexed": false,
          "name": "qty",
          "type": "uint256"
        }
      ],
      "name": "ItemAdded",
      "type": "event"
    },
    {
      "anonymous": false,
      "inputs": [
        {
          "indexed": false,
          "name": "id",
          "type": "bytes32"
        }
      ],
      "name": "ItemRemoved",
      "type": "event"
    },
    {
      "anonymous": false,
      "inputs": [
        {
          "indexed": false,
          "name": "id",
          "type": "bytes32"
        },
        {
          "indexed": false,
          "name": "newPrice",
          "type": "uint256"
        },
        {
          "indexed": false,
          "name": "oldPrice",
          "type": "uint256"
        }
      ],
      "name": "ItemPriceUpdated",
      "type": "event"
    },
    {
      "anonymous": false,
      "inputs": [
        {
          "indexed": false,
          "name": "id",
          "type": "bytes32"
        },
        {
          "indexed": false,
          "name": "newQty",
          "type": "uint256"
        },
        {
          "indexed": false,
          "name": "oldQty",
          "type": "uint256"
        }
      ],
      "name": "ItemQuantityUpdated",
      "type": "event"
    },
    {
      "anonymous": false,
      "inputs": [
        {
          "indexed": false,
          "name": "storeId",
          "type": "bytes32"
        },
        {
          "indexed": false,
          "name": "itemId",
          "type": "bytes32"
        },
        {
          "indexed": false,
          "name": "qty",
          "type": "uint256"
        }
      ],
      "name": "ItemSold",
      "type": "event"
    },
    {
      "anonymous": false,
      "inputs": [
        {
          "indexed": false,
          "name": "account",
          "type": "address"
        }
      ],
      "name": "Paused",
      "type": "event"
    },
    {
      "anonymous": false,
      "inputs": [
        {
          "indexed": false,
          "name": "account",
          "type": "address"
        }
      ],
      "name": "Unpaused",
      "type": "event"
    },
    {
      "anonymous": false,
      "inputs": [
        {
          "indexed": true,
          "name": "previousOwner",
          "type": "address"
        },
        {
          "indexed": true,
          "name": "newOwner",
          "type": "address"
        }
      ],
      "name": "OwnershipTransferred",
      "type": "event"
    },
    {
      "anonymous": false,
      "inputs": [
        {
          "indexed": true,
          "name": "account",
          "type": "address"
        }
      ],
      "name": "PauserAdded",
      "type": "event"
    },
    {
      "anonymous": false,
      "inputs": [
        {
          "indexed": true,
          "name": "account",
          "type": "address"
        }
      ],
      "name": "PauserRemoved",
      "type": "event"
    },
    {
      "constant": false,
      "inputs": [
        {
          "name": "addr",
          "type": "address"
        }
      ],
      "name": "addAdmin",
      "outputs": [
        {
          "name": "",
          "type": "bool"
        }
      ],
      "payable": false,
      "stateMutability": "nonpayable",
      "type": "function"
    },
    {
      "constant": false,
      "inputs": [
        {
          "name": "addr",
          "type": "address"
        }
      ],
      "name": "removeAdmin",
      "outputs": [
        {
          "name": "",
          "type": "bool"
        }
      ],
      "payable": false,
      "stateMutability": "nonpayable",
      "type": "function"
    },
    {
      "constant": false,
      "inputs": [
        {
          "name": "addr",
          "type": "address"
        }
      ],
      "name": "addStoreOwner",
      "outputs": [
        {
          "name": "",
          "type": "bool"
        }
      ],
      "payable": false,
      "stateMutability": "nonpayable",
      "type": "function"
    },
    {
      "constant": false,
      "inputs": [
        {
          "name": "addr",
          "type": "address"
        }
      ],
      "name": "removeStoreOwner",
      "outputs": [
        {
          "name": "",
          "type": "bool"
        }
      ],
      "payable": false,
      "stateMutability": "nonpayable",
      "type": "function"
    },
    {
      "constant": false,
      "inputs": [
        {
          "name": "name",
          "type": "string"
        }
      ],
      "name": "createStore",
      "outputs": [
        {
          "name": "",
          "type": "bytes32"
        }
      ],
      "payable": false,
      "stateMutability": "nonpayable",
      "type": "function"
    },
    {
      "constant": false,
      "inputs": [
        {
          "name": "storeId",
          "type": "bytes32"
        }
      ],
      "name": "removeStore",
      "outputs": [
        {
          "name": "",
          "type": "bytes32"
        }
      ],
      "payable": false,
      "stateMutability": "nonpayable",
      "type": "function"
    },
    {
      "constant": false,
      "inputs": [
        {
          "name": "storeId",
          "type": "bytes32"
        },
        {
          "name": "itemName",
          "type": "string"
        },
        {
          "name": "itemPrice",
          "type": "uint256"
        },
        {
          "name": "itemQuantity",
          "type": "uint256"
        }
      ],
      "name": "addItemToInventory",
      "outputs": [
        {
          "name": "",
          "type": "bytes32"
        }
      ],
      "payable": false,
      "stateMutability": "nonpayable",
      "type": "function"
    },
    {
      "constant": false,
      "inputs": [
        {
          "name": "itemId",
          "type": "bytes32"
        },
        {
          "name": "storeId",
          "type": "bytes32"
        }
      ],
      "name": "removeItemFromInventory",
      "outputs": [
        {
          "name": "",
          "type": "bytes32"
        }
      ],
      "payable": false,
      "stateMutability": "nonpayable",
      "type": "function"
    },
    {
      "constant": false,
      "inputs": [
        {
          "name": "itemId",
          "type": "bytes32"
        },
        {
          "name": "storeId",
          "type": "bytes32"
        },
        {
          "name": "newPrice",
          "type": "uint256"
        }
      ],
      "name": "updateItemPrice",
      "outputs": [
        {
          "name": "",
          "type": "bytes32"
        }
      ],
      "payable": false,
      "stateMutability": "nonpayable",
      "type": "function"
    },
    {
      "constant": false,
      "inputs": [
        {
          "name": "itemId",
          "type": "bytes32"
        },
        {
          "name": "storeId",
          "type": "bytes32"
        },
        {
          "name": "newQty",
          "type": "uint256"
        }
      ],
      "name": "updateItemQuantity",
      "outputs": [
        {
          "name": "",
          "type": "bytes32"
        }
      ],
      "payable": false,
      "stateMutability": "nonpayable",
      "type": "function"
    },
    {
      "constant": false,
      "inputs": [
        {
          "name": "storeId",
          "type": "bytes32"
        },
        {
          "name": "itemId",
          "type": "bytes32"
        },
        {
          "name": "quantity",
          "type": "uint256"
        }
      ],
      "name": "purchaseItem",
      "outputs": [
        {
          "name": "",
          "type": "bool"
        }
      ],
      "payable": true,
      "stateMutability": "payable",
      "type": "function"
    },
    {
      "constant": true,
      "inputs": [
        {
          "name": "owner",
          "type": "address"
        }
      ],
      "name": "getStorefrontCountByOwner",
      "outputs": [
        {
          "name": "",
          "type": "uint256"
        }
      ],
      "payable": false,
      "stateMutability": "view",
      "type": "function"
    }
  ],
  "bytecode": "0x60806040523480156200001157600080fd5b506200002c3362000163640100000000026401000000009004565b33600160006101000a81548173ffffffffffffffffffffffffffffffffffffffff021916908373ffffffffffffffffffffffffffffffffffffffff160217905550600160009054906101000a900473ffffffffffffffffffffffffffffffffffffffff1673ffffffffffffffffffffffffffffffffffffffff16600073ffffffffffffffffffffffffffffffffffffffff167f8be0079c531659141344cd1fd0a4f28419497f9722a3daafe3b4186f6b6457e060405160405180910390a36000600160146101000a81548160ff0219169083151502179055506001600260003373ffffffffffffffffffffffffffffffffffffffff1673ffffffffffffffffffffffffffffffffffffffff16815260200190815260200160002060006101000a81548160ff02191690831515021790555062000325565b62000187816000620001cd6401000000000262002e42179091906401000000009004565b8073ffffffffffffffffffffffffffffffffffffffff167f6719d08c1888103bea251a4ed56406bd0c3e69723c8a1686e017e7bbe159b6f860405160405180910390a250565b600073ffffffffffffffffffffffffffffffffffffffff168173ffffffffffffffffffffffffffffffffffffffff16141515156200020a57600080fd5b62000225828262000290640100000000026401000000009004565b1515156200023257600080fd5b60018260000160008373ffffffffffffffffffffffffffffffffffffffff1673ffffffffffffffffffffffffffffffffffffffff16815260200190815260200160002060006101000a81548160ff0219169083151502179055505050565b60008073ffffffffffffffffffffffffffffffffffffffff168273ffffffffffffffffffffffffffffffffffffffff1614151515620002ce57600080fd5b8260000160008373ffffffffffffffffffffffffffffffffffffffff1673ffffffffffffffffffffffffffffffffffffffff16815260200190815260200160002060009054906101000a900460ff16905092915050565b6130f280620003356000396000f3fe6080604052600436106101b9576000357c010000000000000000000000000000000000000000000000000000000090048063715018a6116101095780638da5cb5b116100a75780639adeb5f1116100815780639adeb5f114610a21578063d0e04fe314610a8a578063d56b288914610b66578063f2fde38b14610b7d576101b9565b80638da5cb5b146108a65780638f32d59b146108fd5780639322737f1461092c576101b9565b80637c3b8430116100e35780637c3b843014610782578063800621d0146107db57806382dc1ec41461083e5780638456cb591461088f576101b9565b8063715018a6146106a8578063749008fe146106bf57806376be158514610719576101b9565b80634a6273cf1161017657806360cefa281161015057806360cefa28146105705780636174fdd1146105bf5780636ef8d66d14610628578063704802751461063f576101b9565b80634a6273cf1461046f57806359df58a3146104d25780635c975abb14610541576101b9565b8063057cc2a1146101be5780630ef433a8146102275780631785f53c1461028c57806327037bbe146102f55780633f4ba83a146103ef57806346fbf68e14610406575b600080fd5b3480156101ca57600080fd5b5061020d600480360360208110156101e157600080fd5b81019080803573ffffffffffffffffffffffffffffffffffffffff169060200190929190505050610bce565b604051808215151515815260200191505060405180910390f35b34801561023357600080fd5b506102766004803603602081101561024a57600080fd5b81019080803573ffffffffffffffffffffffffffffffffffffffff169060200190929190505050610bee565b6040518082815260200191505060405180910390f35b34801561029857600080fd5b506102db600480360360208110156102af57600080fd5b81019080803573ffffffffffffffffffffffffffffffffffffffff169060200190929190505050610c3a565b604051808215151515815260200191505060405180910390f35b34801561030157600080fd5b506103d96004803603608081101561031857600080fd5b81019080803590602001909291908035906020019064010000000081111561033f57600080fd5b82018360208201111561035157600080fd5b8035906020019184600183028401116401000000008311171561037357600080fd5b91908080601f016020809104026020016040519081016040528093929190818152602001838380828437600081840152601f19601f8201169050808301925050505050505091929192908035906020019092919080359060200190929190505050610dc8565b6040518082815260200191505060405180910390f35b3480156103fb57600080fd5b506104046110e4565b005b34801561041257600080fd5b506104556004803603602081101561042957600080fd5b81019080803573ffffffffffffffffffffffffffffffffffffffff169060200190929190505050611193565b604051808215151515815260200191505060405180910390f35b34801561047b57600080fd5b506104bc6004803603606081101561049257600080fd5b810190808035906020019092919080359060200190929190803590602001909291905050506111b0565b6040518082815260200191505060405180910390f35b3480156104de57600080fd5b5061052b600480360360408110156104f557600080fd5b81019080803573ffffffffffffffffffffffffffffffffffffffff16906020019092919080359060200190929190505050611315565b6040518082815260200191505060405180910390f35b34801561054d57600080fd5b50610556611345565b604051808215151515815260200191505060405180910390f35b34801561057c57600080fd5b506105a96004803603602081101561059357600080fd5b810190808035906020019092919050505061135c565b6040518082815260200191505060405180910390f35b3480156105cb57600080fd5b5061060e600480360360208110156105e257600080fd5b81019080803573ffffffffffffffffffffffffffffffffffffffff16906020019092919050505061189b565b604051808215151515815260200191505060405180910390f35b34801561063457600080fd5b5061063d611a29565b005b34801561064b57600080fd5b5061068e6004803603602081101561066257600080fd5b81019080803573ffffffffffffffffffffffffffffffffffffffff169060200190929190505050611a34565b604051808215151515815260200191505060405180910390f35b3480156106b457600080fd5b506106bd611bc2565b005b6106ff600480360360608110156106d557600080fd5b81019080803590602001909291908035906020019092919080359060200190929190505050611c96565b604051808215151515815260200191505060405180910390f35b34801561072557600080fd5b506107686004803603602081101561073c57600080fd5b81019080803573ffffffffffffffffffffffffffffffffffffffff169060200190929190505050611f4d565b604051808215151515815260200191505060405180910390f35b34801561078e57600080fd5b506107c5600480360360408110156107a557600080fd5b810190808035906020019092919080359060200190929190505050611f6d565b6040518082815260200191505060405180910390f35b3480156107e757600080fd5b50610828600480360360608110156107fe57600080fd5b810190808035906020019092919080359060200190929190803590602001909291905050506121c4565b6040518082815260200191505060405180910390f35b34801561084a57600080fd5b5061088d6004803603602081101561086157600080fd5b81019080803573ffffffffffffffffffffffffffffffffffffffff169060200190929190505050612329565b005b34801561089b57600080fd5b506108a4612349565b005b3480156108b257600080fd5b506108bb6123f8565b604051808273ffffffffffffffffffffffffffffffffffffffff1673ffffffffffffffffffffffffffffffffffffffff16815260200191505060405180910390f35b34801561090957600080fd5b50610912612422565b604051808215151515815260200191505060405180910390f35b34801561093857600080fd5b506109656004803603602081101561094f57600080fd5b810190808035906020019092919050505061247a565b60405180858152602001806020018473ffffffffffffffffffffffffffffffffffffffff1673ffffffffffffffffffffffffffffffffffffffff168152602001838152602001828103825285818151815260200191508051906020019080838360005b838110156109e35780820151818401526020810190506109c8565b50505050905090810190601f168015610a105780820380516001836020036101000a031916815260200191505b509550505050505060405180910390f35b348015610a2d57600080fd5b50610a7060048036036020811015610a4457600080fd5b81019080803573ffffffffffffffffffffffffffffffffffffffff169060200190929190505050612562565b604051808215151515815260200191505060405180910390f35b348015610a9657600080fd5b50610b5060048036036020811015610aad57600080fd5b8101908080359060200190640100000000811115610aca57600080fd5b820183602082011115610adc57600080fd5b80359060200191846001830284011164010000000083111715610afe57600080fd5b91908080601f016020809104026020016040519081016040528093929190818152602001838380828437600081840152601f19601f8201169050808301925050505050505091929192905050506126f0565b6040518082815260200191505060405180910390f35b348015610b7257600080fd5b50610b7b612ac6565b005b348015610b8957600080fd5b50610bcc60048036036020811015610ba057600080fd5b81019080803573ffffffffffffffffffffffffffffffffffffffff169060200190929190505050612af2565b005b60036020528060005260406000206000915054906101000a900460ff1681565b6000600560008373ffffffffffffffffffffffffffffffffffffffff1673ffffffffffffffffffffffffffffffffffffffff168152602001908152602001600020805490509050919050565b600060011515600260003373ffffffffffffffffffffffffffffffffffffffff1673ffffffffffffffffffffffffffffffffffffffff16815260200190815260200160002060009054906101000a900460ff161515141515610d04576040517f08c379a00000000000000000000000000000000000000000000000000000000081526004018080602001828103825260168152602001807f53656e646572206e6f7420617574686f72697a65642e0000000000000000000081525060200191505060405180910390fd5b6000600260008473ffffffffffffffffffffffffffffffffffffffff1673ffffffffffffffffffffffffffffffffffffffff16815260200190815260200160002060006101000a81548160ff0219169083151502179055507fa3b62bc36326052d97ea62d63c3d60308ed4c3ea8ac079dd8499f1e9c4f80c0f82604051808273ffffffffffffffffffffffffffffffffffffffff1673ffffffffffffffffffffffffffffffffffffffff16815260200191505060405180910390a160019050919050565b6000843373ffffffffffffffffffffffffffffffffffffffff166006600083815260200190815260200160002060020160009054906101000a900473ffffffffffffffffffffffffffffffffffffffff1673ffffffffffffffffffffffffffffffffffffffff16141515610ea4576040517f08c379a00000000000000000000000000000000000000000000000000000000081526004018080602001828103825260168152602001807f53656e646572206e6f7420617574686f72697a65642e0000000000000000000081525060200191505060405180910390fd5b6000338642604051602001808473ffffffffffffffffffffffffffffffffffffffff1673ffffffffffffffffffffffffffffffffffffffff166c0100000000000000000000000002815260140183805190602001908083835b602083101515610f225780518252602082019150602081019050602083039250610efd565b6001836020036101000a0380198251168184511680821785525050505050509050018281526020019350505050604051602081830303815290604052805190602001209050610f6f612ef2565b6080604051908101604052808381526020018881526020018781526020018681525090508060086000848152602001908152602001600020600082015181600001556020820151816001019080519060200190610fcd929190612f1e565b506040820151816002015560608201518160030155905050600760008981526020019081526020016000208290806001815401808255809150509060018203906000526020600020016000909192909190915055507f6ae11f467b4581b9e68683f3705423a83e5cb28b6f2a23961edd05c2e226d784828888886040518085815260200180602001848152602001838152602001828103825285818151815260200191508051906020019080838360005b8381101561109957808201518184015260208101905061107e565b50505050905090810190601f1680156110c65780820380516001836020036101000a031916815260200191505b509550505050505060405180910390a1819350505050949350505050565b6110ed33611193565b15156110f857600080fd5b600160149054906101000a900460ff16151561111357600080fd5b6000600160146101000a81548160ff0219169083151502179055507f5db9ee0a495bf2e6ff9c91a7834c1ba4fdd244a5e8aa4e537bd38aeae4b073aa33604051808273ffffffffffffffffffffffffffffffffffffffff1673ffffffffffffffffffffffffffffffffffffffff16815260200191505060405180910390a1565b60006111a9826000612b1190919063ffffffff16565b9050919050565b6000823373ffffffffffffffffffffffffffffffffffffffff166006600083815260200190815260200160002060020160009054906101000a900473ffffffffffffffffffffffffffffffffffffffff1673ffffffffffffffffffffffffffffffffffffffff1614151561128c576040517f08c379a00000000000000000000000000000000000000000000000000000000081526004018080602001828103825260168152602001807f53656e646572206e6f7420617574686f72697a65642e0000000000000000000081525060200191505060405180910390fd5b6000600860008781526020019081526020016000206002015490508360086000888152602001908152602001600020600201819055507f55cc09d00de6540ba059952c93ab171a4c3da4c89b729ea5de19b8cc863c211786858360405180848152602001838152602001828152602001935050505060405180910390a185925050509392505050565b60056020528160005260406000208181548110151561133057fe5b90600052602060002001600091509150505481565b6000600160149054906101000a900460ff16905090565b6000813373ffffffffffffffffffffffffffffffffffffffff166006600083815260200190815260200160002060020160009054906101000a900473ffffffffffffffffffffffffffffffffffffffff1673ffffffffffffffffffffffffffffffffffffffff16141515611438576040517f08c379a00000000000000000000000000000000000000000000000000000000081526004018080602001828103825260168152602001807f53656e646572206e6f7420617574686f72697a65642e0000000000000000000081525060200191505060405180910390fd5b60008090505b60076000858152602001908152602001600020805490508110156114d7576000600760008681526020019081526020016000208281548110151561147e57fe5b90600052602060002001549050600860008281526020019081526020016000206000808201600090556001820160006114b79190612f9e565b60028201600090556003820160009055505050808060010191505061143e565b506007600084815260200190815260200160002060006114f79190612fe6565b6000600560003373ffffffffffffffffffffffffffffffffffffffff1673ffffffffffffffffffffffffffffffffffffffff16815260200190815260200160002080549050905060008090505b818110156116cd5784600560003373ffffffffffffffffffffffffffffffffffffffff1673ffffffffffffffffffffffffffffffffffffffff1681526020019081526020016000208281548110151561159957fe5b906000526020600020015414156116c057600560003373ffffffffffffffffffffffffffffffffffffffff1673ffffffffffffffffffffffffffffffffffffffff168152602001908152602001600020600183038154811015156115f957fe5b9060005260206000200154600560003373ffffffffffffffffffffffffffffffffffffffff1673ffffffffffffffffffffffffffffffffffffffff1681526020019081526020016000208281548110151561165057fe5b9060005260206000200181905550600560003373ffffffffffffffffffffffffffffffffffffffff1673ffffffffffffffffffffffffffffffffffffffff168152602001908152602001600020600183038154811015156116ad57fe5b90600052602060002001600090556116cd565b8080600101915050611544565b50600480549050905060008090505b8181101561173457846004828154811015156116f457fe5b906000526020600020015414156117275760048181548110151561171457fe5b9060005260206000200160009055611734565b80806001019150506116dc565b5060006006600086815260200190815260200160002060030154905060008111156117fc573373ffffffffffffffffffffffffffffffffffffffff166108fc829081150290604051600060405180830381858888f1935050505015801561179f573d6000803e3d6000fd5b50600060066000878152602001908152602001600020600301819055507fb7576a710fcc891d13513585bab7cd7b441b1f0aeb4ded4d5052fb7b27301efc8582604051808381526020018281526020019250505060405180910390a15b600660008681526020019081526020016000206000808201600090556001820160006118289190612f9e565b6002820160006101000a81549073ffffffffffffffffffffffffffffffffffffffff0219169055600382016000905550507f42b0d75ecaefba5bc0e1e6f2b225eb31d0fa0fd09119d3b850cada0841bc1d02856040518082815260200191505060405180910390a1849350505050919050565b600060011515600260003373ffffffffffffffffffffffffffffffffffffffff1673ffffffffffffffffffffffffffffffffffffffff16815260200190815260200160002060009054906101000a900460ff161515141515611965576040517f08c379a00000000000000000000000000000000000000000000000000000000081526004018080602001828103825260168152602001807f53656e646572206e6f7420617574686f72697a65642e0000000000000000000081525060200191505060405180910390fd5b6000600360008473ffffffffffffffffffffffffffffffffffffffff1673ffffffffffffffffffffffffffffffffffffffff16815260200190815260200160002060006101000a81548160ff0219169083151502179055507fee8258b57c171df72836d554f2addcb97a3be3652a6f9f58a431063096c0b84082604051808273ffffffffffffffffffffffffffffffffffffffff1673ffffffffffffffffffffffffffffffffffffffff16815260200191505060405180910390a160019050919050565b611a3233612ba5565b565b600060011515600260003373ffffffffffffffffffffffffffffffffffffffff1673ffffffffffffffffffffffffffffffffffffffff16815260200190815260200160002060009054906101000a900460ff161515141515611afe576040517f08c379a00000000000000000000000000000000000000000000000000000000081526004018080602001828103825260168152602001807f53656e646572206e6f7420617574686f72697a65642e0000000000000000000081525060200191505060405180910390fd5b6001600260008473ffffffffffffffffffffffffffffffffffffffff1673ffffffffffffffffffffffffffffffffffffffff16815260200190815260200160002060006101000a81548160ff0219169083151502179055507f44d6d25963f097ad14f29f06854a01f575648a1ef82f30e562ccd3889717e33982604051808273ffffffffffffffffffffffffffffffffffffffff1673ffffffffffffffffffffffffffffffffffffffff16815260200191505060405180910390a160019050919050565b611bca612422565b1515611bd557600080fd5b600073ffffffffffffffffffffffffffffffffffffffff16600160009054906101000a900473ffffffffffffffffffffffffffffffffffffffff1673ffffffffffffffffffffffffffffffffffffffff167f8be0079c531659141344cd1fd0a4f28419497f9722a3daafe3b4186f6b6457e060405160405180910390a36000600160006101000a81548173ffffffffffffffffffffffffffffffffffffffff021916908373ffffffffffffffffffffffffffffffffffffffff160217905550565b6000611ca0612ef2565b600860008581526020019081526020016000206080604051908101604052908160008201548152602001600182018054600181600116156101000203166002900480601f016020809104026020016040519081016040528092919081815260200182805460018160011615610100020316600290048015611d625780601f10611d3757610100808354040283529160200191611d62565b820191906000526020600020905b815481529060010190602001808311611d4557829003601f168201915b505050505081526020016002820154815260200160038201548152505090506000611d9a848360400151612bff90919063ffffffff16565b9050803410151515611df7576040517f08c379a00000000000000000000000000000000000000000000000000000000081526004018080602001828103825260338152602001806130946033913960400191505060405180910390fd5b83826060015110151515611e73576040517f08c379a000000000000000000000000000000000000000000000000000000000815260040180806020018281038252601b8152602001807f4974656d207175616e74697479206973206e6f7420656e6f756768000000000081525060200191505060405180910390fd5b80341115611ec5573373ffffffffffffffffffffffffffffffffffffffff166108fc8234039081150290604051600060405180830381858888f19350505050158015611ec3573d6000803e3d6000fd5b505b838260600181815103915081815250508060066000888152602001908152602001600020600301600082825401925050819055507fe4f85790bdbeca4aead06b7b55450d99ad2693940f65f816d24044a72db6b6bb86868660405180848152602001838152602001828152602001935050505060405180910390a16001925050509392505050565b60026020528060005260406000206000915054906101000a900460ff1681565b6000813373ffffffffffffffffffffffffffffffffffffffff166006600083815260200190815260200160002060020160009054906101000a900473ffffffffffffffffffffffffffffffffffffffff1673ffffffffffffffffffffffffffffffffffffffff16141515612049576040517f08c379a00000000000000000000000000000000000000000000000000000000081526004018080602001828103825260168152602001807f53656e646572206e6f7420617574686f72697a65642e0000000000000000000081525060200191505060405180910390fd5b60006007600085815260200190815260200160002080549050905060008090505b818110156121435784600760008781526020019081526020016000208281548110151561209357fe5b906000526020600020015414156121365760076000868152602001908152602001600020600183038154811015156120c757fe5b906000526020600020015460076000878152602001908152602001600020828154811015156120f257fe5b9060005260206000200181905550600760008681526020019081526020016000206001830381548110151561212357fe5b9060005260206000200160009055612143565b808060010191505061206a565b50600860008681526020019081526020016000206000808201600090556001820160006121709190612f9e565b6002820160009055600382016000905550507f4d14690cbd42eab82cd15ad666b9b98197ade97acdd17512bdec0497b591de48856040518082815260200191505060405180910390a1849250505092915050565b6000823373ffffffffffffffffffffffffffffffffffffffff166006600083815260200190815260200160002060020160009054906101000a900473ffffffffffffffffffffffffffffffffffffffff1673ffffffffffffffffffffffffffffffffffffffff161415156122a0576040517f08c379a00000000000000000000000000000000000000000000000000000000081526004018080602001828103825260168152602001807f53656e646572206e6f7420617574686f72697a65642e0000000000000000000081525060200191505060405180910390fd5b6000600860008781526020019081526020016000206003015490508360086000888152602001908152602001600020600301819055507f73b275e7ead5ed73869fb9794c1cb9cf330f3f1461360e2c79798d00d946f4b986858360405180848152602001838152602001828152602001935050505060405180910390a185925050509392505050565b61233233611193565b151561233d57600080fd5b61234681612c3d565b50565b61235233611193565b151561235d57600080fd5b600160149054906101000a900460ff1615151561237957600080fd5b60018060146101000a81548160ff0219169083151502179055507f62e78cea01bee320cd4e420270b5ea74000d11b0c9f74754ebdbfc544b05a25833604051808273ffffffffffffffffffffffffffffffffffffffff1673ffffffffffffffffffffffffffffffffffffffff16815260200191505060405180910390a1565b6000600160009054906101000a900473ffffffffffffffffffffffffffffffffffffffff16905090565b6000600160009054906101000a900473ffffffffffffffffffffffffffffffffffffffff1673ffffffffffffffffffffffffffffffffffffffff163373ffffffffffffffffffffffffffffffffffffffff1614905090565b6006602052806000526040600020600091509050806000015490806001018054600181600116156101000203166002900480601f01602080910402602001604051908101604052809291908181526020018280546001816001161561010002031660029004801561252c5780601f106125015761010080835404028352916020019161252c565b820191906000526020600020905b81548152906001019060200180831161250f57829003601f168201915b5050505050908060020160009054906101000a900473ffffffffffffffffffffffffffffffffffffffff16908060030154905084565b600060011515600260003373ffffffffffffffffffffffffffffffffffffffff1673ffffffffffffffffffffffffffffffffffffffff16815260200190815260200160002060009054906101000a900460ff16151514151561262c576040517f08c379a00000000000000000000000000000000000000000000000000000000081526004018080602001828103825260168152602001807f53656e646572206e6f7420617574686f72697a65642e0000000000000000000081525060200191505060405180910390fd5b6001600360008473ffffffffffffffffffffffffffffffffffffffff1673ffffffffffffffffffffffffffffffffffffffff16815260200190815260200160002060006101000a81548160ff0219169083151502179055507fe095b54135d91dfdb849d8f2a1232ed69da67f78cfd33a34a834084d8d037e9a82604051808273ffffffffffffffffffffffffffffffffffffffff1673ffffffffffffffffffffffffffffffffffffffff16815260200191505060405180910390a160019050919050565b600060011515600360003373ffffffffffffffffffffffffffffffffffffffff1673ffffffffffffffffffffffffffffffffffffffff16815260200190815260200160002060009054906101000a900460ff1615151415156127ba576040517f08c379a00000000000000000000000000000000000000000000000000000000081526004018080602001828103825260168152602001807f53656e646572206e6f7420617574686f72697a65642e0000000000000000000081525060200191505060405180910390fd5b6000338342604051602001808473ffffffffffffffffffffffffffffffffffffffff1673ffffffffffffffffffffffffffffffffffffffff166c0100000000000000000000000002815260140183805190602001908083835b6020831015156128385780518252602082019150602081019050602083039250612813565b6001836020036101000a0380198251168184511680821785525050505050509050018281526020019350505050604051602081830303815290604052805190602001209050612885613007565b6080604051908101604052808381526020018581526020013373ffffffffffffffffffffffffffffffffffffffff168152602001600081525090506004829080600181540180825580915050906001820390600052602060002001600090919290919091505550600560003373ffffffffffffffffffffffffffffffffffffffff1673ffffffffffffffffffffffffffffffffffffffff168152602001908152602001600020829080600181540180825580915050906001820390600052602060002001600090919290919091505550806006600084815260200190815260200160002060008201518160000155602082015181600101908051906020019061298f929190612f1e565b5060408201518160020160006101000a81548173ffffffffffffffffffffffffffffffffffffffff021916908373ffffffffffffffffffffffffffffffffffffffff160217905550606082015181600301559050507fa250710eee6e35349d5c2ce9553447d29e8c7b14bf08f8d2fbb57fdf7e61548d82853360405180848152602001806020018373ffffffffffffffffffffffffffffffffffffffff1673ffffffffffffffffffffffffffffffffffffffff168152602001828103825284818151815260200191508051906020019080838360005b83811015612a80578082015181840152602081019050612a65565b50505050905090810190601f168015612aad5780820380516001836020036101000a031916815260200191505b5094505050505060405180910390a18192505050919050565b612ace612422565b1515612ad957600080fd5b3373ffffffffffffffffffffffffffffffffffffffff16ff5b612afa612422565b1515612b0557600080fd5b612b0e81612c97565b50565b60008073ffffffffffffffffffffffffffffffffffffffff168273ffffffffffffffffffffffffffffffffffffffff1614151515612b4e57600080fd5b8260000160008373ffffffffffffffffffffffffffffffffffffffff1673ffffffffffffffffffffffffffffffffffffffff16815260200190815260200160002060009054906101000a900460ff16905092915050565b612bb9816000612d9390919063ffffffff16565b8073ffffffffffffffffffffffffffffffffffffffff167fcd265ebaf09df2871cc7bd4133404a235ba12eff2041bb89d9c714a2621c7c7e60405160405180910390a250565b600080831415612c125760009050612c37565b60008284029050828482811515612c2557fe5b04141515612c3257600080fd5b809150505b92915050565b612c51816000612e4290919063ffffffff16565b8073ffffffffffffffffffffffffffffffffffffffff167f6719d08c1888103bea251a4ed56406bd0c3e69723c8a1686e017e7bbe159b6f860405160405180910390a250565b600073ffffffffffffffffffffffffffffffffffffffff168173ffffffffffffffffffffffffffffffffffffffff1614151515612cd357600080fd5b8073ffffffffffffffffffffffffffffffffffffffff16600160009054906101000a900473ffffffffffffffffffffffffffffffffffffffff1673ffffffffffffffffffffffffffffffffffffffff167f8be0079c531659141344cd1fd0a4f28419497f9722a3daafe3b4186f6b6457e060405160405180910390a380600160006101000a81548173ffffffffffffffffffffffffffffffffffffffff021916908373ffffffffffffffffffffffffffffffffffffffff16021790555050565b600073ffffffffffffffffffffffffffffffffffffffff168173ffffffffffffffffffffffffffffffffffffffff1614151515612dcf57600080fd5b612dd98282612b11565b1515612de457600080fd5b60008260000160008373ffffffffffffffffffffffffffffffffffffffff1673ffffffffffffffffffffffffffffffffffffffff16815260200190815260200160002060006101000a81548160ff0219169083151502179055505050565b600073ffffffffffffffffffffffffffffffffffffffff168173ffffffffffffffffffffffffffffffffffffffff1614151515612e7e57600080fd5b612e888282612b11565b151515612e9457600080fd5b60018260000160008373ffffffffffffffffffffffffffffffffffffffff1673ffffffffffffffffffffffffffffffffffffffff16815260200190815260200160002060006101000a81548160ff0219169083151502179055505050565b608060405190810160405280600080191681526020016060815260200160008152602001600081525090565b828054600181600116156101000203166002900490600052602060002090601f016020900481019282601f10612f5f57805160ff1916838001178555612f8d565b82800160010185558215612f8d579182015b82811115612f8c578251825591602001919060010190612f71565b5b509050612f9a9190613049565b5090565b50805460018160011615610100020316600290046000825580601f10612fc45750612fe3565b601f016020900490600052602060002090810190612fe29190613049565b5b50565b5080546000825590600052602060002090810190613004919061306e565b50565b6080604051908101604052806000801916815260200160608152602001600073ffffffffffffffffffffffffffffffffffffffff168152602001600081525090565b61306b91905b8082111561306757600081600090555060010161304f565b5090565b90565b61309091905b8082111561308c576000816000905550600101613074565b5090565b9056fe6d73672e76616c7565206d7573742062652067726561746572206f7220657175616c207468616e20746f74616c207072696365a165627a7a7230582038b286fc1dd82956e8544446dfb7a9622d43a0d1630ff625e24c916258b198ec0029",
  "source": "pragma solidity ^0.5.0;\n\nimport \"openzeppelin-solidity/contracts/ownership/Ownable.sol\";\nimport \"openzeppelin-solidity/contracts/lifecycle/Pausable.sol\";\nimport \"openzeppelin-solidity/contracts/math/SafeMath.sol\";\nimport \"./Mortal.sol\";\n\ncontract MarketPlace is Ownable, Pausable, Mortal {\n\n    using SafeMath for uint256;\n    mapping (address => bool) public administrators;\n    mapping (address => bool) public storeOwners;\n\n    bytes32[] private storefronts;\n    mapping (address => bytes32[]) public storefrontsByOwner;\n    mapping (bytes32 => Storefront) public storefrontsById;\n    mapping(bytes32 => bytes32[]) private inventoryByStorefrontId;\n    mapping(bytes32 => Item) private itemById;\n\n    struct Storefront {\n        bytes32 id;\n        string name;\n        address owner;\n        uint balance;\n    }\n\n    struct Item {\n        bytes32 id;\n        string name;\n        uint price;\n        uint quantity;\n    }\n\n    event AdminAdded(address admin);\n    event AdminRemoved(address admin);\n    event StoreOwnerAdded(address storeOwner);\n    event StoreOwnerRemoved(address storeOwner);\n    event StoreCreated(bytes32 id, string name, address owner);\n    event StoreRemoved(bytes32 id);\n    event BalanceWithdrawn(bytes32 id, uint balance);\n    event ItemAdded(bytes32 id, string name, uint price, uint qty);\n    event ItemRemoved(bytes32 id);\n    event ItemPriceUpdated(bytes32 id, uint newPrice, uint oldPrice);\n    event ItemQuantityUpdated(bytes32 id, uint newQty, uint oldQty);\n    event ItemSold(bytes32 storeId, bytes32 itemId, uint qty);\n\n    modifier onlyAdmin() {require(administrators[msg.sender] == true, \"Sender not authorized.\"); _;}\n    modifier onlyStoreOwner() {require(storeOwners[msg.sender] == true, \"Sender not authorized.\"); _;}\n    modifier onlyStorefrontOwner(bytes32 id) {require(storefrontsById[id].owner == msg.sender, \"Sender not authorized.\"); _;}\n\n    constructor() public {\n        administrators[msg.sender] = true;\n    }\n\n    function addAdmin(address addr)\n    public\n    onlyAdmin()\n    returns(bool) {\n        administrators[addr] = true;\n        emit AdminAdded(addr);\n        return true;\n    }\n\n    function removeAdmin(address addr)\n    public\n    onlyAdmin()\n    returns(bool) {\n        administrators[addr] = false;\n        emit AdminRemoved(addr);\n        return true;\n    }\n\n    function addStoreOwner(address addr)\n    public\n    onlyAdmin()\n    returns(bool) {\n        storeOwners[addr] = true;\n        emit StoreOwnerAdded(addr);\n        return true;\n    }\n\n    function removeStoreOwner(address addr)\n    public\n    onlyAdmin()\n    returns(bool) {\n        storeOwners[addr] = false;\n        emit StoreOwnerRemoved(addr);\n        return true;\n    }\n\n    function createStore(string memory name)\n    public\n    onlyStoreOwner()\n    returns(bytes32) {\n        bytes32 id = keccak256(abi.encodePacked(msg.sender, name, now));\n        Storefront memory s = Storefront(id, name, msg.sender, 0);\n        storefronts.push(id);\n        storefrontsByOwner[msg.sender].push(id);\n        storefrontsById[id] = s;\n        emit StoreCreated(id, name, msg.sender);\n        return id;\n    }\n\n    function removeStore(bytes32 storeId)\n    public\n    onlyStorefrontOwner(storeId)\n    returns(bytes32) {\n\n        // Delete all the items from the store inventory\n        for (uint i = 0; i < inventoryByStorefrontId[storeId].length; i++) {\n            bytes32 itemId = inventoryByStorefrontId[storeId][i];\n            delete itemById[itemId];\n        }\n\n        // Delete the store inventory\n        delete inventoryByStorefrontId[storeId];\n\n        // Remove from storefrontsByOwner mapping\n        uint storefrontCount = storefrontsByOwner[msg.sender].length;\n        for(uint i = 0; i < storefrontCount; i++) {\n            if (storefrontsByOwner[msg.sender][i] == storeId) {\n                storefrontsByOwner[msg.sender][i] = storefrontsByOwner[msg.sender][storefrontCount-1];\n                delete storefrontsByOwner[msg.sender][storefrontCount-1];\n                break;\n            }\n        }\n\n        // Remove from storefronts array\n        storefrontCount = storefronts.length;\n        for(uint i = 0; i < storefrontCount; i++) {\n            if (storefronts[i] == storeId) {\n                delete storefronts[i];\n                break;\n            }\n        }\n\n        // Withdraw Balance\n        uint storefrontBalance = storefrontsById[storeId].balance;\n        if (storefrontBalance > 0) {\n            msg.sender.transfer(storefrontBalance);\n            storefrontsById[storeId].balance = 0;\n            emit BalanceWithdrawn(storeId, storefrontBalance);\n        }\n\n        // Remove from storefrontsById\n        delete storefrontsById[storeId];\n        emit StoreRemoved(storeId);\n        return storeId;\n    }\n\n    function addItemToInventory(bytes32 storeId, string memory itemName, uint itemPrice, uint itemQuantity)\n    public\n    onlyStorefrontOwner(storeId)\n    returns(bytes32) {\n        bytes32 itemId = keccak256(abi.encodePacked(msg.sender, itemName, now));\n        Item memory i = Item(itemId, itemName, itemPrice, itemQuantity);\n        itemById[itemId] = i;\n        inventoryByStorefrontId[storeId].push(itemId);\n        emit ItemAdded(itemId, itemName, itemPrice, itemQuantity);\n        return itemId;\n    }\n\n    function removeItemFromInventory(bytes32 itemId, bytes32 storeId)\n    public\n    onlyStorefrontOwner(storeId)\n    returns(bytes32) {\n        // Remove the item from inventory mapping\n        uint itemCount = inventoryByStorefrontId[storeId].length;\n        for(uint i = 0; i < itemCount; i++) {\n            if (inventoryByStorefrontId[storeId][i] == storeId) {\n                inventoryByStorefrontId[storeId][i] = inventoryByStorefrontId[storeId][itemCount-1];\n                delete inventoryByStorefrontId[storeId][itemCount-1];\n                break;\n            }\n        }\n        //Remove item from items mapping\n        delete itemById[itemId];\n        emit ItemRemoved(itemId);\n        return itemId;\n    }\n\n    function updateItemPrice(bytes32 itemId, bytes32 storeId, uint newPrice)\n    public\n    onlyStorefrontOwner(storeId)\n    returns(bytes32) {\n        uint oldPrice = itemById[itemId].price;\n        itemById[itemId].price = newPrice;\n        emit ItemPriceUpdated(itemId, newPrice, oldPrice);\n        return itemId;\n    }\n\n    function updateItemQuantity(bytes32 itemId, bytes32 storeId, uint newQty)\n    public\n    onlyStorefrontOwner(storeId)\n    returns(bytes32) {\n        uint oldQty = itemById[itemId].quantity;\n        itemById[itemId].quantity = newQty;\n        emit ItemQuantityUpdated(itemId, newQty, oldQty);\n        return itemId;\n    }\n\n    function purchaseItem(bytes32 storeId, bytes32 itemId, uint quantity)\n    public\n    payable\n    returns(bool) {\n        Item memory item = itemById[itemId];\n        uint totalPrice = item.price.mul(quantity);\n        require(msg.value >= totalPrice, \"msg.value must be greater or equal than total price\");\n        require(item.quantity >= quantity, \"Item quantity is not enough\");\n\n        if (msg.value > totalPrice) {\n            msg.sender.transfer(msg.value - totalPrice);\n        }\n\n        item.quantity -= quantity;\n        storefrontsById[storeId].balance += totalPrice;\n        emit ItemSold(storeId, itemId, quantity);\n        return true;\n    }\n\n    function getStorefrontCountByOwner(address owner)\n\tpublic\n\tview\n    returns (uint) {\n        return storefrontsByOwner[owner].length;\n    }\n\n\n}\n",
  "sourcePath": "/Users/clementbalestrat/Workspace/final-project-clementbalestrat/contracts/MarketPlace.sol",
  "compiler": {
    "name": "solc",
    "version": "0.5.2+commit.1df8f40c.Emscripten.clang"
  },
  "schemaVersion": "3.0.1",
  "updatedAt": "2019-01-23T00:44:08.628Z",
  "devdoc": {
    "methods": {
      "isOwner()": {
        "return": "true if `msg.sender` is the owner of the contract."
      },
      "owner()": {
        "return": "the address of the owner."
      },
      "pause()": {
        "details": "called by the owner to pause, triggers stopped state"
      },
      "paused()": {
        "return": "true if the contract is paused, false otherwise."
      },
      "renounceOwnership()": {
        "details": "Allows the current owner to relinquish control of the contract."
      },
      "transferOwnership(address)": {
        "details": "Allows the current owner to transfer control of the contract to a newOwner.",
        "params": {
          "newOwner": "The address to transfer ownership to."
        }
      },
      "unpause()": {
        "details": "called by the owner to unpause, returns to normal state"
      }
    }
  },
  "userdoc": {
    "methods": {
      "finish()": {
        "notice": "Kill the contract"
      },
      "renounceOwnership()": {
        "notice": "Renouncing to ownership will leave the contract without an owner. It will not be possible to call the functions with the `onlyOwner` modifier anymore."
      }
    }
  }
}