{
  "contractName": "MarketPlace",
  "abi": [
    {
      "constant": false,
      "inputs": [],
      "name": "unpause",
      "outputs": [],
      "payable": false,
      "stateMutability": "nonpayable",
      "type": "function",
      "signature": "0x3f4ba83a"
    },
    {
      "constant": true,
      "inputs": [
        {
          "name": "",
          "type": "uint256"
        }
      ],
      "name": "storeOwners",
      "outputs": [
        {
          "name": "",
          "type": "address"
        }
      ],
      "payable": false,
      "stateMutability": "view",
      "type": "function",
      "signature": "0x44d50993"
    },
    {
      "constant": true,
      "inputs": [
        {
          "name": "account",
          "type": "address"
        }
      ],
      "name": "isPauser",
      "outputs": [
        {
          "name": "",
          "type": "bool"
        }
      ],
      "payable": false,
      "stateMutability": "view",
      "type": "function",
      "signature": "0x46fbf68e"
    },
    {
      "constant": true,
      "inputs": [
        {
          "name": "",
          "type": "address"
        },
        {
          "name": "",
          "type": "uint256"
        }
      ],
      "name": "storefrontsByOwner",
      "outputs": [
        {
          "name": "",
          "type": "bytes32"
        }
      ],
      "payable": false,
      "stateMutability": "view",
      "type": "function",
      "signature": "0x59df58a3"
    },
    {
      "constant": true,
      "inputs": [],
      "name": "paused",
      "outputs": [
        {
          "name": "",
          "type": "bool"
        }
      ],
      "payable": false,
      "stateMutability": "view",
      "type": "function",
      "signature": "0x5c975abb"
    },
    {
      "constant": false,
      "inputs": [],
      "name": "renouncePauser",
      "outputs": [],
      "payable": false,
      "stateMutability": "nonpayable",
      "type": "function",
      "signature": "0x6ef8d66d"
    },
    {
      "constant": false,
      "inputs": [],
      "name": "renounceOwnership",
      "outputs": [],
      "payable": false,
      "stateMutability": "nonpayable",
      "type": "function",
      "signature": "0x715018a6"
    },
    {
      "constant": false,
      "inputs": [
        {
          "name": "account",
          "type": "address"
        }
      ],
      "name": "addPauser",
      "outputs": [],
      "payable": false,
      "stateMutability": "nonpayable",
      "type": "function",
      "signature": "0x82dc1ec4"
    },
    {
      "constant": false,
      "inputs": [],
      "name": "pause",
      "outputs": [],
      "payable": false,
      "stateMutability": "nonpayable",
      "type": "function",
      "signature": "0x8456cb59"
    },
    {
      "constant": true,
      "inputs": [],
      "name": "owner",
      "outputs": [
        {
          "name": "",
          "type": "address"
        }
      ],
      "payable": false,
      "stateMutability": "view",
      "type": "function",
      "signature": "0x8da5cb5b"
    },
    {
      "constant": true,
      "inputs": [],
      "name": "isOwner",
      "outputs": [
        {
          "name": "",
          "type": "bool"
        }
      ],
      "payable": false,
      "stateMutability": "view",
      "type": "function",
      "signature": "0x8f32d59b"
    },
    {
      "constant": true,
      "inputs": [
        {
          "name": "",
          "type": "bytes32"
        }
      ],
      "name": "storefrontsById",
      "outputs": [
        {
          "name": "id",
          "type": "bytes32"
        },
        {
          "name": "name",
          "type": "string"
        },
        {
          "name": "owner",
          "type": "address"
        },
        {
          "name": "balance",
          "type": "uint256"
        }
      ],
      "payable": false,
      "stateMutability": "view",
      "type": "function",
      "signature": "0x9322737f"
    },
    {
      "constant": true,
      "inputs": [
        {
          "name": "",
          "type": "address"
        }
      ],
      "name": "storeOwnersByAddress",
      "outputs": [
        {
          "name": "",
          "type": "bool"
        }
      ],
      "payable": false,
      "stateMutability": "view",
      "type": "function",
      "signature": "0x94dc131e"
    },
    {
      "constant": false,
      "inputs": [
        {
          "name": "_proxy",
          "type": "address"
        }
      ],
      "name": "setProxy",
      "outputs": [],
      "payable": false,
      "stateMutability": "nonpayable",
      "type": "function",
      "signature": "0x97107d6d"
    },
    {
      "constant": false,
      "inputs": [
        {
          "name": "sender",
          "type": "address"
        }
      ],
      "name": "setMessageSender",
      "outputs": [],
      "payable": false,
      "stateMutability": "nonpayable",
      "type": "function",
      "signature": "0xbc67f832"
    },
    {
      "constant": true,
      "inputs": [
        {
          "name": "",
          "type": "address"
        }
      ],
      "name": "administratorsByAddress",
      "outputs": [
        {
          "name": "",
          "type": "bool"
        }
      ],
      "payable": false,
      "stateMutability": "view",
      "type": "function",
      "signature": "0xcd99f795"
    },
    {
      "constant": false,
      "inputs": [],
      "name": "finish",
      "outputs": [],
      "payable": false,
      "stateMutability": "nonpayable",
      "type": "function",
      "signature": "0xd56b2889"
    },
    {
      "constant": true,
      "inputs": [
        {
          "name": "",
          "type": "uint256"
        }
      ],
      "name": "administrators",
      "outputs": [
        {
          "name": "",
          "type": "address"
        }
      ],
      "payable": false,
      "stateMutability": "view",
      "type": "function",
      "signature": "0xd89d1510"
    },
    {
      "constant": true,
      "inputs": [],
      "name": "proxy",
      "outputs": [
        {
          "name": "",
          "type": "address"
        }
      ],
      "payable": false,
      "stateMutability": "view",
      "type": "function",
      "signature": "0xec556889"
    },
    {
      "constant": false,
      "inputs": [
        {
          "name": "newOwner",
          "type": "address"
        }
      ],
      "name": "transferOwnership",
      "outputs": [],
      "payable": false,
      "stateMutability": "nonpayable",
      "type": "function",
      "signature": "0xf2fde38b"
    },
    {
      "inputs": [
        {
          "name": "_proxy",
          "type": "address"
        }
      ],
      "payable": false,
      "stateMutability": "nonpayable",
      "type": "constructor",
      "signature": "constructor"
    },
    {
      "anonymous": false,
      "inputs": [
        {
          "indexed": false,
          "name": "admin",
          "type": "address"
        }
      ],
      "name": "AdminAdded",
      "type": "event",
      "signature": "0x44d6d25963f097ad14f29f06854a01f575648a1ef82f30e562ccd3889717e339"
    },
    {
      "anonymous": false,
      "inputs": [
        {
          "indexed": false,
          "name": "admin",
          "type": "address"
        }
      ],
      "name": "AdminRemoved",
      "type": "event",
      "signature": "0xa3b62bc36326052d97ea62d63c3d60308ed4c3ea8ac079dd8499f1e9c4f80c0f"
    },
    {
      "anonymous": false,
      "inputs": [
        {
          "indexed": false,
          "name": "storeOwner",
          "type": "address"
        }
      ],
      "name": "StoreOwnerAdded",
      "type": "event",
      "signature": "0xe095b54135d91dfdb849d8f2a1232ed69da67f78cfd33a34a834084d8d037e9a"
    },
    {
      "anonymous": false,
      "inputs": [
        {
          "indexed": false,
          "name": "storeOwner",
          "type": "address"
        }
      ],
      "name": "StoreOwnerRemoved",
      "type": "event",
      "signature": "0xee8258b57c171df72836d554f2addcb97a3be3652a6f9f58a431063096c0b840"
    },
    {
      "anonymous": false,
      "inputs": [
        {
          "indexed": false,
          "name": "id",
          "type": "bytes32"
        },
        {
          "indexed": false,
          "name": "name",
          "type": "string"
        },
        {
          "indexed": false,
          "name": "owner",
          "type": "address"
        }
      ],
      "name": "StoreCreated",
      "type": "event",
      "signature": "0xa250710eee6e35349d5c2ce9553447d29e8c7b14bf08f8d2fbb57fdf7e61548d"
    },
    {
      "anonymous": false,
      "inputs": [
        {
          "indexed": false,
          "name": "id",
          "type": "bytes32"
        }
      ],
      "name": "StoreRemoved",
      "type": "event",
      "signature": "0x42b0d75ecaefba5bc0e1e6f2b225eb31d0fa0fd09119d3b850cada0841bc1d02"
    },
    {
      "anonymous": false,
      "inputs": [
        {
          "indexed": false,
          "name": "id",
          "type": "bytes32"
        },
        {
          "indexed": false,
          "name": "balance",
          "type": "uint256"
        }
      ],
      "name": "BalanceWithdrawn",
      "type": "event",
      "signature": "0xb7576a710fcc891d13513585bab7cd7b441b1f0aeb4ded4d5052fb7b27301efc"
    },
    {
      "anonymous": false,
      "inputs": [
        {
          "indexed": false,
          "name": "id",
          "type": "bytes32"
        },
        {
          "indexed": false,
          "name": "name",
          "type": "string"
        },
        {
          "indexed": false,
          "name": "price",
          "type": "uint256"
        },
        {
          "indexed": false,
          "name": "qty",
          "type": "uint256"
        }
      ],
      "name": "ItemAdded",
      "type": "event",
      "signature": "0x6ae11f467b4581b9e68683f3705423a83e5cb28b6f2a23961edd05c2e226d784"
    },
    {
      "anonymous": false,
      "inputs": [
        {
          "indexed": false,
          "name": "id",
          "type": "bytes32"
        }
      ],
      "name": "ItemRemoved",
      "type": "event",
      "signature": "0x4d14690cbd42eab82cd15ad666b9b98197ade97acdd17512bdec0497b591de48"
    },
    {
      "anonymous": false,
      "inputs": [
        {
          "indexed": false,
          "name": "id",
          "type": "bytes32"
        },
        {
          "indexed": false,
          "name": "newPrice",
          "type": "uint256"
        },
        {
          "indexed": false,
          "name": "oldPrice",
          "type": "uint256"
        }
      ],
      "name": "ItemPriceUpdated",
      "type": "event",
      "signature": "0x55cc09d00de6540ba059952c93ab171a4c3da4c89b729ea5de19b8cc863c2117"
    },
    {
      "anonymous": false,
      "inputs": [
        {
          "indexed": false,
          "name": "id",
          "type": "bytes32"
        },
        {
          "indexed": false,
          "name": "newQty",
          "type": "uint256"
        },
        {
          "indexed": false,
          "name": "oldQty",
          "type": "uint256"
        }
      ],
      "name": "ItemQuantityUpdated",
      "type": "event",
      "signature": "0x73b275e7ead5ed73869fb9794c1cb9cf330f3f1461360e2c79798d00d946f4b9"
    },
    {
      "anonymous": false,
      "inputs": [
        {
          "indexed": false,
          "name": "storeId",
          "type": "bytes32"
        },
        {
          "indexed": false,
          "name": "itemId",
          "type": "bytes32"
        },
        {
          "indexed": false,
          "name": "qty",
          "type": "uint256"
        }
      ],
      "name": "ItemSold",
      "type": "event",
      "signature": "0xe4f85790bdbeca4aead06b7b55450d99ad2693940f65f816d24044a72db6b6bb"
    },
    {
      "anonymous": false,
      "inputs": [
        {
          "indexed": false,
          "name": "proxyAddress",
          "type": "address"
        }
      ],
      "name": "ProxyUpdated",
      "type": "event",
      "signature": "0xfc80377ca9c49cc11ae6982f390a42db976d5530af7c43889264b13fbbd7c57e"
    },
    {
      "anonymous": false,
      "inputs": [
        {
          "indexed": false,
          "name": "account",
          "type": "address"
        }
      ],
      "name": "Paused",
      "type": "event",
      "signature": "0x62e78cea01bee320cd4e420270b5ea74000d11b0c9f74754ebdbfc544b05a258"
    },
    {
      "anonymous": false,
      "inputs": [
        {
          "indexed": false,
          "name": "account",
          "type": "address"
        }
      ],
      "name": "Unpaused",
      "type": "event",
      "signature": "0x5db9ee0a495bf2e6ff9c91a7834c1ba4fdd244a5e8aa4e537bd38aeae4b073aa"
    },
    {
      "anonymous": false,
      "inputs": [
        {
          "indexed": true,
          "name": "previousOwner",
          "type": "address"
        },
        {
          "indexed": true,
          "name": "newOwner",
          "type": "address"
        }
      ],
      "name": "OwnershipTransferred",
      "type": "event",
      "signature": "0x8be0079c531659141344cd1fd0a4f28419497f9722a3daafe3b4186f6b6457e0"
    },
    {
      "anonymous": false,
      "inputs": [
        {
          "indexed": true,
          "name": "account",
          "type": "address"
        }
      ],
      "name": "PauserAdded",
      "type": "event",
      "signature": "0x6719d08c1888103bea251a4ed56406bd0c3e69723c8a1686e017e7bbe159b6f8"
    },
    {
      "anonymous": false,
      "inputs": [
        {
          "indexed": true,
          "name": "account",
          "type": "address"
        }
      ],
      "name": "PauserRemoved",
      "type": "event",
      "signature": "0xcd265ebaf09df2871cc7bd4133404a235ba12eff2041bb89d9c714a2621c7c7e"
    },
    {
      "constant": false,
      "inputs": [
        {
          "name": "addr",
          "type": "address"
        }
      ],
      "name": "addAdmin",
      "outputs": [
        {
          "name": "",
          "type": "bool"
        }
      ],
      "payable": false,
      "stateMutability": "nonpayable",
      "type": "function",
      "signature": "0x70480275"
    },
    {
      "constant": false,
      "inputs": [
        {
          "name": "addr",
          "type": "address"
        }
      ],
      "name": "removeAdmin",
      "outputs": [
        {
          "name": "",
          "type": "bool"
        }
      ],
      "payable": false,
      "stateMutability": "nonpayable",
      "type": "function",
      "signature": "0x1785f53c"
    },
    {
      "constant": true,
      "inputs": [],
      "name": "getAdministrators",
      "outputs": [
        {
          "name": "",
          "type": "address[]"
        }
      ],
      "payable": false,
      "stateMutability": "view",
      "type": "function",
      "signature": "0x543b3693"
    },
    {
      "constant": false,
      "inputs": [
        {
          "name": "addr",
          "type": "address"
        }
      ],
      "name": "addStoreOwner",
      "outputs": [
        {
          "name": "",
          "type": "bool"
        }
      ],
      "payable": false,
      "stateMutability": "nonpayable",
      "type": "function",
      "signature": "0x9adeb5f1"
    },
    {
      "constant": false,
      "inputs": [
        {
          "name": "addr",
          "type": "address"
        }
      ],
      "name": "removeStoreOwner",
      "outputs": [
        {
          "name": "",
          "type": "bool"
        }
      ],
      "payable": false,
      "stateMutability": "nonpayable",
      "type": "function",
      "signature": "0x6174fdd1"
    },
    {
      "constant": true,
      "inputs": [],
      "name": "getStoreOwners",
      "outputs": [
        {
          "name": "",
          "type": "address[]"
        }
      ],
      "payable": false,
      "stateMutability": "view",
      "type": "function",
      "signature": "0x91f4245a"
    },
    {
      "constant": false,
      "inputs": [
        {
          "name": "name",
          "type": "string"
        }
      ],
      "name": "createStore",
      "outputs": [
        {
          "name": "",
          "type": "bytes32"
        }
      ],
      "payable": false,
      "stateMutability": "nonpayable",
      "type": "function",
      "signature": "0xd0e04fe3"
    },
    {
      "constant": false,
      "inputs": [
        {
          "name": "storeId",
          "type": "bytes32"
        }
      ],
      "name": "removeStore",
      "outputs": [
        {
          "name": "",
          "type": "bytes32"
        }
      ],
      "payable": false,
      "stateMutability": "nonpayable",
      "type": "function",
      "signature": "0x60cefa28"
    },
    {
      "constant": false,
      "inputs": [
        {
          "name": "storeId",
          "type": "bytes32"
        },
        {
          "name": "itemName",
          "type": "string"
        },
        {
          "name": "itemPrice",
          "type": "uint256"
        },
        {
          "name": "itemQuantity",
          "type": "uint256"
        }
      ],
      "name": "addItemToInventory",
      "outputs": [
        {
          "name": "",
          "type": "bytes32"
        }
      ],
      "payable": false,
      "stateMutability": "nonpayable",
      "type": "function",
      "signature": "0x27037bbe"
    },
    {
      "constant": false,
      "inputs": [
        {
          "name": "itemId",
          "type": "bytes32"
        },
        {
          "name": "storeId",
          "type": "bytes32"
        }
      ],
      "name": "removeItemFromInventory",
      "outputs": [
        {
          "name": "",
          "type": "bytes32"
        }
      ],
      "payable": false,
      "stateMutability": "nonpayable",
      "type": "function",
      "signature": "0x7c3b8430"
    },
    {
      "constant": false,
      "inputs": [
        {
          "name": "itemId",
          "type": "bytes32"
        },
        {
          "name": "storeId",
          "type": "bytes32"
        },
        {
          "name": "newPrice",
          "type": "uint256"
        }
      ],
      "name": "updateItemPrice",
      "outputs": [
        {
          "name": "",
          "type": "bytes32"
        }
      ],
      "payable": false,
      "stateMutability": "nonpayable",
      "type": "function",
      "signature": "0x4a6273cf"
    },
    {
      "constant": false,
      "inputs": [
        {
          "name": "itemId",
          "type": "bytes32"
        },
        {
          "name": "storeId",
          "type": "bytes32"
        },
        {
          "name": "newQty",
          "type": "uint256"
        }
      ],
      "name": "updateItemQuantity",
      "outputs": [
        {
          "name": "",
          "type": "bytes32"
        }
      ],
      "payable": false,
      "stateMutability": "nonpayable",
      "type": "function",
      "signature": "0x800621d0"
    },
    {
      "constant": false,
      "inputs": [
        {
          "name": "storeId",
          "type": "bytes32"
        }
      ],
      "name": "widthdrawStorefrontBalance",
      "outputs": [
        {
          "name": "",
          "type": "bool"
        }
      ],
      "payable": false,
      "stateMutability": "nonpayable",
      "type": "function",
      "signature": "0x4b199d4d"
    },
    {
      "constant": true,
      "inputs": [
        {
          "name": "owner",
          "type": "address"
        }
      ],
      "name": "getStorefrontCountByOwner",
      "outputs": [
        {
          "name": "",
          "type": "uint256"
        }
      ],
      "payable": false,
      "stateMutability": "view",
      "type": "function",
      "signature": "0x0ef433a8"
    },
    {
      "constant": false,
      "inputs": [
        {
          "name": "storeId",
          "type": "bytes32"
        },
        {
          "name": "itemId",
          "type": "bytes32"
        },
        {
          "name": "quantity",
          "type": "uint256"
        }
      ],
      "name": "purchaseItem",
      "outputs": [
        {
          "name": "",
          "type": "bool"
        }
      ],
      "payable": true,
      "stateMutability": "payable",
      "type": "function",
      "signature": "0x749008fe"
    }
  ],
  "bytecode": "0x60806040523480156200001157600080fd5b50604051602080620042cb833981018060405260208110156200003357600080fd5b8101908080519060200190929190505050806200005f33620002a2640100000000026401000000009004565b33600160006101000a81548173ffffffffffffffffffffffffffffffffffffffff021916908373ffffffffffffffffffffffffffffffffffffffff160217905550600160009054906101000a900473ffffffffffffffffffffffffffffffffffffffff1673ffffffffffffffffffffffffffffffffffffffff16600073ffffffffffffffffffffffffffffffffffffffff167f8be0079c531659141344cd1fd0a4f28419497f9722a3daafe3b4186f6b6457e060405160405180910390a36000600160146101000a81548160ff02191690831515021790555080600260006101000a81548173ffffffffffffffffffffffffffffffffffffffff021916908373ffffffffffffffffffffffffffffffffffffffff1602179055507ffc80377ca9c49cc11ae6982f390a42db976d5530af7c43889264b13fbbd7c57e81604051808273ffffffffffffffffffffffffffffffffffffffff1673ffffffffffffffffffffffffffffffffffffffff16815260200191505060405180910390a1506001600660003373ffffffffffffffffffffffffffffffffffffffff1673ffffffffffffffffffffffffffffffffffffffff16815260200190815260200160002060006101000a81548160ff02191690831515021790555060043390806001815401808255809150509060018203906000526020600020016000909192909190916101000a81548173ffffffffffffffffffffffffffffffffffffffff021916908373ffffffffffffffffffffffffffffffffffffffff160217905550505062000464565b620002c68160006200030c6401000000000262003b56179091906401000000009004565b8073ffffffffffffffffffffffffffffffffffffffff167f6719d08c1888103bea251a4ed56406bd0c3e69723c8a1686e017e7bbe159b6f860405160405180910390a250565b600073ffffffffffffffffffffffffffffffffffffffff168173ffffffffffffffffffffffffffffffffffffffff16141515156200034957600080fd5b620003648282620003cf640100000000026401000000009004565b1515156200037157600080fd5b60018260000160008373ffffffffffffffffffffffffffffffffffffffff1673ffffffffffffffffffffffffffffffffffffffff16815260200190815260200160002060006101000a81548160ff0219169083151502179055505050565b60008073ffffffffffffffffffffffffffffffffffffffff168273ffffffffffffffffffffffffffffffffffffffff16141515156200040d57600080fd5b8260000160008373ffffffffffffffffffffffffffffffffffffffff1673ffffffffffffffffffffffffffffffffffffffff16815260200190815260200160002060009054906101000a900460ff16905092915050565b613e5780620004746000396000f3fe608060405260043610610221576000357c0100000000000000000000000000000000000000000000000000000000900480637c3b84301161013557806397107d6d116100bd578063d0e04fe31161008c578063d0e04fe314610d3a578063d56b288914610e16578063d89d151014610e2d578063ec55688914610ea8578063f2fde38b14610eff57610221565b806397107d6d14610bc65780639adeb5f114610c17578063bc67f83214610c80578063cd99f79514610cd157610221565b80638da5cb5b116101045780638da5cb5b146109765780638f32d59b146109cd57806391f4245a146109fc5780639322737f14610a6857806394dc131e14610b5d57610221565b80637c3b843014610852578063800621d0146108ab57806382dc1ec41461090e5780638456cb591461095f57610221565b8063543b3693116101b85780636174fdd1116101875780636174fdd1146106f85780636ef8d66d146107615780637048027514610778578063715018a6146107e1578063749008fe146107f857610221565b8063543b36931461059f57806359df58a31461060b5780635c975abb1461067a57806360cefa28146106a957610221565b806344d50993116101f457806344d509931461040557806346fbf68e146104805780634a6273cf146104e95780634b199d4d1461054c57610221565b80630ef433a8146102265780631785f53c1461028b57806327037bbe146102f45780633f4ba83a146103ee575b600080fd5b34801561023257600080fd5b506102756004803603602081101561024957600080fd5b81019080803573ffffffffffffffffffffffffffffffffffffffff169060200190929190505050610f50565b6040518082815260200191505060405180910390f35b34801561029757600080fd5b506102da600480360360208110156102ae57600080fd5b81019080803573ffffffffffffffffffffffffffffffffffffffff169060200190929190505050610f9c565b604051808215151515815260200191505060405180910390f35b34801561030057600080fd5b506103d86004803603608081101561031757600080fd5b81019080803590602001909291908035906020019064010000000081111561033e57600080fd5b82018360208201111561035057600080fd5b8035906020019184600183028401116401000000008311171561037257600080fd5b91908080601f016020809104026020016040519081016040528093929190818152602001838380828437600081840152601f19601f82011690508083019250505050505050919291929080359060200190929190803590602001909291905050506112ac565b6040518082815260200191505060405180910390f35b3480156103fa57600080fd5b506104036115c8565b005b34801561041157600080fd5b5061043e6004803603602081101561042857600080fd5b8101908080359060200190929190505050611677565b604051808273ffffffffffffffffffffffffffffffffffffffff1673ffffffffffffffffffffffffffffffffffffffff16815260200191505060405180910390f35b34801561048c57600080fd5b506104cf600480360360208110156104a357600080fd5b81019080803573ffffffffffffffffffffffffffffffffffffffff1690602001909291905050506116b5565b604051808215151515815260200191505060405180910390f35b3480156104f557600080fd5b506105366004803603606081101561050c57600080fd5b810190808035906020019092919080359060200190929190803590602001909291905050506116d2565b6040518082815260200191505060405180910390f35b34801561055857600080fd5b506105856004803603602081101561056f57600080fd5b8101908080359060200190929190505050611837565b604051808215151515815260200191505060405180910390f35b3480156105ab57600080fd5b506105b46119e1565b6040518080602001828103825283818151815260200191508051906020019060200280838360005b838110156105f75780820151818401526020810190506105dc565b505050509050019250505060405180910390f35b34801561061757600080fd5b506106646004803603604081101561062e57600080fd5b81019080803573ffffffffffffffffffffffffffffffffffffffff16906020019092919080359060200190929190505050611ac9565b6040518082815260200191505060405180910390f35b34801561068657600080fd5b5061068f611af9565b604051808215151515815260200191505060405180910390f35b3480156106b557600080fd5b506106e2600480360360208110156106cc57600080fd5b8101908080359060200190929190505050611b10565b6040518082815260200191505060405180910390f35b34801561070457600080fd5b506107476004803603602081101561071b57600080fd5b81019080803573ffffffffffffffffffffffffffffffffffffffff16906020019092919050505061204f565b604051808215151515815260200191505060405180910390f35b34801561076d57600080fd5b5061077661235f565b005b34801561078457600080fd5b506107c76004803603602081101561079b57600080fd5b81019080803573ffffffffffffffffffffffffffffffffffffffff16906020019092919050505061236a565b604051808215151515815260200191505060405180910390f35b3480156107ed57600080fd5b506107f661255e565b005b6108386004803603606081101561080e57600080fd5b81019080803590602001909291908035906020019092919080359060200190929190505050612632565b604051808215151515815260200191505060405180910390f35b34801561085e57600080fd5b506108956004803603604081101561087557600080fd5b8101908080359060200190929190803590602001909291905050506128e9565b6040518082815260200191505060405180910390f35b3480156108b757600080fd5b506108f8600480360360608110156108ce57600080fd5b81019080803590602001909291908035906020019092919080359060200190929190505050612b40565b6040518082815260200191505060405180910390f35b34801561091a57600080fd5b5061095d6004803603602081101561093157600080fd5b81019080803573ffffffffffffffffffffffffffffffffffffffff169060200190929190505050612ca5565b005b34801561096b57600080fd5b50610974612cc5565b005b34801561098257600080fd5b5061098b612d74565b604051808273ffffffffffffffffffffffffffffffffffffffff1673ffffffffffffffffffffffffffffffffffffffff16815260200191505060405180910390f35b3480156109d957600080fd5b506109e2612d9e565b604051808215151515815260200191505060405180910390f35b348015610a0857600080fd5b50610a11612df6565b6040518080602001828103825283818151815260200191508051906020019060200280838360005b83811015610a54578082015181840152602081019050610a39565b505050509050019250505060405180910390f35b348015610a7457600080fd5b50610aa160048036036020811015610a8b57600080fd5b8101908080359060200190929190505050612ede565b60405180858152602001806020018473ffffffffffffffffffffffffffffffffffffffff1673ffffffffffffffffffffffffffffffffffffffff168152602001838152602001828103825285818151815260200191508051906020019080838360005b83811015610b1f578082015181840152602081019050610b04565b50505050905090810190601f168015610b4c5780820380516001836020036101000a031916815260200191505b509550505050505060405180910390f35b348015610b6957600080fd5b50610bac60048036036020811015610b8057600080fd5b81019080803573ffffffffffffffffffffffffffffffffffffffff169060200190929190505050612fc6565b604051808215151515815260200191505060405180910390f35b348015610bd257600080fd5b50610c1560048036036020811015610be957600080fd5b81019080803573ffffffffffffffffffffffffffffffffffffffff169060200190929190505050612fe6565b005b348015610c2357600080fd5b50610c6660048036036020811015610c3a57600080fd5b81019080803573ffffffffffffffffffffffffffffffffffffffff1690602001909291905050506130a0565b604051808215151515815260200191505060405180910390f35b348015610c8c57600080fd5b50610ccf60048036036020811015610ca357600080fd5b81019080803573ffffffffffffffffffffffffffffffffffffffff169060200190929190505050613294565b005b348015610cdd57600080fd5b50610d2060048036036020811015610cf457600080fd5b81019080803573ffffffffffffffffffffffffffffffffffffffff169060200190929190505050613380565b604051808215151515815260200191505060405180910390f35b348015610d4657600080fd5b50610e0060048036036020811015610d5d57600080fd5b8101908080359060200190640100000000811115610d7a57600080fd5b820183602082011115610d8c57600080fd5b80359060200191846001830284011164010000000083111715610dae57600080fd5b91908080601f016020809104026020016040519081016040528093929190818152602001838380828437600081840152601f19601f8201169050808301925050505050505091929192905050506133a0565b6040518082815260200191505060405180910390f35b348015610e2257600080fd5b50610e2b613776565b005b348015610e3957600080fd5b50610e6660048036036020811015610e5057600080fd5b81019080803590602001909291905050506137a2565b604051808273ffffffffffffffffffffffffffffffffffffffff1673ffffffffffffffffffffffffffffffffffffffff16815260200191505060405180910390f35b348015610eb457600080fd5b50610ebd6137e0565b604051808273ffffffffffffffffffffffffffffffffffffffff1673ffffffffffffffffffffffffffffffffffffffff16815260200191505060405180910390f35b348015610f0b57600080fd5b50610f4e60048036036020811015610f2257600080fd5b81019080803573ffffffffffffffffffffffffffffffffffffffff169060200190929190505050613806565b005b6000600960008373ffffffffffffffffffffffffffffffffffffffff1673ffffffffffffffffffffffffffffffffffffffff168152602001908152602001600020805490509050919050565b600060011515600660003373ffffffffffffffffffffffffffffffffffffffff1673ffffffffffffffffffffffffffffffffffffffff16815260200190815260200160002060009054906101000a900460ff161515141515611066576040517f08c379a00000000000000000000000000000000000000000000000000000000081526004018080602001828103825260168152602001807f53656e646572206e6f7420617574686f72697a65642e0000000000000000000081525060200191505060405180910390fd5b6000600660008473ffffffffffffffffffffffffffffffffffffffff1673ffffffffffffffffffffffffffffffffffffffff16815260200190815260200160002060006101000a81548160ff0219169083151502179055506000600480549050905060008090505b8181101561123e578373ffffffffffffffffffffffffffffffffffffffff166004828154811015156110fc57fe5b9060005260206000200160009054906101000a900473ffffffffffffffffffffffffffffffffffffffff1673ffffffffffffffffffffffffffffffffffffffff1614156112315760046001830381548110151561115557fe5b9060005260206000200160009054906101000a900473ffffffffffffffffffffffffffffffffffffffff1660048281548110151561118f57fe5b9060005260206000200160006101000a81548173ffffffffffffffffffffffffffffffffffffffff021916908373ffffffffffffffffffffffffffffffffffffffff1602179055506004600183038154811015156111e957fe5b9060005260206000200160006101000a81549073ffffffffffffffffffffffffffffffffffffffff0219169055600480548091906001900361122b9190613c06565b5061123e565b80806001019150506110ce565b507fa3b62bc36326052d97ea62d63c3d60308ed4c3ea8ac079dd8499f1e9c4f80c0f83604051808273ffffffffffffffffffffffffffffffffffffffff1673ffffffffffffffffffffffffffffffffffffffff16815260200191505060405180910390a16001915050919050565b6000843373ffffffffffffffffffffffffffffffffffffffff16600a600083815260200190815260200160002060020160009054906101000a900473ffffffffffffffffffffffffffffffffffffffff1673ffffffffffffffffffffffffffffffffffffffff16141515611388576040517f08c379a00000000000000000000000000000000000000000000000000000000081526004018080602001828103825260168152602001807f53656e646572206e6f7420617574686f72697a65642e0000000000000000000081525060200191505060405180910390fd5b6000338642604051602001808473ffffffffffffffffffffffffffffffffffffffff1673ffffffffffffffffffffffffffffffffffffffff166c0100000000000000000000000002815260140183805190602001908083835b60208310151561140657805182526020820191506020810190506020830392506113e1565b6001836020036101000a0380198251168184511680821785525050505050509050018281526020019350505050604051602081830303815290604052805190602001209050611453613c32565b60806040519081016040528083815260200188815260200187815260200186815250905080600c60008481526020019081526020016000206000820151816000015560208201518160010190805190602001906114b1929190613c5e565b506040820151816002015560608201518160030155905050600b60008981526020019081526020016000208290806001815401808255809150509060018203906000526020600020016000909192909190915055507f6ae11f467b4581b9e68683f3705423a83e5cb28b6f2a23961edd05c2e226d784828888886040518085815260200180602001848152602001838152602001828103825285818151815260200191508051906020019080838360005b8381101561157d578082015181840152602081019050611562565b50505050905090810190601f1680156115aa5780820380516001836020036101000a031916815260200191505b509550505050505060405180910390a1819350505050949350505050565b6115d1336116b5565b15156115dc57600080fd5b600160149054906101000a900460ff1615156115f757600080fd5b6000600160146101000a81548160ff0219169083151502179055507f5db9ee0a495bf2e6ff9c91a7834c1ba4fdd244a5e8aa4e537bd38aeae4b073aa33604051808273ffffffffffffffffffffffffffffffffffffffff1673ffffffffffffffffffffffffffffffffffffffff16815260200191505060405180910390a1565b60058181548110151561168657fe5b906000526020600020016000915054906101000a900473ffffffffffffffffffffffffffffffffffffffff1681565b60006116cb82600061382590919063ffffffff16565b9050919050565b6000823373ffffffffffffffffffffffffffffffffffffffff16600a600083815260200190815260200160002060020160009054906101000a900473ffffffffffffffffffffffffffffffffffffffff1673ffffffffffffffffffffffffffffffffffffffff161415156117ae576040517f08c379a00000000000000000000000000000000000000000000000000000000081526004018080602001828103825260168152602001807f53656e646572206e6f7420617574686f72697a65642e0000000000000000000081525060200191505060405180910390fd5b6000600c600087815260200190815260200160002060020154905083600c6000888152602001908152602001600020600201819055507f55cc09d00de6540ba059952c93ab171a4c3da4c89b729ea5de19b8cc863c211786858360405180848152602001838152602001828152602001935050505060405180910390a185925050509392505050565b6000813373ffffffffffffffffffffffffffffffffffffffff16600a600083815260200190815260200160002060020160009054906101000a900473ffffffffffffffffffffffffffffffffffffffff1673ffffffffffffffffffffffffffffffffffffffff16141515611913576040517f08c379a00000000000000000000000000000000000000000000000000000000081526004018080602001828103825260168152602001807f53656e646572206e6f7420617574686f72697a65642e0000000000000000000081525060200191505060405180910390fd5b6000600a600085815260200190815260200160002060030154905060008111156119da573373ffffffffffffffffffffffffffffffffffffffff166108fc829081150290604051600060405180830381858888f1935050505015801561197d573d6000803e3d6000fd5b506000600a6000868152602001908152602001600020600301819055507fb7576a710fcc891d13513585bab7cd7b441b1f0aeb4ded4d5052fb7b27301efc8482604051808381526020018281526020019250505060405180910390a15b5050919050565b606060006004805490509050606081604051908082528060200260200182016040528015611a1e5781602001602082028038833980820191505090505b50905060008090505b82811015611ac057600481815481101515611a3e57fe5b9060005260206000200160009054906101000a900473ffffffffffffffffffffffffffffffffffffffff168282815181101515611a7757fe5b9060200190602002019073ffffffffffffffffffffffffffffffffffffffff16908173ffffffffffffffffffffffffffffffffffffffff16815250508080600101915050611a27565b50809250505090565b600960205281600052604060002081815481101515611ae457fe5b90600052602060002001600091509150505481565b6000600160149054906101000a900460ff16905090565b6000813373ffffffffffffffffffffffffffffffffffffffff16600a600083815260200190815260200160002060020160009054906101000a900473ffffffffffffffffffffffffffffffffffffffff1673ffffffffffffffffffffffffffffffffffffffff16141515611bec576040517f08c379a00000000000000000000000000000000000000000000000000000000081526004018080602001828103825260168152602001807f53656e646572206e6f7420617574686f72697a65642e0000000000000000000081525060200191505060405180910390fd5b60008090505b600b600085815260200190815260200160002080549050811015611c8b576000600b600086815260200190815260200160002082815481101515611c3257fe5b90600052602060002001549050600c6000828152602001908152602001600020600080820160009055600182016000611c6b9190613cde565b600282016000905560038201600090555050508080600101915050611bf2565b50600b60008481526020019081526020016000206000611cab9190613d26565b6000600960003373ffffffffffffffffffffffffffffffffffffffff1673ffffffffffffffffffffffffffffffffffffffff16815260200190815260200160002080549050905060008090505b81811015611e815784600960003373ffffffffffffffffffffffffffffffffffffffff1673ffffffffffffffffffffffffffffffffffffffff16815260200190815260200160002082815481101515611d4d57fe5b90600052602060002001541415611e7457600960003373ffffffffffffffffffffffffffffffffffffffff1673ffffffffffffffffffffffffffffffffffffffff16815260200190815260200160002060018303815481101515611dad57fe5b9060005260206000200154600960003373ffffffffffffffffffffffffffffffffffffffff1673ffffffffffffffffffffffffffffffffffffffff16815260200190815260200160002082815481101515611e0457fe5b9060005260206000200181905550600960003373ffffffffffffffffffffffffffffffffffffffff1673ffffffffffffffffffffffffffffffffffffffff16815260200190815260200160002060018303815481101515611e6157fe5b9060005260206000200160009055611e81565b8080600101915050611cf8565b50600880549050905060008090505b81811015611ee85784600882815481101515611ea857fe5b90600052602060002001541415611edb57600881815481101515611ec857fe5b9060005260206000200160009055611ee8565b8080600101915050611e90565b506000600a60008681526020019081526020016000206003015490506000811115611fb0573373ffffffffffffffffffffffffffffffffffffffff166108fc829081150290604051600060405180830381858888f19350505050158015611f53573d6000803e3d6000fd5b506000600a6000878152602001908152602001600020600301819055507fb7576a710fcc891d13513585bab7cd7b441b1f0aeb4ded4d5052fb7b27301efc8582604051808381526020018281526020019250505060405180910390a15b600a6000868152602001908152602001600020600080820160009055600182016000611fdc9190613cde565b6002820160006101000a81549073ffffffffffffffffffffffffffffffffffffffff0219169055600382016000905550507f42b0d75ecaefba5bc0e1e6f2b225eb31d0fa0fd09119d3b850cada0841bc1d02856040518082815260200191505060405180910390a1849350505050919050565b600060011515600660003373ffffffffffffffffffffffffffffffffffffffff1673ffffffffffffffffffffffffffffffffffffffff16815260200190815260200160002060009054906101000a900460ff161515141515612119576040517f08c379a00000000000000000000000000000000000000000000000000000000081526004018080602001828103825260168152602001807f53656e646572206e6f7420617574686f72697a65642e0000000000000000000081525060200191505060405180910390fd5b6000600760008473ffffffffffffffffffffffffffffffffffffffff1673ffffffffffffffffffffffffffffffffffffffff16815260200190815260200160002060006101000a81548160ff0219169083151502179055506000600580549050905060008090505b818110156122f1578373ffffffffffffffffffffffffffffffffffffffff166005828154811015156121af57fe5b9060005260206000200160009054906101000a900473ffffffffffffffffffffffffffffffffffffffff1673ffffffffffffffffffffffffffffffffffffffff1614156122e45760056001830381548110151561220857fe5b9060005260206000200160009054906101000a900473ffffffffffffffffffffffffffffffffffffffff1660058281548110151561224257fe5b9060005260206000200160006101000a81548173ffffffffffffffffffffffffffffffffffffffff021916908373ffffffffffffffffffffffffffffffffffffffff16021790555060056001830381548110151561229c57fe5b9060005260206000200160006101000a81549073ffffffffffffffffffffffffffffffffffffffff021916905560058054809190600190036122de9190613c06565b506122f1565b8080600101915050612181565b507fee8258b57c171df72836d554f2addcb97a3be3652a6f9f58a431063096c0b84083604051808273ffffffffffffffffffffffffffffffffffffffff1673ffffffffffffffffffffffffffffffffffffffff16815260200191505060405180910390a16001915050919050565b612368336138b9565b565b600060011515600660003373ffffffffffffffffffffffffffffffffffffffff1673ffffffffffffffffffffffffffffffffffffffff16815260200190815260200160002060009054906101000a900460ff161515141515612434576040517f08c379a00000000000000000000000000000000000000000000000000000000081526004018080602001828103825260168152602001807f53656e646572206e6f7420617574686f72697a65642e0000000000000000000081525060200191505060405180910390fd5b6001600660008473ffffffffffffffffffffffffffffffffffffffff1673ffffffffffffffffffffffffffffffffffffffff16815260200190815260200160002060006101000a81548160ff02191690831515021790555060048290806001815401808255809150509060018203906000526020600020016000909192909190916101000a81548173ffffffffffffffffffffffffffffffffffffffff021916908373ffffffffffffffffffffffffffffffffffffffff160217905550507f44d6d25963f097ad14f29f06854a01f575648a1ef82f30e562ccd3889717e33982604051808273ffffffffffffffffffffffffffffffffffffffff1673ffffffffffffffffffffffffffffffffffffffff16815260200191505060405180910390a160019050919050565b612566612d9e565b151561257157600080fd5b600073ffffffffffffffffffffffffffffffffffffffff16600160009054906101000a900473ffffffffffffffffffffffffffffffffffffffff1673ffffffffffffffffffffffffffffffffffffffff167f8be0079c531659141344cd1fd0a4f28419497f9722a3daafe3b4186f6b6457e060405160405180910390a36000600160006101000a81548173ffffffffffffffffffffffffffffffffffffffff021916908373ffffffffffffffffffffffffffffffffffffffff160217905550565b600061263c613c32565b600c60008581526020019081526020016000206080604051908101604052908160008201548152602001600182018054600181600116156101000203166002900480601f0160208091040260200160405190810160405280929190818152602001828054600181600116156101000203166002900480156126fe5780601f106126d3576101008083540402835291602001916126fe565b820191906000526020600020905b8154815290600101906020018083116126e157829003601f168201915b50505050508152602001600282015481526020016003820154815250509050600061273684836040015161391390919063ffffffff16565b9050803410151515612793576040517f08c379a0000000000000000000000000000000000000000000000000000000008152600401808060200182810382526033815260200180613df96033913960400191505060405180910390fd5b8382606001511015151561280f576040517f08c379a000000000000000000000000000000000000000000000000000000000815260040180806020018281038252601b8152602001807f4974656d207175616e74697479206973206e6f7420656e6f756768000000000081525060200191505060405180910390fd5b80341115612861573373ffffffffffffffffffffffffffffffffffffffff166108fc8234039081150290604051600060405180830381858888f1935050505015801561285f573d6000803e3d6000fd5b505b8382606001818151039150818152505080600a6000888152602001908152602001600020600301600082825401925050819055507fe4f85790bdbeca4aead06b7b55450d99ad2693940f65f816d24044a72db6b6bb86868660405180848152602001838152602001828152602001935050505060405180910390a16001925050509392505050565b6000813373ffffffffffffffffffffffffffffffffffffffff16600a600083815260200190815260200160002060020160009054906101000a900473ffffffffffffffffffffffffffffffffffffffff1673ffffffffffffffffffffffffffffffffffffffff161415156129c5576040517f08c379a00000000000000000000000000000000000000000000000000000000081526004018080602001828103825260168152602001807f53656e646572206e6f7420617574686f72697a65642e0000000000000000000081525060200191505060405180910390fd5b6000600b600085815260200190815260200160002080549050905060008090505b81811015612abf5784600b600087815260200190815260200160002082815481101515612a0f57fe5b90600052602060002001541415612ab257600b600086815260200190815260200160002060018303815481101515612a4357fe5b9060005260206000200154600b600087815260200190815260200160002082815481101515612a6e57fe5b9060005260206000200181905550600b600086815260200190815260200160002060018303815481101515612a9f57fe5b9060005260206000200160009055612abf565b80806001019150506129e6565b50600c6000868152602001908152602001600020600080820160009055600182016000612aec9190613cde565b6002820160009055600382016000905550507f4d14690cbd42eab82cd15ad666b9b98197ade97acdd17512bdec0497b591de48856040518082815260200191505060405180910390a1849250505092915050565b6000823373ffffffffffffffffffffffffffffffffffffffff16600a600083815260200190815260200160002060020160009054906101000a900473ffffffffffffffffffffffffffffffffffffffff1673ffffffffffffffffffffffffffffffffffffffff16141515612c1c576040517f08c379a00000000000000000000000000000000000000000000000000000000081526004018080602001828103825260168152602001807f53656e646572206e6f7420617574686f72697a65642e0000000000000000000081525060200191505060405180910390fd5b6000600c600087815260200190815260200160002060030154905083600c6000888152602001908152602001600020600301819055507f73b275e7ead5ed73869fb9794c1cb9cf330f3f1461360e2c79798d00d946f4b986858360405180848152602001838152602001828152602001935050505060405180910390a185925050509392505050565b612cae336116b5565b1515612cb957600080fd5b612cc281613951565b50565b612cce336116b5565b1515612cd957600080fd5b600160149054906101000a900460ff16151515612cf557600080fd5b60018060146101000a81548160ff0219169083151502179055507f62e78cea01bee320cd4e420270b5ea74000d11b0c9f74754ebdbfc544b05a25833604051808273ffffffffffffffffffffffffffffffffffffffff1673ffffffffffffffffffffffffffffffffffffffff16815260200191505060405180910390a1565b6000600160009054906101000a900473ffffffffffffffffffffffffffffffffffffffff16905090565b6000600160009054906101000a900473ffffffffffffffffffffffffffffffffffffffff1673ffffffffffffffffffffffffffffffffffffffff163373ffffffffffffffffffffffffffffffffffffffff1614905090565b606060006005805490509050606081604051908082528060200260200182016040528015612e335781602001602082028038833980820191505090505b50905060008090505b82811015612ed557600581815481101515612e5357fe5b9060005260206000200160009054906101000a900473ffffffffffffffffffffffffffffffffffffffff168282815181101515612e8c57fe5b9060200190602002019073ffffffffffffffffffffffffffffffffffffffff16908173ffffffffffffffffffffffffffffffffffffffff16815250508080600101915050612e3c565b50809250505090565b600a602052806000526040600020600091509050806000015490806001018054600181600116156101000203166002900480601f016020809104026020016040519081016040528092919081815260200182805460018160011615610100020316600290048015612f905780601f10612f6557610100808354040283529160200191612f90565b820191906000526020600020905b815481529060010190602001808311612f7357829003601f168201915b5050505050908060020160009054906101000a900473ffffffffffffffffffffffffffffffffffffffff16908060030154905084565b60076020528060005260406000206000915054906101000a900460ff1681565b612fee612d9e565b1515612ff957600080fd5b80600260006101000a81548173ffffffffffffffffffffffffffffffffffffffff021916908373ffffffffffffffffffffffffffffffffffffffff1602179055507ffc80377ca9c49cc11ae6982f390a42db976d5530af7c43889264b13fbbd7c57e81604051808273ffffffffffffffffffffffffffffffffffffffff1673ffffffffffffffffffffffffffffffffffffffff16815260200191505060405180910390a150565b600060011515600660003373ffffffffffffffffffffffffffffffffffffffff1673ffffffffffffffffffffffffffffffffffffffff16815260200190815260200160002060009054906101000a900460ff16151514151561316a576040517f08c379a00000000000000000000000000000000000000000000000000000000081526004018080602001828103825260168152602001807f53656e646572206e6f7420617574686f72697a65642e0000000000000000000081525060200191505060405180910390fd5b6001600760008473ffffffffffffffffffffffffffffffffffffffff1673ffffffffffffffffffffffffffffffffffffffff16815260200190815260200160002060006101000a81548160ff02191690831515021790555060058290806001815401808255809150509060018203906000526020600020016000909192909190916101000a81548173ffffffffffffffffffffffffffffffffffffffff021916908373ffffffffffffffffffffffffffffffffffffffff160217905550507fe095b54135d91dfdb849d8f2a1232ed69da67f78cfd33a34a834084d8d037e9a82604051808273ffffffffffffffffffffffffffffffffffffffff1673ffffffffffffffffffffffffffffffffffffffff16815260200191505060405180910390a160019050919050565b600260009054906101000a900473ffffffffffffffffffffffffffffffffffffffff1673ffffffffffffffffffffffffffffffffffffffff163373ffffffffffffffffffffffffffffffffffffffff1614151561333c576040517f08c379a0000000000000000000000000000000000000000000000000000000008152600401808060200182810382526025815260200180613dd46025913960400191505060405180910390fd5b80600360006101000a81548173ffffffffffffffffffffffffffffffffffffffff021916908373ffffffffffffffffffffffffffffffffffffffff16021790555050565b60066020528060005260406000206000915054906101000a900460ff1681565b600060011515600760003373ffffffffffffffffffffffffffffffffffffffff1673ffffffffffffffffffffffffffffffffffffffff16815260200190815260200160002060009054906101000a900460ff16151514151561346a576040517f08c379a00000000000000000000000000000000000000000000000000000000081526004018080602001828103825260168152602001807f53656e646572206e6f7420617574686f72697a65642e0000000000000000000081525060200191505060405180910390fd5b6000338342604051602001808473ffffffffffffffffffffffffffffffffffffffff1673ffffffffffffffffffffffffffffffffffffffff166c0100000000000000000000000002815260140183805190602001908083835b6020831015156134e857805182526020820191506020810190506020830392506134c3565b6001836020036101000a0380198251168184511680821785525050505050509050018281526020019350505050604051602081830303815290604052805190602001209050613535613d47565b6080604051908101604052808381526020018581526020013373ffffffffffffffffffffffffffffffffffffffff168152602001600081525090506008829080600181540180825580915050906001820390600052602060002001600090919290919091505550600960003373ffffffffffffffffffffffffffffffffffffffff1673ffffffffffffffffffffffffffffffffffffffff16815260200190815260200160002082908060018154018082558091505090600182039060005260206000200160009091929091909150555080600a600084815260200190815260200160002060008201518160000155602082015181600101908051906020019061363f929190613c5e565b5060408201518160020160006101000a81548173ffffffffffffffffffffffffffffffffffffffff021916908373ffffffffffffffffffffffffffffffffffffffff160217905550606082015181600301559050507fa250710eee6e35349d5c2ce9553447d29e8c7b14bf08f8d2fbb57fdf7e61548d82853360405180848152602001806020018373ffffffffffffffffffffffffffffffffffffffff1673ffffffffffffffffffffffffffffffffffffffff168152602001828103825284818151815260200191508051906020019080838360005b83811015613730578082015181840152602081019050613715565b50505050905090810190601f16801561375d5780820380516001836020036101000a031916815260200191505b5094505050505060405180910390a18192505050919050565b61377e612d9e565b151561378957600080fd5b3373ffffffffffffffffffffffffffffffffffffffff16ff5b6004818154811015156137b157fe5b906000526020600020016000915054906101000a900473ffffffffffffffffffffffffffffffffffffffff1681565b600260009054906101000a900473ffffffffffffffffffffffffffffffffffffffff1681565b61380e612d9e565b151561381957600080fd5b613822816139ab565b50565b60008073ffffffffffffffffffffffffffffffffffffffff168273ffffffffffffffffffffffffffffffffffffffff161415151561386257600080fd5b8260000160008373ffffffffffffffffffffffffffffffffffffffff1673ffffffffffffffffffffffffffffffffffffffff16815260200190815260200160002060009054906101000a900460ff16905092915050565b6138cd816000613aa790919063ffffffff16565b8073ffffffffffffffffffffffffffffffffffffffff167fcd265ebaf09df2871cc7bd4133404a235ba12eff2041bb89d9c714a2621c7c7e60405160405180910390a250565b600080831415613926576000905061394b565b6000828402905082848281151561393957fe5b0414151561394657600080fd5b809150505b92915050565b613965816000613b5690919063ffffffff16565b8073ffffffffffffffffffffffffffffffffffffffff167f6719d08c1888103bea251a4ed56406bd0c3e69723c8a1686e017e7bbe159b6f860405160405180910390a250565b600073ffffffffffffffffffffffffffffffffffffffff168173ffffffffffffffffffffffffffffffffffffffff16141515156139e757600080fd5b8073ffffffffffffffffffffffffffffffffffffffff16600160009054906101000a900473ffffffffffffffffffffffffffffffffffffffff1673ffffffffffffffffffffffffffffffffffffffff167f8be0079c531659141344cd1fd0a4f28419497f9722a3daafe3b4186f6b6457e060405160405180910390a380600160006101000a81548173ffffffffffffffffffffffffffffffffffffffff021916908373ffffffffffffffffffffffffffffffffffffffff16021790555050565b600073ffffffffffffffffffffffffffffffffffffffff168173ffffffffffffffffffffffffffffffffffffffff1614151515613ae357600080fd5b613aed8282613825565b1515613af857600080fd5b60008260000160008373ffffffffffffffffffffffffffffffffffffffff1673ffffffffffffffffffffffffffffffffffffffff16815260200190815260200160002060006101000a81548160ff0219169083151502179055505050565b600073ffffffffffffffffffffffffffffffffffffffff168173ffffffffffffffffffffffffffffffffffffffff1614151515613b9257600080fd5b613b9c8282613825565b151515613ba857600080fd5b60018260000160008373ffffffffffffffffffffffffffffffffffffffff1673ffffffffffffffffffffffffffffffffffffffff16815260200190815260200160002060006101000a81548160ff0219169083151502179055505050565b815481835581811115613c2d57818360005260206000209182019101613c2c9190613d89565b5b505050565b608060405190810160405280600080191681526020016060815260200160008152602001600081525090565b828054600181600116156101000203166002900490600052602060002090601f016020900481019282601f10613c9f57805160ff1916838001178555613ccd565b82800160010185558215613ccd579182015b82811115613ccc578251825591602001919060010190613cb1565b5b509050613cda9190613d89565b5090565b50805460018160011615610100020316600290046000825580601f10613d045750613d23565b601f016020900490600052602060002090810190613d229190613d89565b5b50565b5080546000825590600052602060002090810190613d449190613dae565b50565b6080604051908101604052806000801916815260200160608152602001600073ffffffffffffffffffffffffffffffffffffffff168152602001600081525090565b613dab91905b80821115613da7576000816000905550600101613d8f565b5090565b90565b613dd091905b80821115613dcc576000816000905550600101613db4565b5090565b9056fe4f6e6c79207468652070726f78792063616e2063616c6c20746869732066756e6374696f6e6d73672e76616c7565206d7573742062652067726561746572206f7220657175616c207468616e20746f74616c207072696365a165627a7a72305820352caaa220db418cfcce1558ad47767864bca92eb0b92f50ef55244cbc4cca7e0029",
  "source": "pragma solidity ^0.5.0;\n\nimport \"openzeppelin-solidity/contracts/ownership/Ownable.sol\";\nimport \"openzeppelin-solidity/contracts/lifecycle/Pausable.sol\";\nimport \"openzeppelin-solidity/contracts/math/SafeMath.sol\";\nimport \"./Mortal.sol\";\nimport \"./Proxyable.sol\";\n\ncontract MarketPlace is Ownable, Pausable, Mortal, Proxyable {\n\n    using SafeMath for uint256;\n\n    address[] public administrators;\n    address[] public storeOwners;\n    mapping (address => bool) public administratorsByAddress;\n    mapping (address => bool) public storeOwnersByAddress;\n\n    bytes32[] private storefronts;\n    mapping (address => bytes32[]) public storefrontsByOwner;\n    mapping (bytes32 => Storefront) public storefrontsById;\n    mapping(bytes32 => bytes32[]) private inventoryByStorefrontId;\n    mapping(bytes32 => Item) private itemById;\n\n    struct Storefront {\n        bytes32 id;\n        string name;\n        address owner;\n        uint balance;\n    }\n\n    struct Item {\n        bytes32 id;\n        string name;\n        uint price;\n        uint quantity;\n    }\n\n    event AdminAdded(address admin);\n    event AdminRemoved(address admin);\n    event StoreOwnerAdded(address storeOwner);\n    event StoreOwnerRemoved(address storeOwner);\n    event StoreCreated(bytes32 id, string name, address owner);\n    event StoreRemoved(bytes32 id);\n    event BalanceWithdrawn(bytes32 id, uint balance);\n    event ItemAdded(bytes32 id, string name, uint price, uint qty);\n    event ItemRemoved(bytes32 id);\n    event ItemPriceUpdated(bytes32 id, uint newPrice, uint oldPrice);\n    event ItemQuantityUpdated(bytes32 id, uint newQty, uint oldQty);\n    event ItemSold(bytes32 storeId, bytes32 itemId, uint qty);\n\n    modifier onlyAdmin() {require(administratorsByAddress[msg.sender] == true, \"Sender not authorized.\"); _;}\n    modifier onlyStoreOwner() {require(storeOwnersByAddress[msg.sender] == true, \"Sender not authorized.\"); _;}\n    modifier onlyStorefrontOwner(bytes32 id) {require(storefrontsById[id].owner == msg.sender, \"Sender not authorized.\"); _;}\n\n    constructor(address payable _proxy)\n    Proxyable(_proxy)\n    public {\n        administratorsByAddress[msg.sender] = true;\n        administrators.push(msg.sender);\n    }\n\n    function addAdmin(address addr)\n    public\n    onlyAdmin()\n    returns(bool) {\n        administratorsByAddress[addr] = true;\n        administrators.push(addr);\n        emit AdminAdded(addr);\n        return true;\n    }\n\n    function removeAdmin(address addr)\n    public\n    onlyAdmin()\n    returns(bool) {\n        administratorsByAddress[addr] = false;\n        uint adminCount = administrators.length;\n        for(uint i = 0; i < adminCount; i++) {\n            if (administrators[i] == addr) {\n                administrators[i] = administrators[adminCount-1];\n                delete administrators[adminCount-1];\n                administrators.length --;\n                break;\n            }\n        }\n        emit AdminRemoved(addr);\n        return true;\n    }\n\n    function getAdministrators()\n    public\n    view\n    returns(address[] memory) {\n        uint adminCount = administrators.length;\n        address[] memory admins = new address[](adminCount);\n        for (uint i = 0; i < adminCount; i++) {\n            admins[i] = administrators[i];\n        }\n        return admins;\n    }\n\n    function addStoreOwner(address addr)\n    public\n    onlyAdmin()\n    returns(bool) {\n        storeOwnersByAddress[addr] = true;\n        storeOwners.push(addr);\n        emit StoreOwnerAdded(addr);\n        return true;\n    }\n\n    function removeStoreOwner(address addr)\n    public\n    onlyAdmin()\n    returns(bool) {\n        storeOwnersByAddress[addr] = false;\n        uint ownerCount = storeOwners.length;\n        for(uint i = 0; i < ownerCount; i++) {\n            if (storeOwners[i] == addr) {\n                storeOwners[i] = storeOwners[ownerCount-1];\n                delete storeOwners[ownerCount-1];\n                storeOwners.length --;\n                break;\n            }\n        }\n        emit StoreOwnerRemoved(addr);\n        return true;\n    }\n\n    function getStoreOwners()\n    public\n    view\n    returns(address[] memory) {\n        uint storeOwnerCount = storeOwners.length;\n        address[] memory owners = new address[](storeOwnerCount);\n        for (uint i = 0; i < storeOwnerCount; i++) {\n            owners[i] = storeOwners[i];\n        }\n        return owners;\n    }\n\n    function createStore(string memory name)\n    public\n    onlyStoreOwner()\n    returns(bytes32) {\n        bytes32 id = keccak256(abi.encodePacked(msg.sender, name, now));\n        Storefront memory s = Storefront(id, name, msg.sender, 0);\n        storefronts.push(id);\n        storefrontsByOwner[msg.sender].push(id);\n        storefrontsById[id] = s;\n        emit StoreCreated(id, name, msg.sender);\n        return id;\n    }\n\n    function removeStore(bytes32 storeId)\n    public\n    onlyStorefrontOwner(storeId)\n    returns(bytes32) {\n\n        // Delete all the items from the store inventory\n        for (uint i = 0; i < inventoryByStorefrontId[storeId].length; i++) {\n            bytes32 itemId = inventoryByStorefrontId[storeId][i];\n            delete itemById[itemId];\n        }\n\n        // Delete the store inventory\n        delete inventoryByStorefrontId[storeId];\n\n        // Remove from storefrontsByOwner mapping\n        uint storefrontCount = storefrontsByOwner[msg.sender].length;\n        for(uint i = 0; i < storefrontCount; i++) {\n            if (storefrontsByOwner[msg.sender][i] == storeId) {\n                storefrontsByOwner[msg.sender][i] = storefrontsByOwner[msg.sender][storefrontCount-1];\n                delete storefrontsByOwner[msg.sender][storefrontCount-1];\n                break;\n            }\n        }\n\n        // Remove from storefronts array\n        storefrontCount = storefronts.length;\n        for(uint i = 0; i < storefrontCount; i++) {\n            if (storefronts[i] == storeId) {\n                delete storefronts[i];\n                break;\n            }\n        }\n\n        // Withdraw Balance\n        uint storefrontBalance = storefrontsById[storeId].balance;\n        if (storefrontBalance > 0) {\n            msg.sender.transfer(storefrontBalance);\n            storefrontsById[storeId].balance = 0;\n            emit BalanceWithdrawn(storeId, storefrontBalance);\n        }\n\n        // Remove from storefrontsById\n        delete storefrontsById[storeId];\n        emit StoreRemoved(storeId);\n        return storeId;\n    }\n\n    function addItemToInventory(bytes32 storeId, string memory itemName, uint itemPrice, uint itemQuantity)\n    public\n    onlyStorefrontOwner(storeId)\n    returns(bytes32) {\n        bytes32 itemId = keccak256(abi.encodePacked(msg.sender, itemName, now));\n        Item memory i = Item(itemId, itemName, itemPrice, itemQuantity);\n        itemById[itemId] = i;\n        inventoryByStorefrontId[storeId].push(itemId);\n        emit ItemAdded(itemId, itemName, itemPrice, itemQuantity);\n        return itemId;\n    }\n\n    function removeItemFromInventory(bytes32 itemId, bytes32 storeId)\n    public\n    onlyStorefrontOwner(storeId)\n    returns(bytes32) {\n        // Remove the item from inventory mapping\n        uint itemCount = inventoryByStorefrontId[storeId].length;\n        for(uint i = 0; i < itemCount; i++) {\n            if (inventoryByStorefrontId[storeId][i] == storeId) {\n                inventoryByStorefrontId[storeId][i] = inventoryByStorefrontId[storeId][itemCount-1];\n                delete inventoryByStorefrontId[storeId][itemCount-1];\n                break;\n            }\n        }\n        //Remove item from items mapping\n        delete itemById[itemId];\n        emit ItemRemoved(itemId);\n        return itemId;\n    }\n\n    function updateItemPrice(bytes32 itemId, bytes32 storeId, uint newPrice)\n    public\n    onlyStorefrontOwner(storeId)\n    returns(bytes32) {\n        uint oldPrice = itemById[itemId].price;\n        itemById[itemId].price = newPrice;\n        emit ItemPriceUpdated(itemId, newPrice, oldPrice);\n        return itemId;\n    }\n\n    function updateItemQuantity(bytes32 itemId, bytes32 storeId, uint newQty)\n    public\n    onlyStorefrontOwner(storeId)\n    returns(bytes32) {\n        uint oldQty = itemById[itemId].quantity;\n        itemById[itemId].quantity = newQty;\n        emit ItemQuantityUpdated(itemId, newQty, oldQty);\n        return itemId;\n    }\n\n    function widthdrawStorefrontBalance(bytes32 storeId)\n    public\n    onlyStorefrontOwner(storeId)\n    returns(bool) {\n        uint storefrontBalance = storefrontsById[storeId].balance;\n        if (storefrontBalance > 0) {\n            msg.sender.transfer(storefrontBalance);\n            storefrontsById[storeId].balance = 0;\n            emit BalanceWithdrawn(storeId, storefrontBalance);\n        }\n    }\n\n    function getStorefrontCountByOwner(address owner)\n\tpublic\n\tview\n    returns (uint) {\n        return storefrontsByOwner[owner].length;\n    }\n\n    function purchaseItem(bytes32 storeId, bytes32 itemId, uint quantity)\n    public\n    payable\n    returns(bool) {\n        Item memory item = itemById[itemId];\n        uint totalPrice = item.price.mul(quantity);\n        require(msg.value >= totalPrice, \"msg.value must be greater or equal than total price\");\n        require(item.quantity >= quantity, \"Item quantity is not enough\");\n\n        if (msg.value > totalPrice) {\n            msg.sender.transfer(msg.value - totalPrice);\n        }\n\n        item.quantity -= quantity;\n        storefrontsById[storeId].balance += totalPrice;\n        emit ItemSold(storeId, itemId, quantity);\n        return true;\n    }\n\n\n}\n",
  "sourcePath": "/Users/clementbalestrat/Workspace/final-project-clementbalestrat/contracts/MarketPlace.sol",
  "compiler": {
    "name": "solc",
    "version": "0.5.2+commit.1df8f40c.Emscripten.clang"
  },
  "schemaVersion": "3.0.1",
  "updatedAt": "2019-01-25T06:08:20.891Z",
  "devdoc": {
    "methods": {
      "isOwner()": {
        "return": "true if `msg.sender` is the owner of the contract."
      },
      "owner()": {
        "return": "the address of the owner."
      },
      "pause()": {
        "details": "called by the owner to pause, triggers stopped state"
      },
      "paused()": {
        "return": "true if the contract is paused, false otherwise."
      },
      "renounceOwnership()": {
        "details": "Allows the current owner to relinquish control of the contract."
      },
      "transferOwnership(address)": {
        "details": "Allows the current owner to transfer control of the contract to a newOwner.",
        "params": {
          "newOwner": "The address to transfer ownership to."
        }
      },
      "unpause()": {
        "details": "called by the owner to unpause, returns to normal state"
      }
    }
  },
  "userdoc": {
    "methods": {
      "finish()": {
        "notice": "Kill the contract"
      },
      "renounceOwnership()": {
        "notice": "Renouncing to ownership will leave the contract without an owner. It will not be possible to call the functions with the `onlyOwner` modifier anymore."
      }
    }
  }
}