{
  "contractName": "Proxy",
  "abi": [
    {
      "constant": false,
      "inputs": [],
      "name": "renounceOwnership",
      "outputs": [],
      "payable": false,
      "stateMutability": "nonpayable",
      "type": "function"
    },
    {
      "constant": true,
      "inputs": [],
      "name": "owner",
      "outputs": [
        {
          "name": "",
          "type": "address"
        }
      ],
      "payable": false,
      "stateMutability": "view",
      "type": "function"
    },
    {
      "constant": true,
      "inputs": [],
      "name": "isOwner",
      "outputs": [
        {
          "name": "",
          "type": "bool"
        }
      ],
      "payable": false,
      "stateMutability": "view",
      "type": "function"
    },
    {
      "constant": true,
      "inputs": [],
      "name": "useDELEGATECALL",
      "outputs": [
        {
          "name": "",
          "type": "bool"
        }
      ],
      "payable": false,
      "stateMutability": "view",
      "type": "function"
    },
    {
      "constant": true,
      "inputs": [],
      "name": "target",
      "outputs": [
        {
          "name": "",
          "type": "address"
        }
      ],
      "payable": false,
      "stateMutability": "view",
      "type": "function"
    },
    {
      "constant": false,
      "inputs": [
        {
          "name": "newOwner",
          "type": "address"
        }
      ],
      "name": "transferOwnership",
      "outputs": [],
      "payable": false,
      "stateMutability": "nonpayable",
      "type": "function"
    },
    {
      "inputs": [],
      "payable": false,
      "stateMutability": "nonpayable",
      "type": "constructor"
    },
    {
      "payable": true,
      "stateMutability": "payable",
      "type": "fallback"
    },
    {
      "anonymous": false,
      "inputs": [
        {
          "indexed": false,
          "name": "newTarget",
          "type": "address"
        }
      ],
      "name": "TargetUpdated",
      "type": "event"
    },
    {
      "anonymous": false,
      "inputs": [
        {
          "indexed": true,
          "name": "previousOwner",
          "type": "address"
        },
        {
          "indexed": true,
          "name": "newOwner",
          "type": "address"
        }
      ],
      "name": "OwnershipTransferred",
      "type": "event"
    },
    {
      "constant": false,
      "inputs": [
        {
          "name": "_target",
          "type": "address"
        }
      ],
      "name": "setTarget",
      "outputs": [],
      "payable": false,
      "stateMutability": "nonpayable",
      "type": "function"
    },
    {
      "constant": false,
      "inputs": [
        {
          "name": "value",
          "type": "bool"
        }
      ],
      "name": "setUseDELEGATECALL",
      "outputs": [],
      "payable": false,
      "stateMutability": "nonpayable",
      "type": "function"
    },
    {
      "constant": false,
      "inputs": [
        {
          "name": "callData",
          "type": "bytes"
        },
        {
          "name": "numTopics",
          "type": "uint256"
        },
        {
          "name": "topic1",
          "type": "bytes32"
        },
        {
          "name": "topic2",
          "type": "bytes32"
        },
        {
          "name": "topic3",
          "type": "bytes32"
        },
        {
          "name": "topic4",
          "type": "bytes32"
        }
      ],
      "name": "_emit",
      "outputs": [],
      "payable": false,
      "stateMutability": "nonpayable",
      "type": "function"
    }
  ],
  "bytecode": "0x608060405234801561001057600080fd5b50336000806101000a81548173ffffffffffffffffffffffffffffffffffffffff021916908373ffffffffffffffffffffffffffffffffffffffff1602179055506000809054906101000a900473ffffffffffffffffffffffffffffffffffffffff1673ffffffffffffffffffffffffffffffffffffffff16600073ffffffffffffffffffffffffffffffffffffffff167f8be0079c531659141344cd1fd0a4f28419497f9722a3daafe3b4186f6b6457e060405160405180910390a36109db806100dc6000396000f3fe6080604052600436106100a3576000357c010000000000000000000000000000000000000000000000000000000090048063907dff9711610076578063907dff97146102c857806395578ebd14610380578063befff6af146103af578063d4b83992146103ec578063f2fde38b14610443576100a3565b8063715018a6146101da578063776d1a01146101f15780638da5cb5b146102425780638f32d59b14610299575b600160149054906101000a900460ff16156100de57604051366000823760008036836001545af43d6000833e8015156100da573d82fd5b3d82f35b600160009054906101000a900473ffffffffffffffffffffffffffffffffffffffff1673ffffffffffffffffffffffffffffffffffffffff1663bc67f832336040518263ffffffff167c0100000000000000000000000000000000000000000000000000000000028152600401808273ffffffffffffffffffffffffffffffffffffffff1673ffffffffffffffffffffffffffffffffffffffff168152602001915050600060405180830381600087803b15801561019b57600080fd5b505af11580156101af573d6000803e3d6000fd5b5050505060405136600082376000803683346001545af13d6000833e8015156101d6573d82fd5b3d82f35b3480156101e657600080fd5b506101ef610494565b005b3480156101fd57600080fd5b506102406004803603602081101561021457600080fd5b81019080803573ffffffffffffffffffffffffffffffffffffffff169060200190929190505050610566565b005b34801561024e57600080fd5b50610257610620565b604051808273ffffffffffffffffffffffffffffffffffffffff1673ffffffffffffffffffffffffffffffffffffffff16815260200191505060405180910390f35b3480156102a557600080fd5b506102ae610649565b604051808215151515815260200191505060405180910390f35b3480156102d457600080fd5b5061037e600480360360c08110156102eb57600080fd5b810190808035906020019064010000000081111561030857600080fd5b82018360208201111561031a57600080fd5b8035906020019184600183028401116401000000008311171561033c57600080fd5b909192939192939080359060200190929190803590602001909291908035906020019092919080359060200190929190803590602001909291905050506106a0565b005b34801561038c57600080fd5b5061039561082d565b604051808215151515815260200191505060405180910390f35b3480156103bb57600080fd5b506103ea600480360360208110156103d257600080fd5b81019080803515159060200190929190505050610840565b005b3480156103f857600080fd5b50610401610870565b604051808273ffffffffffffffffffffffffffffffffffffffff1673ffffffffffffffffffffffffffffffffffffffff16815260200191505060405180910390f35b34801561044f57600080fd5b506104926004803603602081101561046657600080fd5b81019080803573ffffffffffffffffffffffffffffffffffffffff169060200190929190505050610896565b005b61049c610649565b15156104a757600080fd5b600073ffffffffffffffffffffffffffffffffffffffff166000809054906101000a900473ffffffffffffffffffffffffffffffffffffffff1673ffffffffffffffffffffffffffffffffffffffff167f8be0079c531659141344cd1fd0a4f28419497f9722a3daafe3b4186f6b6457e060405160405180910390a360008060006101000a81548173ffffffffffffffffffffffffffffffffffffffff021916908373ffffffffffffffffffffffffffffffffffffffff160217905550565b61056e610649565b151561057957600080fd5b80600160006101000a81548173ffffffffffffffffffffffffffffffffffffffff021916908373ffffffffffffffffffffffffffffffffffffffff1602179055507f814250a3b8c79fcbe2ead2c131c952a278491c8f4322a79fe84b5040a810373e81604051808273ffffffffffffffffffffffffffffffffffffffff1673ffffffffffffffffffffffffffffffffffffffff16815260200191505060405180910390a150565b60008060009054906101000a900473ffffffffffffffffffffffffffffffffffffffff16905090565b60008060009054906101000a900473ffffffffffffffffffffffffffffffffffffffff1673ffffffffffffffffffffffffffffffffffffffff163373ffffffffffffffffffffffffffffffffffffffff1614905090565b600160009054906101000a900473ffffffffffffffffffffffffffffffffffffffff1673ffffffffffffffffffffffffffffffffffffffff163373ffffffffffffffffffffffffffffffffffffffff16141515610765576040517f08c379a00000000000000000000000000000000000000000000000000000000081526004018080602001828103825260148152602001807f4d7573742062652070726f78792074617267657400000000000000000000000081525060200191505060405180910390fd5b6000878790509050606088888080601f016020809104026020016040519081016040528093929190818152602001838380828437600081840152601f19601f82011690508083019250505050505050905086600081146107e457600181146107ef57600281146107fb5760038114610808576004811461081657610821565b8260208301a0610821565b868360208401a1610821565b85878460208501a2610821565b8486888560208601a3610821565b838587898660208701a45b50505050505050505050565b600160149054906101000a900460ff1681565b610848610649565b151561085357600080fd5b80600160146101000a81548160ff02191690831515021790555050565b600160009054906101000a900473ffffffffffffffffffffffffffffffffffffffff1681565b61089e610649565b15156108a957600080fd5b6108b2816108b5565b50565b600073ffffffffffffffffffffffffffffffffffffffff168173ffffffffffffffffffffffffffffffffffffffff16141515156108f157600080fd5b8073ffffffffffffffffffffffffffffffffffffffff166000809054906101000a900473ffffffffffffffffffffffffffffffffffffffff1673ffffffffffffffffffffffffffffffffffffffff167f8be0079c531659141344cd1fd0a4f28419497f9722a3daafe3b4186f6b6457e060405160405180910390a3806000806101000a81548173ffffffffffffffffffffffffffffffffffffffff021916908373ffffffffffffffffffffffffffffffffffffffff1602179055505056fea165627a7a72305820a5dc791810aa289b8daf291d6f2da37bc0dc537158fdc9360f3da20379ded36f0029",
  "source": "pragma solidity ^0.5.0;\n\n\nimport \"openzeppelin-solidity/contracts/ownership/Ownable.sol\";\nimport \"./Proxyable.sol\";\n\n\ncontract Proxy is Ownable {\n\n    Proxyable public target;\n    bool public useDELEGATECALL;\n\n    constructor()\n        Ownable()\n        public\n    {}\n\n    function setTarget(Proxyable _target)\n        external\n        onlyOwner\n    {\n        target = _target;\n        emit TargetUpdated(_target);\n    }\n\n    function setUseDELEGATECALL(bool value) \n        external\n        onlyOwner\n    {\n        useDELEGATECALL = value;\n    }\n\n    function _emit(bytes calldata callData, uint numTopics, bytes32 topic1, bytes32 topic2, bytes32 topic3, bytes32 topic4)\n        external\n        onlyTarget\n    {\n        uint size = callData.length;\n        bytes memory _callData = callData;\n\n        assembly {\n            /* The first 32 bytes of callData contain its length (as specified by the abi). \n             * Length is assumed to be a uint256 and therefore maximum of 32 bytes\n             * in length. It is also leftpadded to be a multiple of 32 bytes.\n             * This means moving call_data across 32 bytes guarantees we correctly access\n             * the data itself. */\n            switch numTopics\n            case 0 {\n                log0(add(_callData, 32), size)\n            } \n            case 1 {\n                log1(add(_callData, 32), size, topic1)\n            }\n            case 2 {\n                log2(add(_callData, 32), size, topic1, topic2)\n            }\n            case 3 {\n                log3(add(_callData, 32), size, topic1, topic2, topic3)\n            }\n            case 4 {\n                log4(add(_callData, 32), size, topic1, topic2, topic3, topic4)\n            }\n        }\n    }\n\n    function()\n        external\n        payable\n    {\n        if (useDELEGATECALL) {\n            assembly {\n                /* Copy call data into free memory region. */\n                let free_ptr := mload(0x40)\n                calldatacopy(free_ptr, 0, calldatasize)\n\n                /* Forward all gas and call data to the target contract. */\n                let result := delegatecall(gas, sload(target_slot), free_ptr, calldatasize, 0, 0)\n                returndatacopy(free_ptr, 0, returndatasize)\n\n                /* Revert if the call failed, otherwise return the result. */\n                if iszero(result) { revert(free_ptr, returndatasize) }\n                return(free_ptr, returndatasize)\n            }\n        } else {\n            /* Here we are as above, but must send the messageSender explicitly \n             * since we are using CALL rather than DELEGATECALL. */\n            target.setMessageSender(msg.sender);\n            assembly {\n                let free_ptr := mload(0x40)\n                calldatacopy(free_ptr, 0, calldatasize)\n\n                /* We must explicitly forward ether to the underlying contract as well. */\n                let result := call(gas, sload(target_slot), callvalue, free_ptr, calldatasize, 0, 0)\n                returndatacopy(free_ptr, 0, returndatasize)\n\n                if iszero(result) { revert(free_ptr, returndatasize) }\n                return(free_ptr, returndatasize)\n            }\n        }\n    }\n\n    modifier onlyTarget {\n        require(Proxyable(msg.sender) == target, \"Must be proxy target\");\n        _;\n    }\n\n    event TargetUpdated(Proxyable newTarget);\n}\n",
  "sourcePath": "/Users/clementbalestrat/Workspace/final-project-clementbalestrat/contracts/Proxy.sol",
  "compiler": {
    "name": "solc",
    "version": "0.5.2+commit.1df8f40c.Emscripten.clang"
  },
  "schemaVersion": "3.0.1",
  "updatedAt": "2019-01-23T07:12:37.905Z",
  "devdoc": {
    "methods": {
      "isOwner()": {
        "return": "true if `msg.sender` is the owner of the contract."
      },
      "owner()": {
        "return": "the address of the owner."
      },
      "renounceOwnership()": {
        "details": "Allows the current owner to relinquish control of the contract."
      },
      "transferOwnership(address)": {
        "details": "Allows the current owner to transfer control of the contract to a newOwner.",
        "params": {
          "newOwner": "The address to transfer ownership to."
        }
      }
    }
  },
  "userdoc": {
    "methods": {
      "renounceOwnership()": {
        "notice": "Renouncing to ownership will leave the contract without an owner. It will not be possible to call the functions with the `onlyOwner` modifier anymore."
      }
    }
  }
}